{
	"data": {
		"bytecode": {
			"linkReferences": {
				"contracts/library/GoldilocksPoseidon.sol": {
					"GoldilocksPoseidon": [
						{
							"length": 20,
							"start": 753
						}
					]
				}
			},
			"object": "61100361004e600b8282823980515f1a607314610042577f4e487b71000000000000000000000000000000000000000000000000000000005f525f60045260245ffd5b305f52607381538281f3fe730000000000000000000000000000000000000000301460806040526004361061003f575f3560e01c80635219823a14610043578063eb407d9b14610073575b5f80fd5b61005d60048036038101906100589190610879565b6100a3565b60405161006a919061096e565b60405180910390f35b61008d60048036038101906100889190610a63565b610449565b60405161009a9190610aa6565b60405180910390f35b6100ab6106e7565b81600160f81b6040516020016100c2929190610b76565b60405160208183030381529060405291505b5f603883516100e39190610bca565b1461011457815f60f81b6040516020016100fe929190610b76565b60405160208183030381529060405291506100d4565b608060f81b82600184516101289190610c27565b8151811061013957610138610c5a565b5b6020010181815160f81c60f81b179150907effffffffffffffffffffffffffffffffffffffffffffffffffffffffffffff191690815f1a9053505f600760086101829190610c87565b835161018e9190610cc8565b90505f60405180608001604052805f81526020015f81526020015f81526020015f81525090505f805b8381101561043d576101c7610709565b5f6101d7888560076008026104c5565b90506007600802840193505f805f90505f805b600760080281101561029f575f85518210610208575f60f81b610227565b85828151811061021b5761021a610c5a565b5b602001015160f81c60f81b5b905060308160f81c60ff1666ffffffffffffff16901b60088666ffffffffffffff16901c179450838060010194505060078403610293578466ffffffffffffff1687846008811061027b5761027a610c5a565b5b60200201818152505082806001019350505f94505f93505b816001019150506101ea565b505f73__$9b8c96830caf0632b975e8f97d0ba8c119$__6310e2e3586103bc6040518061010001604052808a5f600881106102dd576102dc610c5a565b5b602002015181526020018a6001600881106102fb576102fa610c5a565b5b602002015181526020018a60026008811061031957610318610c5a565b5b602002015181526020018a60036008811061033757610336610c5a565b5b602002015181526020018a60046008811061035557610354610c5a565b5b602002015181526020018a60056008811061037357610372610c5a565b5b602002015181526020018a60066008811061039157610390610c5a565b5b602002015181526020018a6007600881106103af576103ae610c5a565b5b60200201518152506105b6565b8b60046040518463ffffffff1660e01b81526004016103dd93929190610dcb565b5f60405180830381865af41580156103f7573d5f803e3d5ffd5b505050506040513d5f823e3d601f19601f8201168201806040525081019061041f9190610edb565b905061042a8161065e565b98508660010196505050505050506101b7565b50819350505050919050565b5f815f6004811061045d5761045c610c5a565b5b602002015160408360016004811061047857610477610c5a565b5b6020020151901b60808460026004811061049557610494610c5a565b5b6020020151901b60c0856003600481106104b2576104b1610c5a565b5b6020020151901b1717175f1b9050919050565b6060835182846104d59190610f22565b1115610516576040517f08c379a000000000000000000000000000000000000000000000000000000000815260040161050d90610faf565b60405180910390fd5b5f8267ffffffffffffffff81111561053157610530610755565b5b6040519080825280601f01601f1916602001820160405280156105635781602001600182028036833780820191505090505b509050602085016020820185820191505f5b858110156105a85785602081111561058c57602090505b8351835260208401935060208301925050602081019050610575565b505050809150509392505050565b60605f600867ffffffffffffffff8111156105d4576105d3610755565b5b6040519080825280602002602001820160405280156106025781602001602082028036833780820191505090505b5090505f5b60088110156106545783816008811061062357610622610c5a565b5b602002015182828151811061063b5761063a610c5a565b5b6020026020010181815250508080600101915050610607565b5080915050919050565b6106666106e7565b5f5b60048110156106e15782518110156106b65782818151811061068d5761068c610c5a565b5b60200260200101518282600481106106a8576106a7610c5a565b5b6020020181815250506106d4565b5f8282600481106106ca576106c9610c5a565b5b6020020181815250505b8080600101915050610668565b50919050565b6040518060800160405280600490602082028036833780820191505090505090565b604051806101000160405280600890602082028036833780820191505090505090565b5f604051905090565b5f80fd5b5f80fd5b5f80fd5b5f80fd5b5f601f19601f8301169050919050565b7f4e487b71000000000000000000000000000000000000000000000000000000005f52604160045260245ffd5b61078b82610745565b810181811067ffffffffffffffff821117156107aa576107a9610755565b5b80604052505050565b5f6107bc61072c565b90506107c88282610782565b919050565b5f67ffffffffffffffff8211156107e7576107e6610755565b5b6107f082610745565b9050602081019050919050565b828183375f83830152505050565b5f61081d610818846107cd565b6107b3565b90508281526020810184848401111561083957610838610741565b5b6108448482856107fd565b509392505050565b5f82601f8301126108605761085f61073d565b5b813561087084826020860161080b565b91505092915050565b5f6020828403121561088e5761088d610735565b5b5f82013567ffffffffffffffff8111156108ab576108aa610739565b5b6108b78482850161084c565b91505092915050565b5f60049050919050565b5f81905092915050565b5f819050919050565b5f819050919050565b6108ef816108dd565b82525050565b5f61090083836108e6565b60208301905092915050565b5f602082019050919050565b610921816108c0565b61092b81846108ca565b9250610936826108d4565b805f5b8381101561096657815161094d87826108f5565b96506109588361090c565b925050600181019050610939565b505050505050565b5f6080820190506109815f830184610918565b92915050565b5f67ffffffffffffffff8211156109a1576109a0610755565b5b602082029050919050565b5f80fd5b6109b9816108dd565b81146109c3575f80fd5b50565b5f813590506109d4816109b0565b92915050565b5f6109ec6109e784610987565b6107b3565b90508060208402830185811115610a0657610a056109ac565b5b835b81811015610a2f5780610a1b88826109c6565b845260208401935050602081019050610a08565b5050509392505050565b5f82601f830112610a4d57610a4c61073d565b5b6004610a5a8482856109da565b91505092915050565b5f60808284031215610a7857610a77610735565b5b5f610a8584828501610a39565b91505092915050565b5f819050919050565b610aa081610a8e565b82525050565b5f602082019050610ab95f830184610a97565b92915050565b5f81519050919050565b5f81905092915050565b5f5b83811015610af0578082015181840152602081019050610ad5565b5f8484015250505050565b5f610b0582610abf565b610b0f8185610ac9565b9350610b1f818560208601610ad3565b80840191505092915050565b5f7fff0000000000000000000000000000000000000000000000000000000000000082169050919050565b5f819050919050565b610b70610b6b82610b2b565b610b56565b82525050565b5f610b818285610afb565b9150610b8d8284610b5f565b6001820191508190509392505050565b7f4e487b71000000000000000000000000000000000000000000000000000000005f52601260045260245ffd5b5f610bd4826108dd565b9150610bdf836108dd565b925082610bef57610bee610b9d565b5b828206905092915050565b7f4e487b71000000000000000000000000000000000000000000000000000000005f52601160045260245ffd5b5f610c31826108dd565b9150610c3c836108dd565b9250828203905081811115610c5457610c53610bfa565b5b92915050565b7f4e487b71000000000000000000000000000000000000000000000000000000005f52603260045260245ffd5b5f610c91826108dd565b9150610c9c836108dd565b9250828202610caa816108dd565b91508282048414831517610cc157610cc0610bfa565b5b5092915050565b5f610cd2826108dd565b9150610cdd836108dd565b925082610ced57610cec610b9d565b5b828204905092915050565b5f81519050919050565b5f82825260208201905092915050565b5f819050602082019050919050565b5f602082019050919050565b5f610d3782610cf8565b610d418185610d02565b9350610d4c83610d12565b805f5b83811015610d7c578151610d6388826108f5565b9750610d6e83610d21565b925050600181019050610d4f565b5085935050505092915050565b5f819050919050565b5f819050919050565b5f610db5610db0610dab84610d89565b610d92565b6108dd565b9050919050565b610dc581610d9b565b82525050565b5f60c0820190508181035f830152610de38186610d2d565b9050610df26020830185610918565b610dff60a0830184610dbc565b949350505050565b5f67ffffffffffffffff821115610e2157610e20610755565b5b602082029050602081019050919050565b5f81519050610e40816109b0565b92915050565b5f610e58610e5384610e07565b6107b3565b90508083825260208201905060208402830185811115610e7b57610e7a6109ac565b5b835b81811015610ea45780610e908882610e32565b845260208401935050602081019050610e7d565b5050509392505050565b5f82601f830112610ec257610ec161073d565b5b8151610ed2848260208601610e46565b91505092915050565b5f60208284031215610ef057610eef610735565b5b5f82015167ffffffffffffffff811115610f0d57610f0c610739565b5b610f1984828501610eae565b91505092915050565b5f610f2c826108dd565b9150610f37836108dd565b9250828201905080821115610f4f57610f4e610bfa565b5b92915050565b5f82825260208201905092915050565b7f736c696365206f7574206f6620626f756e6473000000000000000000000000005f82015250565b5f610f99601383610f55565b9150610fa482610f65565b602082019050919050565b5f6020820190508181035f830152610fc681610f8d565b905091905056fea26469706673582212209a6de7f1b13be1dcd51257142b537365913c069300a7e1ec83bff09e67fa86cb64736f6c63430008180033",
			"opcodes": "PUSH2 0x1003 PUSH2 0x4E PUSH1 0xB DUP3 DUP3 DUP3 CODECOPY DUP1 MLOAD PUSH0 BYTE PUSH1 0x73 EQ PUSH2 0x42 JUMPI PUSH32 0x4E487B7100000000000000000000000000000000000000000000000000000000 PUSH0 MSTORE PUSH0 PUSH1 0x4 MSTORE PUSH1 0x24 PUSH0 REVERT JUMPDEST ADDRESS PUSH0 MSTORE PUSH1 0x73 DUP2 MSTORE8 DUP3 DUP2 RETURN INVALID PUSH20 0x0 ADDRESS EQ PUSH1 0x80 PUSH1 0x40 MSTORE PUSH1 0x4 CALLDATASIZE LT PUSH2 0x3F JUMPI PUSH0 CALLDATALOAD PUSH1 0xE0 SHR DUP1 PUSH4 0x5219823A EQ PUSH2 0x43 JUMPI DUP1 PUSH4 0xEB407D9B EQ PUSH2 0x73 JUMPI JUMPDEST PUSH0 DUP1 REVERT JUMPDEST PUSH2 0x5D PUSH1 0x4 DUP1 CALLDATASIZE SUB DUP2 ADD SWAP1 PUSH2 0x58 SWAP2 SWAP1 PUSH2 0x879 JUMP JUMPDEST PUSH2 0xA3 JUMP JUMPDEST PUSH1 0x40 MLOAD PUSH2 0x6A SWAP2 SWAP1 PUSH2 0x96E JUMP JUMPDEST PUSH1 0x40 MLOAD DUP1 SWAP2 SUB SWAP1 RETURN JUMPDEST PUSH2 0x8D PUSH1 0x4 DUP1 CALLDATASIZE SUB DUP2 ADD SWAP1 PUSH2 0x88 SWAP2 SWAP1 PUSH2 0xA63 JUMP JUMPDEST PUSH2 0x449 JUMP JUMPDEST PUSH1 0x40 MLOAD PUSH2 0x9A SWAP2 SWAP1 PUSH2 0xAA6 JUMP JUMPDEST PUSH1 0x40 MLOAD DUP1 SWAP2 SUB SWAP1 RETURN JUMPDEST PUSH2 0xAB PUSH2 0x6E7 JUMP JUMPDEST DUP2 PUSH1 0x1 PUSH1 0xF8 SHL PUSH1 0x40 MLOAD PUSH1 0x20 ADD PUSH2 0xC2 SWAP3 SWAP2 SWAP1 PUSH2 0xB76 JUMP JUMPDEST PUSH1 0x40 MLOAD PUSH1 0x20 DUP2 DUP4 SUB SUB DUP2 MSTORE SWAP1 PUSH1 0x40 MSTORE SWAP2 POP JUMPDEST PUSH0 PUSH1 0x38 DUP4 MLOAD PUSH2 0xE3 SWAP2 SWAP1 PUSH2 0xBCA JUMP JUMPDEST EQ PUSH2 0x114 JUMPI DUP2 PUSH0 PUSH1 0xF8 SHL PUSH1 0x40 MLOAD PUSH1 0x20 ADD PUSH2 0xFE SWAP3 SWAP2 SWAP1 PUSH2 0xB76 JUMP JUMPDEST PUSH1 0x40 MLOAD PUSH1 0x20 DUP2 DUP4 SUB SUB DUP2 MSTORE SWAP1 PUSH1 0x40 MSTORE SWAP2 POP PUSH2 0xD4 JUMP JUMPDEST PUSH1 0x80 PUSH1 0xF8 SHL DUP3 PUSH1 0x1 DUP5 MLOAD PUSH2 0x128 SWAP2 SWAP1 PUSH2 0xC27 JUMP JUMPDEST DUP2 MLOAD DUP2 LT PUSH2 0x139 JUMPI PUSH2 0x138 PUSH2 0xC5A JUMP JUMPDEST JUMPDEST PUSH1 0x20 ADD ADD DUP2 DUP2 MLOAD PUSH1 0xF8 SHR PUSH1 0xF8 SHL OR SWAP2 POP SWAP1 PUSH31 0xFFFFFFFFFFFFFFFFFFFFFFFFFFFFFFFFFFFFFFFFFFFFFFFFFFFFFFFFFFFFFF NOT AND SWAP1 DUP2 PUSH0 BYTE SWAP1 MSTORE8 POP PUSH0 PUSH1 0x7 PUSH1 0x8 PUSH2 0x182 SWAP2 SWAP1 PUSH2 0xC87 JUMP JUMPDEST DUP4 MLOAD PUSH2 0x18E SWAP2 SWAP1 PUSH2 0xCC8 JUMP JUMPDEST SWAP1 POP PUSH0 PUSH1 0x40 MLOAD DUP1 PUSH1 0x80 ADD PUSH1 0x40 MSTORE DUP1 PUSH0 DUP2 MSTORE PUSH1 0x20 ADD PUSH0 DUP2 MSTORE PUSH1 0x20 ADD PUSH0 DUP2 MSTORE PUSH1 0x20 ADD PUSH0 DUP2 MSTORE POP SWAP1 POP PUSH0 DUP1 JUMPDEST DUP4 DUP2 LT ISZERO PUSH2 0x43D JUMPI PUSH2 0x1C7 PUSH2 0x709 JUMP JUMPDEST PUSH0 PUSH2 0x1D7 DUP9 DUP6 PUSH1 0x7 PUSH1 0x8 MUL PUSH2 0x4C5 JUMP JUMPDEST SWAP1 POP PUSH1 0x7 PUSH1 0x8 MUL DUP5 ADD SWAP4 POP PUSH0 DUP1 PUSH0 SWAP1 POP PUSH0 DUP1 JUMPDEST PUSH1 0x7 PUSH1 0x8 MUL DUP2 LT ISZERO PUSH2 0x29F JUMPI PUSH0 DUP6 MLOAD DUP3 LT PUSH2 0x208 JUMPI PUSH0 PUSH1 0xF8 SHL PUSH2 0x227 JUMP JUMPDEST DUP6 DUP3 DUP2 MLOAD DUP2 LT PUSH2 0x21B JUMPI PUSH2 0x21A PUSH2 0xC5A JUMP JUMPDEST JUMPDEST PUSH1 0x20 ADD ADD MLOAD PUSH1 0xF8 SHR PUSH1 0xF8 SHL JUMPDEST SWAP1 POP PUSH1 0x30 DUP2 PUSH1 0xF8 SHR PUSH1 0xFF AND PUSH7 0xFFFFFFFFFFFFFF AND SWAP1 SHL PUSH1 0x8 DUP7 PUSH7 0xFFFFFFFFFFFFFF AND SWAP1 SHR OR SWAP5 POP DUP4 DUP1 PUSH1 0x1 ADD SWAP5 POP POP PUSH1 0x7 DUP5 SUB PUSH2 0x293 JUMPI DUP5 PUSH7 0xFFFFFFFFFFFFFF AND DUP8 DUP5 PUSH1 0x8 DUP2 LT PUSH2 0x27B JUMPI PUSH2 0x27A PUSH2 0xC5A JUMP JUMPDEST JUMPDEST PUSH1 0x20 MUL ADD DUP2 DUP2 MSTORE POP POP DUP3 DUP1 PUSH1 0x1 ADD SWAP4 POP POP PUSH0 SWAP5 POP PUSH0 SWAP4 POP JUMPDEST DUP2 PUSH1 0x1 ADD SWAP2 POP POP PUSH2 0x1EA JUMP JUMPDEST POP PUSH0 PUSH20 0x0 PUSH4 0x10E2E358 PUSH2 0x3BC PUSH1 0x40 MLOAD DUP1 PUSH2 0x100 ADD PUSH1 0x40 MSTORE DUP1 DUP11 PUSH0 PUSH1 0x8 DUP2 LT PUSH2 0x2DD JUMPI PUSH2 0x2DC PUSH2 0xC5A JUMP JUMPDEST JUMPDEST PUSH1 0x20 MUL ADD MLOAD DUP2 MSTORE PUSH1 0x20 ADD DUP11 PUSH1 0x1 PUSH1 0x8 DUP2 LT PUSH2 0x2FB JUMPI PUSH2 0x2FA PUSH2 0xC5A JUMP JUMPDEST JUMPDEST PUSH1 0x20 MUL ADD MLOAD DUP2 MSTORE PUSH1 0x20 ADD DUP11 PUSH1 0x2 PUSH1 0x8 DUP2 LT PUSH2 0x319 JUMPI PUSH2 0x318 PUSH2 0xC5A JUMP JUMPDEST JUMPDEST PUSH1 0x20 MUL ADD MLOAD DUP2 MSTORE PUSH1 0x20 ADD DUP11 PUSH1 0x3 PUSH1 0x8 DUP2 LT PUSH2 0x337 JUMPI PUSH2 0x336 PUSH2 0xC5A JUMP JUMPDEST JUMPDEST PUSH1 0x20 MUL ADD MLOAD DUP2 MSTORE PUSH1 0x20 ADD DUP11 PUSH1 0x4 PUSH1 0x8 DUP2 LT PUSH2 0x355 JUMPI PUSH2 0x354 PUSH2 0xC5A JUMP JUMPDEST JUMPDEST PUSH1 0x20 MUL ADD MLOAD DUP2 MSTORE PUSH1 0x20 ADD DUP11 PUSH1 0x5 PUSH1 0x8 DUP2 LT PUSH2 0x373 JUMPI PUSH2 0x372 PUSH2 0xC5A JUMP JUMPDEST JUMPDEST PUSH1 0x20 MUL ADD MLOAD DUP2 MSTORE PUSH1 0x20 ADD DUP11 PUSH1 0x6 PUSH1 0x8 DUP2 LT PUSH2 0x391 JUMPI PUSH2 0x390 PUSH2 0xC5A JUMP JUMPDEST JUMPDEST PUSH1 0x20 MUL ADD MLOAD DUP2 MSTORE PUSH1 0x20 ADD DUP11 PUSH1 0x7 PUSH1 0x8 DUP2 LT PUSH2 0x3AF JUMPI PUSH2 0x3AE PUSH2 0xC5A JUMP JUMPDEST JUMPDEST PUSH1 0x20 MUL ADD MLOAD DUP2 MSTORE POP PUSH2 0x5B6 JUMP JUMPDEST DUP12 PUSH1 0x4 PUSH1 0x40 MLOAD DUP5 PUSH4 0xFFFFFFFF AND PUSH1 0xE0 SHL DUP2 MSTORE PUSH1 0x4 ADD PUSH2 0x3DD SWAP4 SWAP3 SWAP2 SWAP1 PUSH2 0xDCB JUMP JUMPDEST PUSH0 PUSH1 0x40 MLOAD DUP1 DUP4 SUB DUP2 DUP7 GAS DELEGATECALL ISZERO DUP1 ISZERO PUSH2 0x3F7 JUMPI RETURNDATASIZE PUSH0 DUP1 RETURNDATACOPY RETURNDATASIZE PUSH0 REVERT JUMPDEST POP POP POP POP PUSH1 0x40 MLOAD RETURNDATASIZE PUSH0 DUP3 RETURNDATACOPY RETURNDATASIZE PUSH1 0x1F NOT PUSH1 0x1F DUP3 ADD AND DUP3 ADD DUP1 PUSH1 0x40 MSTORE POP DUP2 ADD SWAP1 PUSH2 0x41F SWAP2 SWAP1 PUSH2 0xEDB JUMP JUMPDEST SWAP1 POP PUSH2 0x42A DUP2 PUSH2 0x65E JUMP JUMPDEST SWAP9 POP DUP7 PUSH1 0x1 ADD SWAP7 POP POP POP POP POP POP POP PUSH2 0x1B7 JUMP JUMPDEST POP DUP2 SWAP4 POP POP POP POP SWAP2 SWAP1 POP JUMP JUMPDEST PUSH0 DUP2 PUSH0 PUSH1 0x4 DUP2 LT PUSH2 0x45D JUMPI PUSH2 0x45C PUSH2 0xC5A JUMP JUMPDEST JUMPDEST PUSH1 0x20 MUL ADD MLOAD PUSH1 0x40 DUP4 PUSH1 0x1 PUSH1 0x4 DUP2 LT PUSH2 0x478 JUMPI PUSH2 0x477 PUSH2 0xC5A JUMP JUMPDEST JUMPDEST PUSH1 0x20 MUL ADD MLOAD SWAP1 SHL PUSH1 0x80 DUP5 PUSH1 0x2 PUSH1 0x4 DUP2 LT PUSH2 0x495 JUMPI PUSH2 0x494 PUSH2 0xC5A JUMP JUMPDEST JUMPDEST PUSH1 0x20 MUL ADD MLOAD SWAP1 SHL PUSH1 0xC0 DUP6 PUSH1 0x3 PUSH1 0x4 DUP2 LT PUSH2 0x4B2 JUMPI PUSH2 0x4B1 PUSH2 0xC5A JUMP JUMPDEST JUMPDEST PUSH1 0x20 MUL ADD MLOAD SWAP1 SHL OR OR OR PUSH0 SHL SWAP1 POP SWAP2 SWAP1 POP JUMP JUMPDEST PUSH1 0x60 DUP4 MLOAD DUP3 DUP5 PUSH2 0x4D5 SWAP2 SWAP1 PUSH2 0xF22 JUMP JUMPDEST GT ISZERO PUSH2 0x516 JUMPI PUSH1 0x40 MLOAD PUSH32 0x8C379A000000000000000000000000000000000000000000000000000000000 DUP2 MSTORE PUSH1 0x4 ADD PUSH2 0x50D SWAP1 PUSH2 0xFAF JUMP JUMPDEST PUSH1 0x40 MLOAD DUP1 SWAP2 SUB SWAP1 REVERT JUMPDEST PUSH0 DUP3 PUSH8 0xFFFFFFFFFFFFFFFF DUP2 GT ISZERO PUSH2 0x531 JUMPI PUSH2 0x530 PUSH2 0x755 JUMP JUMPDEST JUMPDEST PUSH1 0x40 MLOAD SWAP1 DUP1 DUP3 MSTORE DUP1 PUSH1 0x1F ADD PUSH1 0x1F NOT AND PUSH1 0x20 ADD DUP3 ADD PUSH1 0x40 MSTORE DUP1 ISZERO PUSH2 0x563 JUMPI DUP2 PUSH1 0x20 ADD PUSH1 0x1 DUP3 MUL DUP1 CALLDATASIZE DUP4 CALLDATACOPY DUP1 DUP3 ADD SWAP2 POP POP SWAP1 POP JUMPDEST POP SWAP1 POP PUSH1 0x20 DUP6 ADD PUSH1 0x20 DUP3 ADD DUP6 DUP3 ADD SWAP2 POP PUSH0 JUMPDEST DUP6 DUP2 LT ISZERO PUSH2 0x5A8 JUMPI DUP6 PUSH1 0x20 DUP2 GT ISZERO PUSH2 0x58C JUMPI PUSH1 0x20 SWAP1 POP JUMPDEST DUP4 MLOAD DUP4 MSTORE PUSH1 0x20 DUP5 ADD SWAP4 POP PUSH1 0x20 DUP4 ADD SWAP3 POP POP PUSH1 0x20 DUP2 ADD SWAP1 POP PUSH2 0x575 JUMP JUMPDEST POP POP POP DUP1 SWAP2 POP POP SWAP4 SWAP3 POP POP POP JUMP JUMPDEST PUSH1 0x60 PUSH0 PUSH1 0x8 PUSH8 0xFFFFFFFFFFFFFFFF DUP2 GT ISZERO PUSH2 0x5D4 JUMPI PUSH2 0x5D3 PUSH2 0x755 JUMP JUMPDEST JUMPDEST PUSH1 0x40 MLOAD SWAP1 DUP1 DUP3 MSTORE DUP1 PUSH1 0x20 MUL PUSH1 0x20 ADD DUP3 ADD PUSH1 0x40 MSTORE DUP1 ISZERO PUSH2 0x602 JUMPI DUP2 PUSH1 0x20 ADD PUSH1 0x20 DUP3 MUL DUP1 CALLDATASIZE DUP4 CALLDATACOPY DUP1 DUP3 ADD SWAP2 POP POP SWAP1 POP JUMPDEST POP SWAP1 POP PUSH0 JUMPDEST PUSH1 0x8 DUP2 LT ISZERO PUSH2 0x654 JUMPI DUP4 DUP2 PUSH1 0x8 DUP2 LT PUSH2 0x623 JUMPI PUSH2 0x622 PUSH2 0xC5A JUMP JUMPDEST JUMPDEST PUSH1 0x20 MUL ADD MLOAD DUP3 DUP3 DUP2 MLOAD DUP2 LT PUSH2 0x63B JUMPI PUSH2 0x63A PUSH2 0xC5A JUMP JUMPDEST JUMPDEST PUSH1 0x20 MUL PUSH1 0x20 ADD ADD DUP2 DUP2 MSTORE POP POP DUP1 DUP1 PUSH1 0x1 ADD SWAP2 POP POP PUSH2 0x607 JUMP JUMPDEST POP DUP1 SWAP2 POP POP SWAP2 SWAP1 POP JUMP JUMPDEST PUSH2 0x666 PUSH2 0x6E7 JUMP JUMPDEST PUSH0 JUMPDEST PUSH1 0x4 DUP2 LT ISZERO PUSH2 0x6E1 JUMPI DUP3 MLOAD DUP2 LT ISZERO PUSH2 0x6B6 JUMPI DUP3 DUP2 DUP2 MLOAD DUP2 LT PUSH2 0x68D JUMPI PUSH2 0x68C PUSH2 0xC5A JUMP JUMPDEST JUMPDEST PUSH1 0x20 MUL PUSH1 0x20 ADD ADD MLOAD DUP3 DUP3 PUSH1 0x4 DUP2 LT PUSH2 0x6A8 JUMPI PUSH2 0x6A7 PUSH2 0xC5A JUMP JUMPDEST JUMPDEST PUSH1 0x20 MUL ADD DUP2 DUP2 MSTORE POP POP PUSH2 0x6D4 JUMP JUMPDEST PUSH0 DUP3 DUP3 PUSH1 0x4 DUP2 LT PUSH2 0x6CA JUMPI PUSH2 0x6C9 PUSH2 0xC5A JUMP JUMPDEST JUMPDEST PUSH1 0x20 MUL ADD DUP2 DUP2 MSTORE POP POP JUMPDEST DUP1 DUP1 PUSH1 0x1 ADD SWAP2 POP POP PUSH2 0x668 JUMP JUMPDEST POP SWAP2 SWAP1 POP JUMP JUMPDEST PUSH1 0x40 MLOAD DUP1 PUSH1 0x80 ADD PUSH1 0x40 MSTORE DUP1 PUSH1 0x4 SWAP1 PUSH1 0x20 DUP3 MUL DUP1 CALLDATASIZE DUP4 CALLDATACOPY DUP1 DUP3 ADD SWAP2 POP POP SWAP1 POP POP SWAP1 JUMP JUMPDEST PUSH1 0x40 MLOAD DUP1 PUSH2 0x100 ADD PUSH1 0x40 MSTORE DUP1 PUSH1 0x8 SWAP1 PUSH1 0x20 DUP3 MUL DUP1 CALLDATASIZE DUP4 CALLDATACOPY DUP1 DUP3 ADD SWAP2 POP POP SWAP1 POP POP SWAP1 JUMP JUMPDEST PUSH0 PUSH1 0x40 MLOAD SWAP1 POP SWAP1 JUMP JUMPDEST PUSH0 DUP1 REVERT JUMPDEST PUSH0 DUP1 REVERT JUMPDEST PUSH0 DUP1 REVERT JUMPDEST PUSH0 DUP1 REVERT JUMPDEST PUSH0 PUSH1 0x1F NOT PUSH1 0x1F DUP4 ADD AND SWAP1 POP SWAP2 SWAP1 POP JUMP JUMPDEST PUSH32 0x4E487B7100000000000000000000000000000000000000000000000000000000 PUSH0 MSTORE PUSH1 0x41 PUSH1 0x4 MSTORE PUSH1 0x24 PUSH0 REVERT JUMPDEST PUSH2 0x78B DUP3 PUSH2 0x745 JUMP JUMPDEST DUP2 ADD DUP2 DUP2 LT PUSH8 0xFFFFFFFFFFFFFFFF DUP3 GT OR ISZERO PUSH2 0x7AA JUMPI PUSH2 0x7A9 PUSH2 0x755 JUMP JUMPDEST JUMPDEST DUP1 PUSH1 0x40 MSTORE POP POP POP JUMP JUMPDEST PUSH0 PUSH2 0x7BC PUSH2 0x72C JUMP JUMPDEST SWAP1 POP PUSH2 0x7C8 DUP3 DUP3 PUSH2 0x782 JUMP JUMPDEST SWAP2 SWAP1 POP JUMP JUMPDEST PUSH0 PUSH8 0xFFFFFFFFFFFFFFFF DUP3 GT ISZERO PUSH2 0x7E7 JUMPI PUSH2 0x7E6 PUSH2 0x755 JUMP JUMPDEST JUMPDEST PUSH2 0x7F0 DUP3 PUSH2 0x745 JUMP JUMPDEST SWAP1 POP PUSH1 0x20 DUP2 ADD SWAP1 POP SWAP2 SWAP1 POP JUMP JUMPDEST DUP3 DUP2 DUP4 CALLDATACOPY PUSH0 DUP4 DUP4 ADD MSTORE POP POP POP JUMP JUMPDEST PUSH0 PUSH2 0x81D PUSH2 0x818 DUP5 PUSH2 0x7CD JUMP JUMPDEST PUSH2 0x7B3 JUMP JUMPDEST SWAP1 POP DUP3 DUP2 MSTORE PUSH1 0x20 DUP2 ADD DUP5 DUP5 DUP5 ADD GT ISZERO PUSH2 0x839 JUMPI PUSH2 0x838 PUSH2 0x741 JUMP JUMPDEST JUMPDEST PUSH2 0x844 DUP5 DUP3 DUP6 PUSH2 0x7FD JUMP JUMPDEST POP SWAP4 SWAP3 POP POP POP JUMP JUMPDEST PUSH0 DUP3 PUSH1 0x1F DUP4 ADD SLT PUSH2 0x860 JUMPI PUSH2 0x85F PUSH2 0x73D JUMP JUMPDEST JUMPDEST DUP2 CALLDATALOAD PUSH2 0x870 DUP5 DUP3 PUSH1 0x20 DUP7 ADD PUSH2 0x80B JUMP JUMPDEST SWAP2 POP POP SWAP3 SWAP2 POP POP JUMP JUMPDEST PUSH0 PUSH1 0x20 DUP3 DUP5 SUB SLT ISZERO PUSH2 0x88E JUMPI PUSH2 0x88D PUSH2 0x735 JUMP JUMPDEST JUMPDEST PUSH0 DUP3 ADD CALLDATALOAD PUSH8 0xFFFFFFFFFFFFFFFF DUP2 GT ISZERO PUSH2 0x8AB JUMPI PUSH2 0x8AA PUSH2 0x739 JUMP JUMPDEST JUMPDEST PUSH2 0x8B7 DUP5 DUP3 DUP6 ADD PUSH2 0x84C JUMP JUMPDEST SWAP2 POP POP SWAP3 SWAP2 POP POP JUMP JUMPDEST PUSH0 PUSH1 0x4 SWAP1 POP SWAP2 SWAP1 POP JUMP JUMPDEST PUSH0 DUP2 SWAP1 POP SWAP3 SWAP2 POP POP JUMP JUMPDEST PUSH0 DUP2 SWAP1 POP SWAP2 SWAP1 POP JUMP JUMPDEST PUSH0 DUP2 SWAP1 POP SWAP2 SWAP1 POP JUMP JUMPDEST PUSH2 0x8EF DUP2 PUSH2 0x8DD JUMP JUMPDEST DUP3 MSTORE POP POP JUMP JUMPDEST PUSH0 PUSH2 0x900 DUP4 DUP4 PUSH2 0x8E6 JUMP JUMPDEST PUSH1 0x20 DUP4 ADD SWAP1 POP SWAP3 SWAP2 POP POP JUMP JUMPDEST PUSH0 PUSH1 0x20 DUP3 ADD SWAP1 POP SWAP2 SWAP1 POP JUMP JUMPDEST PUSH2 0x921 DUP2 PUSH2 0x8C0 JUMP JUMPDEST PUSH2 0x92B DUP2 DUP5 PUSH2 0x8CA JUMP JUMPDEST SWAP3 POP PUSH2 0x936 DUP3 PUSH2 0x8D4 JUMP JUMPDEST DUP1 PUSH0 JUMPDEST DUP4 DUP2 LT ISZERO PUSH2 0x966 JUMPI DUP2 MLOAD PUSH2 0x94D DUP8 DUP3 PUSH2 0x8F5 JUMP JUMPDEST SWAP7 POP PUSH2 0x958 DUP4 PUSH2 0x90C JUMP JUMPDEST SWAP3 POP POP PUSH1 0x1 DUP2 ADD SWAP1 POP PUSH2 0x939 JUMP JUMPDEST POP POP POP POP POP POP JUMP JUMPDEST PUSH0 PUSH1 0x80 DUP3 ADD SWAP1 POP PUSH2 0x981 PUSH0 DUP4 ADD DUP5 PUSH2 0x918 JUMP JUMPDEST SWAP3 SWAP2 POP POP JUMP JUMPDEST PUSH0 PUSH8 0xFFFFFFFFFFFFFFFF DUP3 GT ISZERO PUSH2 0x9A1 JUMPI PUSH2 0x9A0 PUSH2 0x755 JUMP JUMPDEST JUMPDEST PUSH1 0x20 DUP3 MUL SWAP1 POP SWAP2 SWAP1 POP JUMP JUMPDEST PUSH0 DUP1 REVERT JUMPDEST PUSH2 0x9B9 DUP2 PUSH2 0x8DD JUMP JUMPDEST DUP2 EQ PUSH2 0x9C3 JUMPI PUSH0 DUP1 REVERT JUMPDEST POP JUMP JUMPDEST PUSH0 DUP2 CALLDATALOAD SWAP1 POP PUSH2 0x9D4 DUP2 PUSH2 0x9B0 JUMP JUMPDEST SWAP3 SWAP2 POP POP JUMP JUMPDEST PUSH0 PUSH2 0x9EC PUSH2 0x9E7 DUP5 PUSH2 0x987 JUMP JUMPDEST PUSH2 0x7B3 JUMP JUMPDEST SWAP1 POP DUP1 PUSH1 0x20 DUP5 MUL DUP4 ADD DUP6 DUP2 GT ISZERO PUSH2 0xA06 JUMPI PUSH2 0xA05 PUSH2 0x9AC JUMP JUMPDEST JUMPDEST DUP4 JUMPDEST DUP2 DUP2 LT ISZERO PUSH2 0xA2F JUMPI DUP1 PUSH2 0xA1B DUP9 DUP3 PUSH2 0x9C6 JUMP JUMPDEST DUP5 MSTORE PUSH1 0x20 DUP5 ADD SWAP4 POP POP PUSH1 0x20 DUP2 ADD SWAP1 POP PUSH2 0xA08 JUMP JUMPDEST POP POP POP SWAP4 SWAP3 POP POP POP JUMP JUMPDEST PUSH0 DUP3 PUSH1 0x1F DUP4 ADD SLT PUSH2 0xA4D JUMPI PUSH2 0xA4C PUSH2 0x73D JUMP JUMPDEST JUMPDEST PUSH1 0x4 PUSH2 0xA5A DUP5 DUP3 DUP6 PUSH2 0x9DA JUMP JUMPDEST SWAP2 POP POP SWAP3 SWAP2 POP POP JUMP JUMPDEST PUSH0 PUSH1 0x80 DUP3 DUP5 SUB SLT ISZERO PUSH2 0xA78 JUMPI PUSH2 0xA77 PUSH2 0x735 JUMP JUMPDEST JUMPDEST PUSH0 PUSH2 0xA85 DUP5 DUP3 DUP6 ADD PUSH2 0xA39 JUMP JUMPDEST SWAP2 POP POP SWAP3 SWAP2 POP POP JUMP JUMPDEST PUSH0 DUP2 SWAP1 POP SWAP2 SWAP1 POP JUMP JUMPDEST PUSH2 0xAA0 DUP2 PUSH2 0xA8E JUMP JUMPDEST DUP3 MSTORE POP POP JUMP JUMPDEST PUSH0 PUSH1 0x20 DUP3 ADD SWAP1 POP PUSH2 0xAB9 PUSH0 DUP4 ADD DUP5 PUSH2 0xA97 JUMP JUMPDEST SWAP3 SWAP2 POP POP JUMP JUMPDEST PUSH0 DUP2 MLOAD SWAP1 POP SWAP2 SWAP1 POP JUMP JUMPDEST PUSH0 DUP2 SWAP1 POP SWAP3 SWAP2 POP POP JUMP JUMPDEST PUSH0 JUMPDEST DUP4 DUP2 LT ISZERO PUSH2 0xAF0 JUMPI DUP1 DUP3 ADD MLOAD DUP2 DUP5 ADD MSTORE PUSH1 0x20 DUP2 ADD SWAP1 POP PUSH2 0xAD5 JUMP JUMPDEST PUSH0 DUP5 DUP5 ADD MSTORE POP POP POP POP JUMP JUMPDEST PUSH0 PUSH2 0xB05 DUP3 PUSH2 0xABF JUMP JUMPDEST PUSH2 0xB0F DUP2 DUP6 PUSH2 0xAC9 JUMP JUMPDEST SWAP4 POP PUSH2 0xB1F DUP2 DUP6 PUSH1 0x20 DUP7 ADD PUSH2 0xAD3 JUMP JUMPDEST DUP1 DUP5 ADD SWAP2 POP POP SWAP3 SWAP2 POP POP JUMP JUMPDEST PUSH0 PUSH32 0xFF00000000000000000000000000000000000000000000000000000000000000 DUP3 AND SWAP1 POP SWAP2 SWAP1 POP JUMP JUMPDEST PUSH0 DUP2 SWAP1 POP SWAP2 SWAP1 POP JUMP JUMPDEST PUSH2 0xB70 PUSH2 0xB6B DUP3 PUSH2 0xB2B JUMP JUMPDEST PUSH2 0xB56 JUMP JUMPDEST DUP3 MSTORE POP POP JUMP JUMPDEST PUSH0 PUSH2 0xB81 DUP3 DUP6 PUSH2 0xAFB JUMP JUMPDEST SWAP2 POP PUSH2 0xB8D DUP3 DUP5 PUSH2 0xB5F JUMP JUMPDEST PUSH1 0x1 DUP3 ADD SWAP2 POP DUP2 SWAP1 POP SWAP4 SWAP3 POP POP POP JUMP JUMPDEST PUSH32 0x4E487B7100000000000000000000000000000000000000000000000000000000 PUSH0 MSTORE PUSH1 0x12 PUSH1 0x4 MSTORE PUSH1 0x24 PUSH0 REVERT JUMPDEST PUSH0 PUSH2 0xBD4 DUP3 PUSH2 0x8DD JUMP JUMPDEST SWAP2 POP PUSH2 0xBDF DUP4 PUSH2 0x8DD JUMP JUMPDEST SWAP3 POP DUP3 PUSH2 0xBEF JUMPI PUSH2 0xBEE PUSH2 0xB9D JUMP JUMPDEST JUMPDEST DUP3 DUP3 MOD SWAP1 POP SWAP3 SWAP2 POP POP JUMP JUMPDEST PUSH32 0x4E487B7100000000000000000000000000000000000000000000000000000000 PUSH0 MSTORE PUSH1 0x11 PUSH1 0x4 MSTORE PUSH1 0x24 PUSH0 REVERT JUMPDEST PUSH0 PUSH2 0xC31 DUP3 PUSH2 0x8DD JUMP JUMPDEST SWAP2 POP PUSH2 0xC3C DUP4 PUSH2 0x8DD JUMP JUMPDEST SWAP3 POP DUP3 DUP3 SUB SWAP1 POP DUP2 DUP2 GT ISZERO PUSH2 0xC54 JUMPI PUSH2 0xC53 PUSH2 0xBFA JUMP JUMPDEST JUMPDEST SWAP3 SWAP2 POP POP JUMP JUMPDEST PUSH32 0x4E487B7100000000000000000000000000000000000000000000000000000000 PUSH0 MSTORE PUSH1 0x32 PUSH1 0x4 MSTORE PUSH1 0x24 PUSH0 REVERT JUMPDEST PUSH0 PUSH2 0xC91 DUP3 PUSH2 0x8DD JUMP JUMPDEST SWAP2 POP PUSH2 0xC9C DUP4 PUSH2 0x8DD JUMP JUMPDEST SWAP3 POP DUP3 DUP3 MUL PUSH2 0xCAA DUP2 PUSH2 0x8DD JUMP JUMPDEST SWAP2 POP DUP3 DUP3 DIV DUP5 EQ DUP4 ISZERO OR PUSH2 0xCC1 JUMPI PUSH2 0xCC0 PUSH2 0xBFA JUMP JUMPDEST JUMPDEST POP SWAP3 SWAP2 POP POP JUMP JUMPDEST PUSH0 PUSH2 0xCD2 DUP3 PUSH2 0x8DD JUMP JUMPDEST SWAP2 POP PUSH2 0xCDD DUP4 PUSH2 0x8DD JUMP JUMPDEST SWAP3 POP DUP3 PUSH2 0xCED JUMPI PUSH2 0xCEC PUSH2 0xB9D JUMP JUMPDEST JUMPDEST DUP3 DUP3 DIV SWAP1 POP SWAP3 SWAP2 POP POP JUMP JUMPDEST PUSH0 DUP2 MLOAD SWAP1 POP SWAP2 SWAP1 POP JUMP JUMPDEST PUSH0 DUP3 DUP3 MSTORE PUSH1 0x20 DUP3 ADD SWAP1 POP SWAP3 SWAP2 POP POP JUMP JUMPDEST PUSH0 DUP2 SWAP1 POP PUSH1 0x20 DUP3 ADD SWAP1 POP SWAP2 SWAP1 POP JUMP JUMPDEST PUSH0 PUSH1 0x20 DUP3 ADD SWAP1 POP SWAP2 SWAP1 POP JUMP JUMPDEST PUSH0 PUSH2 0xD37 DUP3 PUSH2 0xCF8 JUMP JUMPDEST PUSH2 0xD41 DUP2 DUP6 PUSH2 0xD02 JUMP JUMPDEST SWAP4 POP PUSH2 0xD4C DUP4 PUSH2 0xD12 JUMP JUMPDEST DUP1 PUSH0 JUMPDEST DUP4 DUP2 LT ISZERO PUSH2 0xD7C JUMPI DUP2 MLOAD PUSH2 0xD63 DUP9 DUP3 PUSH2 0x8F5 JUMP JUMPDEST SWAP8 POP PUSH2 0xD6E DUP4 PUSH2 0xD21 JUMP JUMPDEST SWAP3 POP POP PUSH1 0x1 DUP2 ADD SWAP1 POP PUSH2 0xD4F JUMP JUMPDEST POP DUP6 SWAP4 POP POP POP POP SWAP3 SWAP2 POP POP JUMP JUMPDEST PUSH0 DUP2 SWAP1 POP SWAP2 SWAP1 POP JUMP JUMPDEST PUSH0 DUP2 SWAP1 POP SWAP2 SWAP1 POP JUMP JUMPDEST PUSH0 PUSH2 0xDB5 PUSH2 0xDB0 PUSH2 0xDAB DUP5 PUSH2 0xD89 JUMP JUMPDEST PUSH2 0xD92 JUMP JUMPDEST PUSH2 0x8DD JUMP JUMPDEST SWAP1 POP SWAP2 SWAP1 POP JUMP JUMPDEST PUSH2 0xDC5 DUP2 PUSH2 0xD9B JUMP JUMPDEST DUP3 MSTORE POP POP JUMP JUMPDEST PUSH0 PUSH1 0xC0 DUP3 ADD SWAP1 POP DUP2 DUP2 SUB PUSH0 DUP4 ADD MSTORE PUSH2 0xDE3 DUP2 DUP7 PUSH2 0xD2D JUMP JUMPDEST SWAP1 POP PUSH2 0xDF2 PUSH1 0x20 DUP4 ADD DUP6 PUSH2 0x918 JUMP JUMPDEST PUSH2 0xDFF PUSH1 0xA0 DUP4 ADD DUP5 PUSH2 0xDBC JUMP JUMPDEST SWAP5 SWAP4 POP POP POP POP JUMP JUMPDEST PUSH0 PUSH8 0xFFFFFFFFFFFFFFFF DUP3 GT ISZERO PUSH2 0xE21 JUMPI PUSH2 0xE20 PUSH2 0x755 JUMP JUMPDEST JUMPDEST PUSH1 0x20 DUP3 MUL SWAP1 POP PUSH1 0x20 DUP2 ADD SWAP1 POP SWAP2 SWAP1 POP JUMP JUMPDEST PUSH0 DUP2 MLOAD SWAP1 POP PUSH2 0xE40 DUP2 PUSH2 0x9B0 JUMP JUMPDEST SWAP3 SWAP2 POP POP JUMP JUMPDEST PUSH0 PUSH2 0xE58 PUSH2 0xE53 DUP5 PUSH2 0xE07 JUMP JUMPDEST PUSH2 0x7B3 JUMP JUMPDEST SWAP1 POP DUP1 DUP4 DUP3 MSTORE PUSH1 0x20 DUP3 ADD SWAP1 POP PUSH1 0x20 DUP5 MUL DUP4 ADD DUP6 DUP2 GT ISZERO PUSH2 0xE7B JUMPI PUSH2 0xE7A PUSH2 0x9AC JUMP JUMPDEST JUMPDEST DUP4 JUMPDEST DUP2 DUP2 LT ISZERO PUSH2 0xEA4 JUMPI DUP1 PUSH2 0xE90 DUP9 DUP3 PUSH2 0xE32 JUMP JUMPDEST DUP5 MSTORE PUSH1 0x20 DUP5 ADD SWAP4 POP POP PUSH1 0x20 DUP2 ADD SWAP1 POP PUSH2 0xE7D JUMP JUMPDEST POP POP POP SWAP4 SWAP3 POP POP POP JUMP JUMPDEST PUSH0 DUP3 PUSH1 0x1F DUP4 ADD SLT PUSH2 0xEC2 JUMPI PUSH2 0xEC1 PUSH2 0x73D JUMP JUMPDEST JUMPDEST DUP2 MLOAD PUSH2 0xED2 DUP5 DUP3 PUSH1 0x20 DUP7 ADD PUSH2 0xE46 JUMP JUMPDEST SWAP2 POP POP SWAP3 SWAP2 POP POP JUMP JUMPDEST PUSH0 PUSH1 0x20 DUP3 DUP5 SUB SLT ISZERO PUSH2 0xEF0 JUMPI PUSH2 0xEEF PUSH2 0x735 JUMP JUMPDEST JUMPDEST PUSH0 DUP3 ADD MLOAD PUSH8 0xFFFFFFFFFFFFFFFF DUP2 GT ISZERO PUSH2 0xF0D JUMPI PUSH2 0xF0C PUSH2 0x739 JUMP JUMPDEST JUMPDEST PUSH2 0xF19 DUP5 DUP3 DUP6 ADD PUSH2 0xEAE JUMP JUMPDEST SWAP2 POP POP SWAP3 SWAP2 POP POP JUMP JUMPDEST PUSH0 PUSH2 0xF2C DUP3 PUSH2 0x8DD JUMP JUMPDEST SWAP2 POP PUSH2 0xF37 DUP4 PUSH2 0x8DD JUMP JUMPDEST SWAP3 POP DUP3 DUP3 ADD SWAP1 POP DUP1 DUP3 GT ISZERO PUSH2 0xF4F JUMPI PUSH2 0xF4E PUSH2 0xBFA JUMP JUMPDEST JUMPDEST SWAP3 SWAP2 POP POP JUMP JUMPDEST PUSH0 DUP3 DUP3 MSTORE PUSH1 0x20 DUP3 ADD SWAP1 POP SWAP3 SWAP2 POP POP JUMP JUMPDEST PUSH32 0x736C696365206F7574206F6620626F756E647300000000000000000000000000 PUSH0 DUP3 ADD MSTORE POP JUMP JUMPDEST PUSH0 PUSH2 0xF99 PUSH1 0x13 DUP4 PUSH2 0xF55 JUMP JUMPDEST SWAP2 POP PUSH2 0xFA4 DUP3 PUSH2 0xF65 JUMP JUMPDEST PUSH1 0x20 DUP3 ADD SWAP1 POP SWAP2 SWAP1 POP JUMP JUMPDEST PUSH0 PUSH1 0x20 DUP3 ADD SWAP1 POP DUP2 DUP2 SUB PUSH0 DUP4 ADD MSTORE PUSH2 0xFC6 DUP2 PUSH2 0xF8D JUMP JUMPDEST SWAP1 POP SWAP2 SWAP1 POP JUMP INVALID LOG2 PUSH5 0x6970667358 0x22 SLT KECCAK256 SWAP11 PUSH14 0xE7F1B13BE1DCD51257142B537365 SWAP2 EXTCODECOPY MOD SWAP4 STOP 0xA7 0xE1 0xEC DUP4 0xBF CREATE SWAP15 PUSH8 0xFA86CB64736F6C63 NUMBER STOP ADDMOD XOR STOP CALLER "
		},
		"gasEstimates": {
			"creation": {
				"codeDepositCost": "819800",
				"executionCost": "880",
				"totalCost": "820680"
			},
			"external": {
				"hashMessage(bytes)": "infinite",
				"mergeUint64ToBytes32(uint256[4])": "infinite"
			},
			"internal": {
				"convertFixedToDynamic(uint256[8] memory)": "infinite",
				"convertToFixedArray(uint256[] memory)": "infinite",
				"sliceBytes(bytes memory,uint256,uint256)": "infinite"
			}
		},
		"methodIdentifiers": {
			"hashMessage(bytes)": "5219823a",
			"mergeUint64ToBytes32(uint256[4])": "eb407d9b"
		}
	},
	"abi": [
		{
			"inputs": [
				{
					"internalType": "bytes",
					"name": "bytecode",
					"type": "bytes"
				}
			],
			"name": "hashMessage",
			"outputs": [
				{
					"internalType": "uint256[4]",
					"name": "",
					"type": "uint256[4]"
				}
			],
			"stateMutability": "pure",
			"type": "function"
		},
		{
			"inputs": [
				{
					"internalType": "uint256[4]",
					"name": "parts",
					"type": "uint256[4]"
				}
			],
			"name": "mergeUint64ToBytes32",
			"outputs": [
				{
					"internalType": "bytes32",
					"name": "",
					"type": "bytes32"
				}
			],
			"stateMutability": "pure",
			"type": "function"
		}
	]
}