{
	"data": {
		"bytecode": {
			"linkReferences": {},
			"object": "60a060405234801561000f575f5ffd5b5060405161442d38038061442d83398181016040528101906100319190610144565b808260405161003f9061009e565b61004a9291906101ec565b604051809103905ff080158015610063573d5f5f3e3d5ffd5b5073ffffffffffffffffffffffffffffffffffffffff1660808173ffffffffffffffffffffffffffffffffffffffff16815250505050610213565b61359480610e9983390190565b5f5ffd5b5f73ffffffffffffffffffffffffffffffffffffffff82169050919050565b5f6100d8826100af565b9050919050565b5f6100e9826100ce565b9050919050565b6100f9816100df565b8114610103575f5ffd5b50565b5f81519050610114816100f0565b92915050565b610123816100ce565b811461012d575f5ffd5b50565b5f8151905061013e8161011a565b92915050565b5f5f6040838503121561015a576101596100ab565b5b5f61016785828601610106565b925050602061017885828601610130565b9150509250929050565b61018b816100ce565b82525050565b5f819050919050565b5f6101b46101af6101aa846100af565b610191565b6100af565b9050919050565b5f6101c58261019a565b9050919050565b5f6101d6826101bb565b9050919050565b6101e6816101cc565b82525050565b5f6040820190506101ff5f830185610182565b61020c60208301846101dd565b9392505050565b608051610c616102385f395f818160c30152818161012501526102070152610c615ff3fe608060405234801561000f575f5ffd5b506004361061003f575f3560e01c806311464fbe146100435780635fbfb9cf146100615780638cb84e1814610091575b5f5ffd5b61004b6100c1565b60405161005891906103ab565b60405180910390f35b61007b60048036038101906100769190610436565b6100e5565b60405161008891906103ab565b60405180910390f35b6100ab60048036038101906100a69190610436565b6101da565b6040516100b89190610483565b60405180910390f35b7f000000000000000000000000000000000000000000000000000000000000000081565b5f5f6100f184846101da565b90505f8173ffffffffffffffffffffffffffffffffffffffff163b90505f8111156101205781925050506101d4565b835f1b7f0000000000000000000000000000000000000000000000000000000000000000866040516024016101559190610483565b60405160208183030381529060405263c4d66de860e01b6020820180517bffffffffffffffffffffffffffffffffffffffffffffffffffffffff83818316178352505050506040516101a690610324565b6101b192919061050c565b8190604051809103905ff59050801580156101ce573d5f5f3e3d5ffd5b50925050505b92915050565b5f6102c8825f1b604051806020016101f190610324565b6020820181038252601f19601f820116604052507f0000000000000000000000000000000000000000000000000000000000000000866040516024016102379190610483565b60405160208183030381529060405263c4d66de860e01b6020820180517bffffffffffffffffffffffffffffffffffffffffffffffffffffffff838183161783525050505060405160200161028d92919061050c565b6040516020818303038152906040526040516020016102ad929190610574565b604051602081830303815290604052805190602001206102d0565b905092915050565b5f6102dc8383306102e4565b905092915050565b5f604051836040820152846020820152828152600b810160ff815373ffffffffffffffffffffffffffffffffffffffff6055822016925050509392505050565b6106948061059883390190565b5f73ffffffffffffffffffffffffffffffffffffffff82169050919050565b5f819050919050565b5f61037361036e61036984610331565b610350565b610331565b9050919050565b5f61038482610359565b9050919050565b5f6103958261037a565b9050919050565b6103a58161038b565b82525050565b5f6020820190506103be5f83018461039c565b92915050565b5f5ffd5b5f6103d282610331565b9050919050565b6103e2816103c8565b81146103ec575f5ffd5b50565b5f813590506103fd816103d9565b92915050565b5f819050919050565b61041581610403565b811461041f575f5ffd5b50565b5f813590506104308161040c565b92915050565b5f5f6040838503121561044c5761044b6103c4565b5b5f610459858286016103ef565b925050602061046a85828601610422565b9150509250929050565b61047d816103c8565b82525050565b5f6020820190506104965f830184610474565b92915050565b5f81519050919050565b5f82825260208201905092915050565b8281835e5f83830152505050565b5f601f19601f8301169050919050565b5f6104de8261049c565b6104e881856104a6565b93506104f88185602086016104b6565b610501816104c4565b840191505092915050565b5f60408201905061051f5f830185610474565b818103602083015261053181846104d4565b90509392505050565b5f81905092915050565b5f61054e8261049c565b610558818561053a565b93506105688185602086016104b6565b80840191505092915050565b5f61057f8285610544565b915061058b8284610544565b9150819050939250505056fe6080604052604051610694380380610694833981810160405281019061002591906104d8565b610035828261003c60201b60201c565b50506105b4565b61004b826100c060201b60201c565b8173ffffffffffffffffffffffffffffffffffffffff167fbc7cd75a20ee27fd9adebab32041f755214dbc6bffa90cc0225b39da2e5c2d3b60405160405180910390a25f815111156100ad576100a7828261018f60201b60201c565b506100bc565b6100bb61021560201b60201c565b5b5050565b5f8173ffffffffffffffffffffffffffffffffffffffff163b0361011b57806040517f4c9c8ce30000000000000000000000000000000000000000000000000000000081526004016101129190610541565b60405180910390fd5b8061014d7f360894a13ba1a3210667c828492db98dca3e2076cc3735a920a3ca505d382bbc5f1b61025160201b60201c565b5f015f6101000a81548173ffffffffffffffffffffffffffffffffffffffff021916908373ffffffffffffffffffffffffffffffffffffffff16021790555050565b60605f5f8473ffffffffffffffffffffffffffffffffffffffff16846040516101b8919061059e565b5f60405180830381855af49150503d805f81146101f0576040519150601f19603f3d011682016040523d82523d5f602084013e6101f5565b606091505b509150915061020b85838361025a60201b60201c565b9250505092915050565b5f34111561024f576040517fb398979f00000000000000000000000000000000000000000000000000000000815260040160405180910390fd5b565b5f819050919050565b60608261027557610270826102ed60201b60201c565b6102e5565b5f825114801561029b57505f8473ffffffffffffffffffffffffffffffffffffffff163b145b156102dd57836040517f9996b3150000000000000000000000000000000000000000000000000000000081526004016102d49190610541565b60405180910390fd5b8190506102e6565b5b9392505050565b5f815111156102ff5780518082602001fd5b6040517fd6bda27500000000000000000000000000000000000000000000000000000000815260040160405180910390fd5b5f604051905090565b5f5ffd5b5f5ffd5b5f73ffffffffffffffffffffffffffffffffffffffff82169050919050565b5f61036b82610342565b9050919050565b61037b81610361565b8114610385575f5ffd5b50565b5f8151905061039681610372565b92915050565b5f5ffd5b5f5ffd5b5f601f19601f8301169050919050565b7f4e487b71000000000000000000000000000000000000000000000000000000005f52604160045260245ffd5b6103ea826103a4565b810181811067ffffffffffffffff82111715610409576104086103b4565b5b80604052505050565b5f61041b610331565b905061042782826103e1565b919050565b5f67ffffffffffffffff821115610446576104456103b4565b5b61044f826103a4565b9050602081019050919050565b8281835e5f83830152505050565b5f61047c6104778461042c565b610412565b905082815260208101848484011115610498576104976103a0565b5b6104a384828561045c565b509392505050565b5f82601f8301126104bf576104be61039c565b5b81516104cf84826020860161046a565b91505092915050565b5f5f604083850312156104ee576104ed61033a565b5b5f6104fb85828601610388565b925050602083015167ffffffffffffffff81111561051c5761051b61033e565b5b610528858286016104ab565b9150509250929050565b61053b81610361565b82525050565b5f6020820190506105545f830184610532565b92915050565b5f81519050919050565b5f81905092915050565b5f6105788261055a565b6105828185610564565b935061059281856020860161045c565b80840191505092915050565b5f6105a9828461056e565b915081905092915050565b60d4806105c05f395ff3fe6080604052600a600c565b005b60186014601a565b6026565b565b5f60216044565b905090565b365f5f375f5f365f845af43d5f5f3e805f81146040573d5ff35b3d5ffd5b5f606e7f360894a13ba1a3210667c828492db98dca3e2076cc3735a920a3ca505d382bbc5f1b6095565b5f015f9054906101000a900473ffffffffffffffffffffffffffffffffffffffff16905090565b5f81905091905056fea2646970667358221220add9a5610d38eb3ac82b5367b696e8ac3669b86847965c5a590ed23e8ca6895564736f6c634300081c0033a26469706673582212201eda4ef9e79e49a8bface689564b6d8746ded6a4ad2a34f1bad2f056028ca99a64736f6c634300081c003360c06040523073ffffffffffffffffffffffffffffffffffffffff1660809073ffffffffffffffffffffffffffffffffffffffff16815250348015610042575f5ffd5b50604051613594380380613594833981810160405281019061006491906101e1565b818081610076816100c360201b60201c565b506100868161010560201b60201c565b50508073ffffffffffffffffffffffffffffffffffffffff1660a08173ffffffffffffffffffffffffffffffffffffffff1681525050505061021f565b805f5f6101000a81548173ffffffffffffffffffffffffffffffffffffffff021916908373ffffffffffffffffffffffffffffffffffffffff16021790555050565b8060015f6101000a81548173ffffffffffffffffffffffffffffffffffffffff021916908373ffffffffffffffffffffffffffffffffffffffff16021790555050565b5f5ffd5b5f73ffffffffffffffffffffffffffffffffffffffff82169050919050565b5f6101758261014c565b9050919050565b6101858161016b565b811461018f575f5ffd5b50565b5f815190506101a08161017c565b92915050565b5f6101b08261016b565b9050919050565b6101c0816101a6565b81146101ca575f5ffd5b50565b5f815190506101db816101b7565b92915050565b5f5f604083850312156101f7576101f6610148565b5b5f61020485828601610192565b9250506020610215858286016101cd565b9150509250929050565b60805160a05161333f6102555f395f8181610d9e01526119a201525f81816113e20152818161143701526115f1015261333f5ff3fe6080604052600436106101c4575f3560e01c806376c81312116100f6578063bc197c8111610094578063de8aeda011610063578063de8aeda0146105fd578063e0b838e914610627578063f23a6e6114610651578063f31489251461068d576101cb565b8063bc197c8114610545578063c399ec8814610581578063c4d66de8146105ab578063d087d288146105d3576101cb565b8063ad3cb1cc116100d0578063ad3cb1cc1461049f578063b0cfd4d2146104c9578063b0d691fe146104f3578063b61d27f61461051d576101cb565b806376c81312146103fd5780638da5cb5b14610439578063ab021f7c14610463576101cb565b80634a58db191161016357806352d1902d1161013d57806352d1902d146103555780635ad3ad061461037f5780635aeb4d77146103a95780635e45da23146103d3576101cb565b80634a58db19146103075780634d44560d146103115780634f1ef28614610339576101cb565b8063150b7a021161019f578063150b7a02146102515780632e1a7d4d1461028d57806345636279146102b557806347e1da2a146102df576101cb565b806273b555146101cf57806301ffc9a7146101eb5780630e82845d14610227576101cb565b366101cb57005b5f5ffd5b6101e960048036038101906101e49190612139565b6106a9565b005b3480156101f6575f5ffd5b50610211600480360381019061020c91906121ff565b610741565b60405161021e9190612244565b60405180910390f35b348015610232575f5ffd5b5061023b61087a565b60405161024891906122d7565b60405180910390f35b34801561025c575f5ffd5b506102776004803603810190610272919061232b565b61089f565b60405161028491906123be565b60405180910390f35b348015610298575f5ffd5b506102b360048036038101906102ae91906123d7565b6108b3565b005b3480156102c0575f5ffd5b506102c9610911565b6040516102d6919061243c565b60405180910390f35b3480156102ea575f5ffd5b5061030560048036038101906103009190612554565b610915565b005b61030f610b20565b005b34801561031c575f5ffd5b506103376004803603810190610332919061263f565b610b91565b005b610353600480360381019061034e91906127b5565b610c0c565b005b348015610360575f5ffd5b50610369610c2b565b6040516103769190612827565b60405180910390f35b34801561038a575f5ffd5b50610393610c5c565b6040516103a0919061284f565b60405180910390f35b3480156103b4575f5ffd5b506103bd610c60565b6040516103ca9190612885565b60405180910390f35b3480156103de575f5ffd5b506103e7610c64565b6040516103f49190612885565b60405180910390f35b348015610408575f5ffd5b50610423600480360381019061041e919061289e565b610c68565b6040516104309190612950565b60405180910390f35b348015610444575f5ffd5b5061044d610d07565b60405161045a9190612978565b60405180910390f35b34801561046e575f5ffd5b50610489600480360381019061048491906129de565b610d2c565b6040516104969190612950565b60405180910390f35b3480156104aa575f5ffd5b506104b3610d5e565b6040516104c09190612aaa565b60405180910390f35b3480156104d4575f5ffd5b506104dd610d97565b6040516104ea9190612978565b60405180910390f35b3480156104fe575f5ffd5b50610507610d9b565b6040516105149190612aea565b60405180910390f35b348015610528575f5ffd5b50610543600480360381019061053e9190612b03565b610dc2565b005b348015610550575f5ffd5b5061056b60048036038101906105669190612b74565b610e1e565b60405161057891906123be565b60405180910390f35b34801561058c575f5ffd5b50610595610e35565b6040516105a29190612950565b60405180910390f35b3480156105b6575f5ffd5b506105d160048036038101906105cc9190612c4b565b610eba565b005b3480156105de575f5ffd5b506105e761103b565b6040516105f49190612950565b60405180910390f35b348015610608575f5ffd5b506106116110c2565b60405161061e919061284f565b60405180910390f35b348015610632575f5ffd5b5061063b6110c6565b60405161064891906122d7565b60405180910390f35b34801561065c575f5ffd5b5061067760048036038101906106729190612c76565b6110ea565b60405161068491906123be565b60405180910390f35b6106a760048036038101906106a29190612d0c565b6110ff565b005b60015f9054906101000a900473ffffffffffffffffffffffffffffffffffffffff1673ffffffffffffffffffffffffffffffffffffffff163373ffffffffffffffffffffffffffffffffffffffff161461072f576040517ffb2541ea00000000000000000000000000000000000000000000000000000000815260040160405180910390fd5b61073b84848484611199565b50505050565b5f7f150b7a02000000000000000000000000000000000000000000000000000000007bffffffffffffffffffffffffffffffffffffffffffffffffffffffff1916827bffffffffffffffffffffffffffffffffffffffffffffffffffffffff1916148061080b57507f4e2312e0000000000000000000000000000000000000000000000000000000007bffffffffffffffffffffffffffffffffffffffffffffffffffffffff1916827bffffffffffffffffffffffffffffffffffffffffffffffffffffffff1916145b8061087357507f01ffc9a7000000000000000000000000000000000000000000000000000000007bffffffffffffffffffffffffffffffffffffffffffffffffffffffff1916827bffffffffffffffffffffffffffffffffffffffffffffffffffffffff1916145b9050919050565b60015f9054906101000a900473ffffffffffffffffffffffffffffffffffffffff1681565b5f63150b7a0260e01b905095945050505050565b6108bb6111cb565b478111156108f5576040517ff4d678b800000000000000000000000000000000000000000000000000000000815260040160405180910390fd5b61090e338260405180602001604052805f815250611292565b50565b5f90565b61091d611312565b818190508686905014801561094457505f84849050148061094357508181905084849050145b5b610983576040517f08c379a000000000000000000000000000000000000000000000000000000000815260040161097a90612dda565b60405180910390fd5b5f8484905003610a48575f5f90505b86869050811015610a4257610a358787838181106109b3576109b2612df8565b5b90506020020160208101906109c89190612c4b565b5f8585858181106109dc576109db612df8565b5b90506020028101906109ee9190612e31565b8080601f0160208091040260200160405190810160405280939291908181526020018383808284375f81840152601f19601f82011690508083019250505050505050611292565b8080600101915050610992565b50610b18565b5f5f90505b86869050811015610b1657610b09878783818110610a6e57610a6d612df8565b5b9050602002016020810190610a839190612c4b565b868684818110610a9657610a95612df8565b5b90506020020135858585818110610ab057610aaf612df8565b5b9050602002810190610ac29190612e31565b8080601f0160208091040260200160405190810160405280939291908181526020018383808284375f81840152601f19601f82011690508083019250505050505050611292565b8080600101915050610a4d565b505b505050505050565b610b28610d9b565b73ffffffffffffffffffffffffffffffffffffffff1663b760faf934306040518363ffffffff1660e01b8152600401610b619190612978565b5f604051808303818588803b158015610b78575f5ffd5b505af1158015610b8a573d5f5f3e3d5ffd5b5050505050565b610b996111cb565b610ba1610d9b565b73ffffffffffffffffffffffffffffffffffffffff1663205c287883836040518363ffffffff1660e01b8152600401610bdb929190612ea2565b5f604051808303815f87803b158015610bf2575f5ffd5b505af1158015610c04573d5f5f3e3d5ffd5b505050505050565b610c146113e0565b610c1d826114c6565b610c2782826114d1565b5050565b5f610c346115ef565b7f360894a13ba1a3210667c828492db98dca3e2076cc3735a920a3ca505d382bbc5f1b905090565b5f90565b5f90565b5f90565b5f610cfb878787878080601f0160208091040260200160405190810160405280939291908181526020018383808284375f81840152601f19601f8201169050808301925050505050505086868080601f0160208091040260200160405190810160405280939291908181526020018383808284375f81840152601f19601f82011690508083019250505050505050611676565b90509695505050505050565b60025f9054906101000a900473ffffffffffffffffffffffffffffffffffffffff1681565b5f610d3561171f565b610d3f8484611796565b9050610d4e8460200135611867565b610d578261186a565b9392505050565b6040518060400160405280600581526020017f352e302e3000000000000000000000000000000000000000000000000000000081525081565b5f90565b5f7f0000000000000000000000000000000000000000000000000000000000000000905090565b610dca611312565b610e18848484848080601f0160208091040260200160405190810160405280939291908181526020018383808284375f81840152601f19601f82011690508083019250505050505050611292565b50505050565b5f63bc197c8160e01b905098975050505050505050565b5f610e3e610d9b565b73ffffffffffffffffffffffffffffffffffffffff166370a08231306040518263ffffffff1660e01b8152600401610e769190612978565b602060405180830381865afa158015610e91573d5f5f3e3d5ffd5b505050506040513d601f19601f82011682018060405250810190610eb59190612edd565b905090565b5f610ec3611901565b90505f815f0160089054906101000a900460ff161590505f825f015f9054906101000a900467ffffffffffffffff1690505f5f8267ffffffffffffffff16148015610f0b5750825b90505f60018367ffffffffffffffff16148015610f3e57505f3073ffffffffffffffffffffffffffffffffffffffff163b145b905081158015610f4c575080155b15610f83576040517ff92ee8a900000000000000000000000000000000000000000000000000000000815260040160405180910390fd5b6001855f015f6101000a81548167ffffffffffffffff021916908367ffffffffffffffff1602179055508315610fd0576001855f0160086101000a81548160ff0219169083151502179055505b610fd986611928565b8315611033575f855f0160086101000a81548160ff0219169083151502179055507fc7f505b2f371ae2175ee4913f4499e1f2633a7b5936321eed1cdaeb6115181d2600160405161102a9190612f41565b60405180910390a15b505050505050565b5f611044610d9b565b73ffffffffffffffffffffffffffffffffffffffff166335567e1a305f6040518363ffffffff1660e01b815260040161107e929190612fb6565b602060405180830381865afa158015611099573d5f5f3e3d5ffd5b505050506040513d601f19601f820116820180604052508101906110bd9190612edd565b905090565b5f90565b5f5f9054906101000a900473ffffffffffffffffffffffffffffffffffffffff1681565b5f63f23a6e6160e01b90509695505050505050565b60015f9054906101000a900473ffffffffffffffffffffffffffffffffffffffff1673ffffffffffffffffffffffffffffffffffffffff163373ffffffffffffffffffffffffffffffffffffffff1614611185576040517ffb2541ea00000000000000000000000000000000000000000000000000000000815260040160405180910390fd5b6111928585858585611a06565b5050505050565b6040517fff94113200000000000000000000000000000000000000000000000000000000815260040160405180910390fd5b60025f9054906101000a900473ffffffffffffffffffffffffffffffffffffffff1673ffffffffffffffffffffffffffffffffffffffff163373ffffffffffffffffffffffffffffffffffffffff16148061125157503073ffffffffffffffffffffffffffffffffffffffff163373ffffffffffffffffffffffffffffffffffffffff16145b611290576040517f08c379a000000000000000000000000000000000000000000000000000000000815260040161128790613027565b60405180910390fd5b565b5f5f8473ffffffffffffffffffffffffffffffffffffffff1684846040516112ba9190613089565b5f6040518083038185875af1925050503d805f81146112f4576040519150601f19603f3d011682016040523d82523d5f602084013e6112f9565b606091505b50915091508161130b57805160208201fd5b5050505050565b61131a610d9b565b73ffffffffffffffffffffffffffffffffffffffff163373ffffffffffffffffffffffffffffffffffffffff16148061139f575060025f9054906101000a900473ffffffffffffffffffffffffffffffffffffffff1673ffffffffffffffffffffffffffffffffffffffff163373ffffffffffffffffffffffffffffffffffffffff16145b6113de576040517f08c379a00000000000000000000000000000000000000000000000000000000081526004016113d5906130e9565b60405180910390fd5b565b7f000000000000000000000000000000000000000000000000000000000000000073ffffffffffffffffffffffffffffffffffffffff163073ffffffffffffffffffffffffffffffffffffffff16148061148d57507f000000000000000000000000000000000000000000000000000000000000000073ffffffffffffffffffffffffffffffffffffffff16611474611a38565b73ffffffffffffffffffffffffffffffffffffffff1614155b156114c4576040517fe07c8dba00000000000000000000000000000000000000000000000000000000815260040160405180910390fd5b565b6114ce6111cb565b50565b8173ffffffffffffffffffffffffffffffffffffffff166352d1902d6040518163ffffffff1660e01b8152600401602060405180830381865afa92505050801561153957506040513d601f19601f82011682018060405250810190611536919061311b565b60015b61157a57816040517f4c9c8ce30000000000000000000000000000000000000000000000000000000081526004016115719190612978565b60405180910390fd5b7f360894a13ba1a3210667c828492db98dca3e2076cc3735a920a3ca505d382bbc5f1b81146115e057806040517faa1d49a40000000000000000000000000000000000000000000000000000000081526004016115d79190612827565b60405180910390fd5b6115ea8383611a8b565b505050565b7f000000000000000000000000000000000000000000000000000000000000000073ffffffffffffffffffffffffffffffffffffffff163073ffffffffffffffffffffffffffffffffffffffff1614611674576040517fe07c8dba00000000000000000000000000000000000000000000000000000000815260040160405180910390fd5b565b5f5f5f9054906101000a900473ffffffffffffffffffffffffffffffffffffffff1673ffffffffffffffffffffffffffffffffffffffff166385fdd542868686866040518563ffffffff1660e01b81526004016116d6949392919061318e565b602060405180830381865afa1580156116f1573d5f5f3e3d5ffd5b505050506040513d601f19601f820116820180604052508101906117159190612edd565b9050949350505050565b611727610d9b565b73ffffffffffffffffffffffffffffffffffffffff163373ffffffffffffffffffffffffffffffffffffffff1614611794576040517f08c379a000000000000000000000000000000000000000000000000000000000815260040161178b90613229565b60405180910390fd5b565b5f5f6117a183611afd565b90506117ff81858061012001906117b89190612e31565b8080601f0160208091040260200160405190810160405280939291908181526020018383808284375f81840152601f19601f82011690508083019250505050505050611b30565b73ffffffffffffffffffffffffffffffffffffffff1660025f9054906101000a900473ffffffffffffffffffffffffffffffffffffffff1673ffffffffffffffffffffffffffffffffffffffff161461185c576001915050611861565b5f9150505b92915050565b50565b5f81146118fe575f3373ffffffffffffffffffffffffffffffffffffffff16827fffffffffffffffffffffffffffffffffffffffffffffffffffffffffffffffff906040516118b89061326a565b5f60405180830381858888f193505050503d805f81146118f3576040519150601f19603f3d011682016040523d82523d5f602084013e6118f8565b606091505b50509050505b50565b5f7ff0c57e16840df040f15088dc2f81fe391c3923bec73e23a9662efc9c229c6a00905090565b8060025f6101000a81548173ffffffffffffffffffffffffffffffffffffffff021916908373ffffffffffffffffffffffffffffffffffffffff16021790555060025f9054906101000a900473ffffffffffffffffffffffffffffffffffffffff1673ffffffffffffffffffffffffffffffffffffffff167f000000000000000000000000000000000000000000000000000000000000000073ffffffffffffffffffffffffffffffffffffffff167ff75ce79a4abcc8ed48f3b3544cd773dd667599027b50a42ff4bbf68f1a65e7b060405160405180910390a350565b6040517fff94113200000000000000000000000000000000000000000000000000000000815260040160405180910390fd5b5f611a647f360894a13ba1a3210667c828492db98dca3e2076cc3735a920a3ca505d382bbc5f1b611b5a565b5f015f9054906101000a900473ffffffffffffffffffffffffffffffffffffffff16905090565b611a9482611b63565b8173ffffffffffffffffffffffffffffffffffffffff167fbc7cd75a20ee27fd9adebab32041f755214dbc6bffa90cc0225b39da2e5c2d3b60405160405180910390a25f81511115611af057611aea8282611c2c565b50611af9565b611af8611cac565b5b5050565b5f7f19457468657265756d205369676e6564204d6573736167653a0a3332000000005f5281601c52603c5f209050919050565b5f5f5f5f611b3e8686611ce8565b925092509250611b4e8282611d3d565b82935050505092915050565b5f819050919050565b5f8173ffffffffffffffffffffffffffffffffffffffff163b03611bbe57806040517f4c9c8ce3000000000000000000000000000000000000000000000000000000008152600401611bb59190612978565b60405180910390fd5b80611bea7f360894a13ba1a3210667c828492db98dca3e2076cc3735a920a3ca505d382bbc5f1b611b5a565b5f015f6101000a81548173ffffffffffffffffffffffffffffffffffffffff021916908373ffffffffffffffffffffffffffffffffffffffff16021790555050565b60605f5f8473ffffffffffffffffffffffffffffffffffffffff1684604051611c559190613089565b5f60405180830381855af49150503d805f8114611c8d576040519150601f19603f3d011682016040523d82523d5f602084013e611c92565b606091505b5091509150611ca2858383611e9f565b9250505092915050565b5f341115611ce6576040517fb398979f00000000000000000000000000000000000000000000000000000000815260040160405180910390fd5b565b5f5f5f6041845103611d28575f5f5f602087015192506040870151915060608701515f1a9050611d1a88828585611f2c565b955095509550505050611d36565b5f600285515f1b9250925092505b9250925092565b5f6003811115611d5057611d4f61327e565b5b826003811115611d6357611d6261327e565b5b0315611e9b5760016003811115611d7d57611d7c61327e565b5b826003811115611d9057611d8f61327e565b5b03611dc7576040517ff645eedf00000000000000000000000000000000000000000000000000000000815260040160405180910390fd5b60026003811115611ddb57611dda61327e565b5b826003811115611dee57611ded61327e565b5b03611e3257805f1c6040517ffce698f7000000000000000000000000000000000000000000000000000000008152600401611e299190612950565b60405180910390fd5b600380811115611e4557611e4461327e565b5b826003811115611e5857611e5761327e565b5b03611e9a57806040517fd78bce0c000000000000000000000000000000000000000000000000000000008152600401611e919190612827565b60405180910390fd5b5b5050565b606082611eb457611eaf82612013565b611f24565b5f8251148015611eda57505f8473ffffffffffffffffffffffffffffffffffffffff163b145b15611f1c57836040517f9996b315000000000000000000000000000000000000000000000000000000008152600401611f139190612978565b60405180910390fd5b819050611f25565b5b9392505050565b5f5f5f7f7fffffffffffffffffffffffffffffff5d576e7357a4501ddfe92f46681b20a0845f1c1115611f68575f600385925092509250612009565b5f6001888888886040515f8152602001604052604051611f8b94939291906132c6565b6020604051602081039080840390855afa158015611fab573d5f5f3e3d5ffd5b5050506020604051035190505f73ffffffffffffffffffffffffffffffffffffffff168173ffffffffffffffffffffffffffffffffffffffff1603611ffc575f60015f5f1b93509350935050612009565b805f5f5f1b935093509350505b9450945094915050565b5f815111156120255780518082602001fd5b6040517fd6bda27500000000000000000000000000000000000000000000000000000000815260040160405180910390fd5b5f604051905090565b5f5ffd5b5f5ffd5b5f67ffffffffffffffff82169050919050565b61208481612068565b811461208e575f5ffd5b50565b5f8135905061209f8161207b565b92915050565b5f819050919050565b6120b7816120a5565b81146120c1575f5ffd5b50565b5f813590506120d2816120ae565b92915050565b5f5ffd5b5f5ffd5b5f5ffd5b5f5f83601f8401126120f9576120f86120d8565b5b8235905067ffffffffffffffff811115612116576121156120dc565b5b602083019150836001820283011115612132576121316120e0565b5b9250929050565b5f5f5f5f6060858703121561215157612150612060565b5b5f61215e87828801612091565b945050602061216f878288016120c4565b935050604085013567ffffffffffffffff8111156121905761218f612064565b5b61219c878288016120e4565b925092505092959194509250565b5f7fffffffff0000000000000000000000000000000000000000000000000000000082169050919050565b6121de816121aa565b81146121e8575f5ffd5b50565b5f813590506121f9816121d5565b92915050565b5f6020828403121561221457612213612060565b5b5f612221848285016121eb565b91505092915050565b5f8115159050919050565b61223e8161222a565b82525050565b5f6020820190506122575f830184612235565b92915050565b5f73ffffffffffffffffffffffffffffffffffffffff82169050919050565b5f819050919050565b5f61229f61229a6122958461225d565b61227c565b61225d565b9050919050565b5f6122b082612285565b9050919050565b5f6122c1826122a6565b9050919050565b6122d1816122b7565b82525050565b5f6020820190506122ea5f8301846122c8565b92915050565b5f6122fa8261225d565b9050919050565b61230a816122f0565b8114612314575f5ffd5b50565b5f8135905061232581612301565b92915050565b5f5f5f5f5f6080868803121561234457612343612060565b5b5f61235188828901612317565b955050602061236288828901612317565b9450506040612373888289016120c4565b935050606086013567ffffffffffffffff81111561239457612393612064565b5b6123a0888289016120e4565b92509250509295509295909350565b6123b8816121aa565b82525050565b5f6020820190506123d15f8301846123af565b92915050565b5f602082840312156123ec576123eb612060565b5b5f6123f9848285016120c4565b91505092915050565b5f7fff0000000000000000000000000000000000000000000000000000000000000082169050919050565b61243681612402565b82525050565b5f60208201905061244f5f83018461242d565b92915050565b5f5f83601f84011261246a576124696120d8565b5b8235905067ffffffffffffffff811115612487576124866120dc565b5b6020830191508360208202830111156124a3576124a26120e0565b5b9250929050565b5f5f83601f8401126124bf576124be6120d8565b5b8235905067ffffffffffffffff8111156124dc576124db6120dc565b5b6020830191508360208202830111156124f8576124f76120e0565b5b9250929050565b5f5f83601f840112612514576125136120d8565b5b8235905067ffffffffffffffff811115612531576125306120dc565b5b60208301915083602082028301111561254d5761254c6120e0565b5b9250929050565b5f5f5f5f5f5f6060878903121561256e5761256d612060565b5b5f87013567ffffffffffffffff81111561258b5761258a612064565b5b61259789828a01612455565b9650965050602087013567ffffffffffffffff8111156125ba576125b9612064565b5b6125c689828a016124aa565b9450945050604087013567ffffffffffffffff8111156125e9576125e8612064565b5b6125f589828a016124ff565b92509250509295509295509295565b5f61260e8261225d565b9050919050565b61261e81612604565b8114612628575f5ffd5b50565b5f8135905061263981612615565b92915050565b5f5f6040838503121561265557612654612060565b5b5f6126628582860161262b565b9250506020612673858286016120c4565b9150509250929050565b5f5ffd5b5f601f19601f8301169050919050565b7f4e487b71000000000000000000000000000000000000000000000000000000005f52604160045260245ffd5b6126c782612681565b810181811067ffffffffffffffff821117156126e6576126e5612691565b5b80604052505050565b5f6126f8612057565b905061270482826126be565b919050565b5f67ffffffffffffffff82111561272357612722612691565b5b61272c82612681565b9050602081019050919050565b828183375f83830152505050565b5f61275961275484612709565b6126ef565b9050828152602081018484840111156127755761277461267d565b5b612780848285612739565b509392505050565b5f82601f83011261279c5761279b6120d8565b5b81356127ac848260208601612747565b91505092915050565b5f5f604083850312156127cb576127ca612060565b5b5f6127d885828601612317565b925050602083013567ffffffffffffffff8111156127f9576127f8612064565b5b61280585828601612788565b9150509250929050565b5f819050919050565b6128218161280f565b82525050565b5f60208201905061283a5f830184612818565b92915050565b61284981612068565b82525050565b5f6020820190506128625f830184612840565b92915050565b5f62ffffff82169050919050565b61287f81612868565b82525050565b5f6020820190506128985f830184612876565b92915050565b5f5f5f5f5f5f608087890312156128b8576128b7612060565b5b5f6128c589828a016120c4565b96505060206128d689828a01612091565b955050604087013567ffffffffffffffff8111156128f7576128f6612064565b5b61290389828a016120e4565b9450945050606087013567ffffffffffffffff81111561292657612925612064565b5b61293289828a016120e4565b92509250509295509295509295565b61294a816120a5565b82525050565b5f6020820190506129635f830184612941565b92915050565b612972816122f0565b82525050565b5f60208201905061298b5f830184612969565b92915050565b5f5ffd5b5f61014082840312156129ab576129aa612991565b5b81905092915050565b6129bd8161280f565b81146129c7575f5ffd5b50565b5f813590506129d8816129b4565b92915050565b5f5f5f606084860312156129f5576129f4612060565b5b5f84013567ffffffffffffffff811115612a1257612a11612064565b5b612a1e86828701612995565b9350506020612a2f868287016129ca565b9250506040612a40868287016120c4565b9150509250925092565b5f81519050919050565b5f82825260208201905092915050565b8281835e5f83830152505050565b5f612a7c82612a4a565b612a868185612a54565b9350612a96818560208601612a64565b612a9f81612681565b840191505092915050565b5f6020820190508181035f830152612ac28184612a72565b905092915050565b5f612ad4826122a6565b9050919050565b612ae481612aca565b82525050565b5f602082019050612afd5f830184612adb565b92915050565b5f5f5f5f60608587031215612b1b57612b1a612060565b5b5f612b2887828801612317565b9450506020612b39878288016120c4565b935050604085013567ffffffffffffffff811115612b5a57612b59612064565b5b612b66878288016120e4565b925092505092959194509250565b5f5f5f5f5f5f5f5f60a0898b031215612b9057612b8f612060565b5b5f612b9d8b828c01612317565b9850506020612bae8b828c01612317565b975050604089013567ffffffffffffffff811115612bcf57612bce612064565b5b612bdb8b828c016124aa565b9650965050606089013567ffffffffffffffff811115612bfe57612bfd612064565b5b612c0a8b828c016124aa565b9450945050608089013567ffffffffffffffff811115612c2d57612c2c612064565b5b612c398b828c016120e4565b92509250509295985092959890939650565b5f60208284031215612c6057612c5f612060565b5b5f612c6d84828501612317565b91505092915050565b5f5f5f5f5f5f60a08789031215612c9057612c8f612060565b5b5f612c9d89828a01612317565b9650506020612cae89828a01612317565b9550506040612cbf89828a016120c4565b9450506060612cd089828a016120c4565b935050608087013567ffffffffffffffff811115612cf157612cf0612064565b5b612cfd89828a016120e4565b92509250509295509295509295565b5f5f5f5f5f60808688031215612d2557612d24612060565b5b5f612d32888289016129ca565b9550506020612d4388828901612091565b9450506040612d54888289016120c4565b935050606086013567ffffffffffffffff811115612d7557612d74612064565b5b612d81888289016120e4565b92509250509295509295909350565b7f77726f6e67206172726179206c656e67746873000000000000000000000000005f82015250565b5f612dc4601383612a54565b9150612dcf82612d90565b602082019050919050565b5f6020820190508181035f830152612df181612db8565b9050919050565b7f4e487b71000000000000000000000000000000000000000000000000000000005f52603260045260245ffd5b5f5ffd5b5f5ffd5b5f5ffd5b5f5f83356001602003843603038112612e4d57612e4c612e25565b5b80840192508235915067ffffffffffffffff821115612e6f57612e6e612e29565b5b602083019250600182023603831315612e8b57612e8a612e2d565b5b509250929050565b612e9c81612604565b82525050565b5f604082019050612eb55f830185612e93565b612ec26020830184612941565b9392505050565b5f81519050612ed7816120ae565b92915050565b5f60208284031215612ef257612ef1612060565b5b5f612eff84828501612ec9565b91505092915050565b5f819050919050565b5f612f2b612f26612f2184612f08565b61227c565b612068565b9050919050565b612f3b81612f11565b82525050565b5f602082019050612f545f830184612f32565b92915050565b5f819050919050565b5f77ffffffffffffffffffffffffffffffffffffffffffffffff82169050919050565b5f612fa0612f9b612f9684612f5a565b61227c565b612f63565b9050919050565b612fb081612f86565b82525050565b5f604082019050612fc95f830185612969565b612fd66020830184612fa7565b9392505050565b7f6f6e6c79206f776e6572000000000000000000000000000000000000000000005f82015250565b5f613011600a83612a54565b915061301c82612fdd565b602082019050919050565b5f6020820190508181035f83015261303e81613005565b9050919050565b5f81519050919050565b5f81905092915050565b5f61306382613045565b61306d818561304f565b935061307d818560208601612a64565b80840191505092915050565b5f6130948284613059565b915081905092915050565b7f6163636f756e743a206e6f74204f776e6572206f7220456e747279506f696e745f82015250565b5f6130d3602083612a54565b91506130de8261309f565b602082019050919050565b5f6020820190508181035f830152613100816130c7565b9050919050565b5f81519050613115816129b4565b92915050565b5f602082840312156131305761312f612060565b5b5f61313d84828501613107565b91505092915050565b5f82825260208201905092915050565b5f61316082613045565b61316a8185613146565b935061317a818560208601612a64565b61318381612681565b840191505092915050565b5f6080820190506131a15f830187612941565b6131ae6020830186612840565b81810360408301526131c08185613156565b905081810360608301526131d48184613156565b905095945050505050565b7f6163636f756e743a206e6f742066726f6d20456e747279506f696e74000000005f82015250565b5f613213601c83612a54565b915061321e826131df565b602082019050919050565b5f6020820190508181035f83015261324081613207565b9050919050565b50565b5f6132555f8361304f565b915061326082613247565b5f82019050919050565b5f6132748261324a565b9150819050919050565b7f4e487b71000000000000000000000000000000000000000000000000000000005f52602160045260245ffd5b5f60ff82169050919050565b6132c0816132ab565b82525050565b5f6080820190506132d95f830187612818565b6132e660208301866132b7565b6132f36040830185612818565b6133006060830184612818565b9594505050505056fea26469706673582212201d7fddcc30a06d055290c9506b2504c506db4d3f07d2aee9c1e0145a23500b2464736f6c634300081c0033",
			"opcodes": "PUSH1 0xA0 PUSH1 0x40 MSTORE CALLVALUE DUP1 ISZERO PUSH2 0xF JUMPI PUSH0 PUSH0 REVERT JUMPDEST POP PUSH1 0x40 MLOAD PUSH2 0x442D CODESIZE SUB DUP1 PUSH2 0x442D DUP4 CODECOPY DUP2 DUP2 ADD PUSH1 0x40 MSTORE DUP2 ADD SWAP1 PUSH2 0x31 SWAP2 SWAP1 PUSH2 0x144 JUMP JUMPDEST DUP1 DUP3 PUSH1 0x40 MLOAD PUSH2 0x3F SWAP1 PUSH2 0x9E JUMP JUMPDEST PUSH2 0x4A SWAP3 SWAP2 SWAP1 PUSH2 0x1EC JUMP JUMPDEST PUSH1 0x40 MLOAD DUP1 SWAP2 SUB SWAP1 PUSH0 CREATE DUP1 ISZERO DUP1 ISZERO PUSH2 0x63 JUMPI RETURNDATASIZE PUSH0 PUSH0 RETURNDATACOPY RETURNDATASIZE PUSH0 REVERT JUMPDEST POP PUSH20 0xFFFFFFFFFFFFFFFFFFFFFFFFFFFFFFFFFFFFFFFF AND PUSH1 0x80 DUP2 PUSH20 0xFFFFFFFFFFFFFFFFFFFFFFFFFFFFFFFFFFFFFFFF AND DUP2 MSTORE POP POP POP POP PUSH2 0x213 JUMP JUMPDEST PUSH2 0x3594 DUP1 PUSH2 0xE99 DUP4 CODECOPY ADD SWAP1 JUMP JUMPDEST PUSH0 PUSH0 REVERT JUMPDEST PUSH0 PUSH20 0xFFFFFFFFFFFFFFFFFFFFFFFFFFFFFFFFFFFFFFFF DUP3 AND SWAP1 POP SWAP2 SWAP1 POP JUMP JUMPDEST PUSH0 PUSH2 0xD8 DUP3 PUSH2 0xAF JUMP JUMPDEST SWAP1 POP SWAP2 SWAP1 POP JUMP JUMPDEST PUSH0 PUSH2 0xE9 DUP3 PUSH2 0xCE JUMP JUMPDEST SWAP1 POP SWAP2 SWAP1 POP JUMP JUMPDEST PUSH2 0xF9 DUP2 PUSH2 0xDF JUMP JUMPDEST DUP2 EQ PUSH2 0x103 JUMPI PUSH0 PUSH0 REVERT JUMPDEST POP JUMP JUMPDEST PUSH0 DUP2 MLOAD SWAP1 POP PUSH2 0x114 DUP2 PUSH2 0xF0 JUMP JUMPDEST SWAP3 SWAP2 POP POP JUMP JUMPDEST PUSH2 0x123 DUP2 PUSH2 0xCE JUMP JUMPDEST DUP2 EQ PUSH2 0x12D JUMPI PUSH0 PUSH0 REVERT JUMPDEST POP JUMP JUMPDEST PUSH0 DUP2 MLOAD SWAP1 POP PUSH2 0x13E DUP2 PUSH2 0x11A JUMP JUMPDEST SWAP3 SWAP2 POP POP JUMP JUMPDEST PUSH0 PUSH0 PUSH1 0x40 DUP4 DUP6 SUB SLT ISZERO PUSH2 0x15A JUMPI PUSH2 0x159 PUSH2 0xAB JUMP JUMPDEST JUMPDEST PUSH0 PUSH2 0x167 DUP6 DUP3 DUP7 ADD PUSH2 0x106 JUMP JUMPDEST SWAP3 POP POP PUSH1 0x20 PUSH2 0x178 DUP6 DUP3 DUP7 ADD PUSH2 0x130 JUMP JUMPDEST SWAP2 POP POP SWAP3 POP SWAP3 SWAP1 POP JUMP JUMPDEST PUSH2 0x18B DUP2 PUSH2 0xCE JUMP JUMPDEST DUP3 MSTORE POP POP JUMP JUMPDEST PUSH0 DUP2 SWAP1 POP SWAP2 SWAP1 POP JUMP JUMPDEST PUSH0 PUSH2 0x1B4 PUSH2 0x1AF PUSH2 0x1AA DUP5 PUSH2 0xAF JUMP JUMPDEST PUSH2 0x191 JUMP JUMPDEST PUSH2 0xAF JUMP JUMPDEST SWAP1 POP SWAP2 SWAP1 POP JUMP JUMPDEST PUSH0 PUSH2 0x1C5 DUP3 PUSH2 0x19A JUMP JUMPDEST SWAP1 POP SWAP2 SWAP1 POP JUMP JUMPDEST PUSH0 PUSH2 0x1D6 DUP3 PUSH2 0x1BB JUMP JUMPDEST SWAP1 POP SWAP2 SWAP1 POP JUMP JUMPDEST PUSH2 0x1E6 DUP2 PUSH2 0x1CC JUMP JUMPDEST DUP3 MSTORE POP POP JUMP JUMPDEST PUSH0 PUSH1 0x40 DUP3 ADD SWAP1 POP PUSH2 0x1FF PUSH0 DUP4 ADD DUP6 PUSH2 0x182 JUMP JUMPDEST PUSH2 0x20C PUSH1 0x20 DUP4 ADD DUP5 PUSH2 0x1DD JUMP JUMPDEST SWAP4 SWAP3 POP POP POP JUMP JUMPDEST PUSH1 0x80 MLOAD PUSH2 0xC61 PUSH2 0x238 PUSH0 CODECOPY PUSH0 DUP2 DUP2 PUSH1 0xC3 ADD MSTORE DUP2 DUP2 PUSH2 0x125 ADD MSTORE PUSH2 0x207 ADD MSTORE PUSH2 0xC61 PUSH0 RETURN INVALID PUSH1 0x80 PUSH1 0x40 MSTORE CALLVALUE DUP1 ISZERO PUSH2 0xF JUMPI PUSH0 PUSH0 REVERT JUMPDEST POP PUSH1 0x4 CALLDATASIZE LT PUSH2 0x3F JUMPI PUSH0 CALLDATALOAD PUSH1 0xE0 SHR DUP1 PUSH4 0x11464FBE EQ PUSH2 0x43 JUMPI DUP1 PUSH4 0x5FBFB9CF EQ PUSH2 0x61 JUMPI DUP1 PUSH4 0x8CB84E18 EQ PUSH2 0x91 JUMPI JUMPDEST PUSH0 PUSH0 REVERT JUMPDEST PUSH2 0x4B PUSH2 0xC1 JUMP JUMPDEST PUSH1 0x40 MLOAD PUSH2 0x58 SWAP2 SWAP1 PUSH2 0x3AB JUMP JUMPDEST PUSH1 0x40 MLOAD DUP1 SWAP2 SUB SWAP1 RETURN JUMPDEST PUSH2 0x7B PUSH1 0x4 DUP1 CALLDATASIZE SUB DUP2 ADD SWAP1 PUSH2 0x76 SWAP2 SWAP1 PUSH2 0x436 JUMP JUMPDEST PUSH2 0xE5 JUMP JUMPDEST PUSH1 0x40 MLOAD PUSH2 0x88 SWAP2 SWAP1 PUSH2 0x3AB JUMP JUMPDEST PUSH1 0x40 MLOAD DUP1 SWAP2 SUB SWAP1 RETURN JUMPDEST PUSH2 0xAB PUSH1 0x4 DUP1 CALLDATASIZE SUB DUP2 ADD SWAP1 PUSH2 0xA6 SWAP2 SWAP1 PUSH2 0x436 JUMP JUMPDEST PUSH2 0x1DA JUMP JUMPDEST PUSH1 0x40 MLOAD PUSH2 0xB8 SWAP2 SWAP1 PUSH2 0x483 JUMP JUMPDEST PUSH1 0x40 MLOAD DUP1 SWAP2 SUB SWAP1 RETURN JUMPDEST PUSH32 0x0 DUP2 JUMP JUMPDEST PUSH0 PUSH0 PUSH2 0xF1 DUP5 DUP5 PUSH2 0x1DA JUMP JUMPDEST SWAP1 POP PUSH0 DUP2 PUSH20 0xFFFFFFFFFFFFFFFFFFFFFFFFFFFFFFFFFFFFFFFF AND EXTCODESIZE SWAP1 POP PUSH0 DUP2 GT ISZERO PUSH2 0x120 JUMPI DUP2 SWAP3 POP POP POP PUSH2 0x1D4 JUMP JUMPDEST DUP4 PUSH0 SHL PUSH32 0x0 DUP7 PUSH1 0x40 MLOAD PUSH1 0x24 ADD PUSH2 0x155 SWAP2 SWAP1 PUSH2 0x483 JUMP JUMPDEST PUSH1 0x40 MLOAD PUSH1 0x20 DUP2 DUP4 SUB SUB DUP2 MSTORE SWAP1 PUSH1 0x40 MSTORE PUSH4 0xC4D66DE8 PUSH1 0xE0 SHL PUSH1 0x20 DUP3 ADD DUP1 MLOAD PUSH28 0xFFFFFFFFFFFFFFFFFFFFFFFFFFFFFFFFFFFFFFFFFFFFFFFFFFFFFFFF DUP4 DUP2 DUP4 AND OR DUP4 MSTORE POP POP POP POP PUSH1 0x40 MLOAD PUSH2 0x1A6 SWAP1 PUSH2 0x324 JUMP JUMPDEST PUSH2 0x1B1 SWAP3 SWAP2 SWAP1 PUSH2 0x50C JUMP JUMPDEST DUP2 SWAP1 PUSH1 0x40 MLOAD DUP1 SWAP2 SUB SWAP1 PUSH0 CREATE2 SWAP1 POP DUP1 ISZERO DUP1 ISZERO PUSH2 0x1CE JUMPI RETURNDATASIZE PUSH0 PUSH0 RETURNDATACOPY RETURNDATASIZE PUSH0 REVERT JUMPDEST POP SWAP3 POP POP POP JUMPDEST SWAP3 SWAP2 POP POP JUMP JUMPDEST PUSH0 PUSH2 0x2C8 DUP3 PUSH0 SHL PUSH1 0x40 MLOAD DUP1 PUSH1 0x20 ADD PUSH2 0x1F1 SWAP1 PUSH2 0x324 JUMP JUMPDEST PUSH1 0x20 DUP3 ADD DUP2 SUB DUP3 MSTORE PUSH1 0x1F NOT PUSH1 0x1F DUP3 ADD AND PUSH1 0x40 MSTORE POP PUSH32 0x0 DUP7 PUSH1 0x40 MLOAD PUSH1 0x24 ADD PUSH2 0x237 SWAP2 SWAP1 PUSH2 0x483 JUMP JUMPDEST PUSH1 0x40 MLOAD PUSH1 0x20 DUP2 DUP4 SUB SUB DUP2 MSTORE SWAP1 PUSH1 0x40 MSTORE PUSH4 0xC4D66DE8 PUSH1 0xE0 SHL PUSH1 0x20 DUP3 ADD DUP1 MLOAD PUSH28 0xFFFFFFFFFFFFFFFFFFFFFFFFFFFFFFFFFFFFFFFFFFFFFFFFFFFFFFFF DUP4 DUP2 DUP4 AND OR DUP4 MSTORE POP POP POP POP PUSH1 0x40 MLOAD PUSH1 0x20 ADD PUSH2 0x28D SWAP3 SWAP2 SWAP1 PUSH2 0x50C JUMP JUMPDEST PUSH1 0x40 MLOAD PUSH1 0x20 DUP2 DUP4 SUB SUB DUP2 MSTORE SWAP1 PUSH1 0x40 MSTORE PUSH1 0x40 MLOAD PUSH1 0x20 ADD PUSH2 0x2AD SWAP3 SWAP2 SWAP1 PUSH2 0x574 JUMP JUMPDEST PUSH1 0x40 MLOAD PUSH1 0x20 DUP2 DUP4 SUB SUB DUP2 MSTORE SWAP1 PUSH1 0x40 MSTORE DUP1 MLOAD SWAP1 PUSH1 0x20 ADD KECCAK256 PUSH2 0x2D0 JUMP JUMPDEST SWAP1 POP SWAP3 SWAP2 POP POP JUMP JUMPDEST PUSH0 PUSH2 0x2DC DUP4 DUP4 ADDRESS PUSH2 0x2E4 JUMP JUMPDEST SWAP1 POP SWAP3 SWAP2 POP POP JUMP JUMPDEST PUSH0 PUSH1 0x40 MLOAD DUP4 PUSH1 0x40 DUP3 ADD MSTORE DUP5 PUSH1 0x20 DUP3 ADD MSTORE DUP3 DUP2 MSTORE PUSH1 0xB DUP2 ADD PUSH1 0xFF DUP2 MSTORE8 PUSH20 0xFFFFFFFFFFFFFFFFFFFFFFFFFFFFFFFFFFFFFFFF PUSH1 0x55 DUP3 KECCAK256 AND SWAP3 POP POP POP SWAP4 SWAP3 POP POP POP JUMP JUMPDEST PUSH2 0x694 DUP1 PUSH2 0x598 DUP4 CODECOPY ADD SWAP1 JUMP JUMPDEST PUSH0 PUSH20 0xFFFFFFFFFFFFFFFFFFFFFFFFFFFFFFFFFFFFFFFF DUP3 AND SWAP1 POP SWAP2 SWAP1 POP JUMP JUMPDEST PUSH0 DUP2 SWAP1 POP SWAP2 SWAP1 POP JUMP JUMPDEST PUSH0 PUSH2 0x373 PUSH2 0x36E PUSH2 0x369 DUP5 PUSH2 0x331 JUMP JUMPDEST PUSH2 0x350 JUMP JUMPDEST PUSH2 0x331 JUMP JUMPDEST SWAP1 POP SWAP2 SWAP1 POP JUMP JUMPDEST PUSH0 PUSH2 0x384 DUP3 PUSH2 0x359 JUMP JUMPDEST SWAP1 POP SWAP2 SWAP1 POP JUMP JUMPDEST PUSH0 PUSH2 0x395 DUP3 PUSH2 0x37A JUMP JUMPDEST SWAP1 POP SWAP2 SWAP1 POP JUMP JUMPDEST PUSH2 0x3A5 DUP2 PUSH2 0x38B JUMP JUMPDEST DUP3 MSTORE POP POP JUMP JUMPDEST PUSH0 PUSH1 0x20 DUP3 ADD SWAP1 POP PUSH2 0x3BE PUSH0 DUP4 ADD DUP5 PUSH2 0x39C JUMP JUMPDEST SWAP3 SWAP2 POP POP JUMP JUMPDEST PUSH0 PUSH0 REVERT JUMPDEST PUSH0 PUSH2 0x3D2 DUP3 PUSH2 0x331 JUMP JUMPDEST SWAP1 POP SWAP2 SWAP1 POP JUMP JUMPDEST PUSH2 0x3E2 DUP2 PUSH2 0x3C8 JUMP JUMPDEST DUP2 EQ PUSH2 0x3EC JUMPI PUSH0 PUSH0 REVERT JUMPDEST POP JUMP JUMPDEST PUSH0 DUP2 CALLDATALOAD SWAP1 POP PUSH2 0x3FD DUP2 PUSH2 0x3D9 JUMP JUMPDEST SWAP3 SWAP2 POP POP JUMP JUMPDEST PUSH0 DUP2 SWAP1 POP SWAP2 SWAP1 POP JUMP JUMPDEST PUSH2 0x415 DUP2 PUSH2 0x403 JUMP JUMPDEST DUP2 EQ PUSH2 0x41F JUMPI PUSH0 PUSH0 REVERT JUMPDEST POP JUMP JUMPDEST PUSH0 DUP2 CALLDATALOAD SWAP1 POP PUSH2 0x430 DUP2 PUSH2 0x40C JUMP JUMPDEST SWAP3 SWAP2 POP POP JUMP JUMPDEST PUSH0 PUSH0 PUSH1 0x40 DUP4 DUP6 SUB SLT ISZERO PUSH2 0x44C JUMPI PUSH2 0x44B PUSH2 0x3C4 JUMP JUMPDEST JUMPDEST PUSH0 PUSH2 0x459 DUP6 DUP3 DUP7 ADD PUSH2 0x3EF JUMP JUMPDEST SWAP3 POP POP PUSH1 0x20 PUSH2 0x46A DUP6 DUP3 DUP7 ADD PUSH2 0x422 JUMP JUMPDEST SWAP2 POP POP SWAP3 POP SWAP3 SWAP1 POP JUMP JUMPDEST PUSH2 0x47D DUP2 PUSH2 0x3C8 JUMP JUMPDEST DUP3 MSTORE POP POP JUMP JUMPDEST PUSH0 PUSH1 0x20 DUP3 ADD SWAP1 POP PUSH2 0x496 PUSH0 DUP4 ADD DUP5 PUSH2 0x474 JUMP JUMPDEST SWAP3 SWAP2 POP POP JUMP JUMPDEST PUSH0 DUP2 MLOAD SWAP1 POP SWAP2 SWAP1 POP JUMP JUMPDEST PUSH0 DUP3 DUP3 MSTORE PUSH1 0x20 DUP3 ADD SWAP1 POP SWAP3 SWAP2 POP POP JUMP JUMPDEST DUP3 DUP2 DUP4 MCOPY PUSH0 DUP4 DUP4 ADD MSTORE POP POP POP JUMP JUMPDEST PUSH0 PUSH1 0x1F NOT PUSH1 0x1F DUP4 ADD AND SWAP1 POP SWAP2 SWAP1 POP JUMP JUMPDEST PUSH0 PUSH2 0x4DE DUP3 PUSH2 0x49C JUMP JUMPDEST PUSH2 0x4E8 DUP2 DUP6 PUSH2 0x4A6 JUMP JUMPDEST SWAP4 POP PUSH2 0x4F8 DUP2 DUP6 PUSH1 0x20 DUP7 ADD PUSH2 0x4B6 JUMP JUMPDEST PUSH2 0x501 DUP2 PUSH2 0x4C4 JUMP JUMPDEST DUP5 ADD SWAP2 POP POP SWAP3 SWAP2 POP POP JUMP JUMPDEST PUSH0 PUSH1 0x40 DUP3 ADD SWAP1 POP PUSH2 0x51F PUSH0 DUP4 ADD DUP6 PUSH2 0x474 JUMP JUMPDEST DUP2 DUP2 SUB PUSH1 0x20 DUP4 ADD MSTORE PUSH2 0x531 DUP2 DUP5 PUSH2 0x4D4 JUMP JUMPDEST SWAP1 POP SWAP4 SWAP3 POP POP POP JUMP JUMPDEST PUSH0 DUP2 SWAP1 POP SWAP3 SWAP2 POP POP JUMP JUMPDEST PUSH0 PUSH2 0x54E DUP3 PUSH2 0x49C JUMP JUMPDEST PUSH2 0x558 DUP2 DUP6 PUSH2 0x53A JUMP JUMPDEST SWAP4 POP PUSH2 0x568 DUP2 DUP6 PUSH1 0x20 DUP7 ADD PUSH2 0x4B6 JUMP JUMPDEST DUP1 DUP5 ADD SWAP2 POP POP SWAP3 SWAP2 POP POP JUMP JUMPDEST PUSH0 PUSH2 0x57F DUP3 DUP6 PUSH2 0x544 JUMP JUMPDEST SWAP2 POP PUSH2 0x58B DUP3 DUP5 PUSH2 0x544 JUMP JUMPDEST SWAP2 POP DUP2 SWAP1 POP SWAP4 SWAP3 POP POP POP JUMP INVALID PUSH1 0x80 PUSH1 0x40 MSTORE PUSH1 0x40 MLOAD PUSH2 0x694 CODESIZE SUB DUP1 PUSH2 0x694 DUP4 CODECOPY DUP2 DUP2 ADD PUSH1 0x40 MSTORE DUP2 ADD SWAP1 PUSH2 0x25 SWAP2 SWAP1 PUSH2 0x4D8 JUMP JUMPDEST PUSH2 0x35 DUP3 DUP3 PUSH2 0x3C PUSH1 0x20 SHL PUSH1 0x20 SHR JUMP JUMPDEST POP POP PUSH2 0x5B4 JUMP JUMPDEST PUSH2 0x4B DUP3 PUSH2 0xC0 PUSH1 0x20 SHL PUSH1 0x20 SHR JUMP JUMPDEST DUP2 PUSH20 0xFFFFFFFFFFFFFFFFFFFFFFFFFFFFFFFFFFFFFFFF AND PUSH32 0xBC7CD75A20EE27FD9ADEBAB32041F755214DBC6BFFA90CC0225B39DA2E5C2D3B PUSH1 0x40 MLOAD PUSH1 0x40 MLOAD DUP1 SWAP2 SUB SWAP1 LOG2 PUSH0 DUP2 MLOAD GT ISZERO PUSH2 0xAD JUMPI PUSH2 0xA7 DUP3 DUP3 PUSH2 0x18F PUSH1 0x20 SHL PUSH1 0x20 SHR JUMP JUMPDEST POP PUSH2 0xBC JUMP JUMPDEST PUSH2 0xBB PUSH2 0x215 PUSH1 0x20 SHL PUSH1 0x20 SHR JUMP JUMPDEST JUMPDEST POP POP JUMP JUMPDEST PUSH0 DUP2 PUSH20 0xFFFFFFFFFFFFFFFFFFFFFFFFFFFFFFFFFFFFFFFF AND EXTCODESIZE SUB PUSH2 0x11B JUMPI DUP1 PUSH1 0x40 MLOAD PUSH32 0x4C9C8CE300000000000000000000000000000000000000000000000000000000 DUP2 MSTORE PUSH1 0x4 ADD PUSH2 0x112 SWAP2 SWAP1 PUSH2 0x541 JUMP JUMPDEST PUSH1 0x40 MLOAD DUP1 SWAP2 SUB SWAP1 REVERT JUMPDEST DUP1 PUSH2 0x14D PUSH32 0x360894A13BA1A3210667C828492DB98DCA3E2076CC3735A920A3CA505D382BBC PUSH0 SHL PUSH2 0x251 PUSH1 0x20 SHL PUSH1 0x20 SHR JUMP JUMPDEST PUSH0 ADD PUSH0 PUSH2 0x100 EXP DUP2 SLOAD DUP2 PUSH20 0xFFFFFFFFFFFFFFFFFFFFFFFFFFFFFFFFFFFFFFFF MUL NOT AND SWAP1 DUP4 PUSH20 0xFFFFFFFFFFFFFFFFFFFFFFFFFFFFFFFFFFFFFFFF AND MUL OR SWAP1 SSTORE POP POP JUMP JUMPDEST PUSH1 0x60 PUSH0 PUSH0 DUP5 PUSH20 0xFFFFFFFFFFFFFFFFFFFFFFFFFFFFFFFFFFFFFFFF AND DUP5 PUSH1 0x40 MLOAD PUSH2 0x1B8 SWAP2 SWAP1 PUSH2 0x59E JUMP JUMPDEST PUSH0 PUSH1 0x40 MLOAD DUP1 DUP4 SUB DUP2 DUP6 GAS DELEGATECALL SWAP2 POP POP RETURNDATASIZE DUP1 PUSH0 DUP2 EQ PUSH2 0x1F0 JUMPI PUSH1 0x40 MLOAD SWAP2 POP PUSH1 0x1F NOT PUSH1 0x3F RETURNDATASIZE ADD AND DUP3 ADD PUSH1 0x40 MSTORE RETURNDATASIZE DUP3 MSTORE RETURNDATASIZE PUSH0 PUSH1 0x20 DUP5 ADD RETURNDATACOPY PUSH2 0x1F5 JUMP JUMPDEST PUSH1 0x60 SWAP2 POP JUMPDEST POP SWAP2 POP SWAP2 POP PUSH2 0x20B DUP6 DUP4 DUP4 PUSH2 0x25A PUSH1 0x20 SHL PUSH1 0x20 SHR JUMP JUMPDEST SWAP3 POP POP POP SWAP3 SWAP2 POP POP JUMP JUMPDEST PUSH0 CALLVALUE GT ISZERO PUSH2 0x24F JUMPI PUSH1 0x40 MLOAD PUSH32 0xB398979F00000000000000000000000000000000000000000000000000000000 DUP2 MSTORE PUSH1 0x4 ADD PUSH1 0x40 MLOAD DUP1 SWAP2 SUB SWAP1 REVERT JUMPDEST JUMP JUMPDEST PUSH0 DUP2 SWAP1 POP SWAP2 SWAP1 POP JUMP JUMPDEST PUSH1 0x60 DUP3 PUSH2 0x275 JUMPI PUSH2 0x270 DUP3 PUSH2 0x2ED PUSH1 0x20 SHL PUSH1 0x20 SHR JUMP JUMPDEST PUSH2 0x2E5 JUMP JUMPDEST PUSH0 DUP3 MLOAD EQ DUP1 ISZERO PUSH2 0x29B JUMPI POP PUSH0 DUP5 PUSH20 0xFFFFFFFFFFFFFFFFFFFFFFFFFFFFFFFFFFFFFFFF AND EXTCODESIZE EQ JUMPDEST ISZERO PUSH2 0x2DD JUMPI DUP4 PUSH1 0x40 MLOAD PUSH32 0x9996B31500000000000000000000000000000000000000000000000000000000 DUP2 MSTORE PUSH1 0x4 ADD PUSH2 0x2D4 SWAP2 SWAP1 PUSH2 0x541 JUMP JUMPDEST PUSH1 0x40 MLOAD DUP1 SWAP2 SUB SWAP1 REVERT JUMPDEST DUP2 SWAP1 POP PUSH2 0x2E6 JUMP JUMPDEST JUMPDEST SWAP4 SWAP3 POP POP POP JUMP JUMPDEST PUSH0 DUP2 MLOAD GT ISZERO PUSH2 0x2FF JUMPI DUP1 MLOAD DUP1 DUP3 PUSH1 0x20 ADD REVERT JUMPDEST PUSH1 0x40 MLOAD PUSH32 0xD6BDA27500000000000000000000000000000000000000000000000000000000 DUP2 MSTORE PUSH1 0x4 ADD PUSH1 0x40 MLOAD DUP1 SWAP2 SUB SWAP1 REVERT JUMPDEST PUSH0 PUSH1 0x40 MLOAD SWAP1 POP SWAP1 JUMP JUMPDEST PUSH0 PUSH0 REVERT JUMPDEST PUSH0 PUSH0 REVERT JUMPDEST PUSH0 PUSH20 0xFFFFFFFFFFFFFFFFFFFFFFFFFFFFFFFFFFFFFFFF DUP3 AND SWAP1 POP SWAP2 SWAP1 POP JUMP JUMPDEST PUSH0 PUSH2 0x36B DUP3 PUSH2 0x342 JUMP JUMPDEST SWAP1 POP SWAP2 SWAP1 POP JUMP JUMPDEST PUSH2 0x37B DUP2 PUSH2 0x361 JUMP JUMPDEST DUP2 EQ PUSH2 0x385 JUMPI PUSH0 PUSH0 REVERT JUMPDEST POP JUMP JUMPDEST PUSH0 DUP2 MLOAD SWAP1 POP PUSH2 0x396 DUP2 PUSH2 0x372 JUMP JUMPDEST SWAP3 SWAP2 POP POP JUMP JUMPDEST PUSH0 PUSH0 REVERT JUMPDEST PUSH0 PUSH0 REVERT JUMPDEST PUSH0 PUSH1 0x1F NOT PUSH1 0x1F DUP4 ADD AND SWAP1 POP SWAP2 SWAP1 POP JUMP JUMPDEST PUSH32 0x4E487B7100000000000000000000000000000000000000000000000000000000 PUSH0 MSTORE PUSH1 0x41 PUSH1 0x4 MSTORE PUSH1 0x24 PUSH0 REVERT JUMPDEST PUSH2 0x3EA DUP3 PUSH2 0x3A4 JUMP JUMPDEST DUP2 ADD DUP2 DUP2 LT PUSH8 0xFFFFFFFFFFFFFFFF DUP3 GT OR ISZERO PUSH2 0x409 JUMPI PUSH2 0x408 PUSH2 0x3B4 JUMP JUMPDEST JUMPDEST DUP1 PUSH1 0x40 MSTORE POP POP POP JUMP JUMPDEST PUSH0 PUSH2 0x41B PUSH2 0x331 JUMP JUMPDEST SWAP1 POP PUSH2 0x427 DUP3 DUP3 PUSH2 0x3E1 JUMP JUMPDEST SWAP2 SWAP1 POP JUMP JUMPDEST PUSH0 PUSH8 0xFFFFFFFFFFFFFFFF DUP3 GT ISZERO PUSH2 0x446 JUMPI PUSH2 0x445 PUSH2 0x3B4 JUMP JUMPDEST JUMPDEST PUSH2 0x44F DUP3 PUSH2 0x3A4 JUMP JUMPDEST SWAP1 POP PUSH1 0x20 DUP2 ADD SWAP1 POP SWAP2 SWAP1 POP JUMP JUMPDEST DUP3 DUP2 DUP4 MCOPY PUSH0 DUP4 DUP4 ADD MSTORE POP POP POP JUMP JUMPDEST PUSH0 PUSH2 0x47C PUSH2 0x477 DUP5 PUSH2 0x42C JUMP JUMPDEST PUSH2 0x412 JUMP JUMPDEST SWAP1 POP DUP3 DUP2 MSTORE PUSH1 0x20 DUP2 ADD DUP5 DUP5 DUP5 ADD GT ISZERO PUSH2 0x498 JUMPI PUSH2 0x497 PUSH2 0x3A0 JUMP JUMPDEST JUMPDEST PUSH2 0x4A3 DUP5 DUP3 DUP6 PUSH2 0x45C JUMP JUMPDEST POP SWAP4 SWAP3 POP POP POP JUMP JUMPDEST PUSH0 DUP3 PUSH1 0x1F DUP4 ADD SLT PUSH2 0x4BF JUMPI PUSH2 0x4BE PUSH2 0x39C JUMP JUMPDEST JUMPDEST DUP2 MLOAD PUSH2 0x4CF DUP5 DUP3 PUSH1 0x20 DUP7 ADD PUSH2 0x46A JUMP JUMPDEST SWAP2 POP POP SWAP3 SWAP2 POP POP JUMP JUMPDEST PUSH0 PUSH0 PUSH1 0x40 DUP4 DUP6 SUB SLT ISZERO PUSH2 0x4EE JUMPI PUSH2 0x4ED PUSH2 0x33A JUMP JUMPDEST JUMPDEST PUSH0 PUSH2 0x4FB DUP6 DUP3 DUP7 ADD PUSH2 0x388 JUMP JUMPDEST SWAP3 POP POP PUSH1 0x20 DUP4 ADD MLOAD PUSH8 0xFFFFFFFFFFFFFFFF DUP2 GT ISZERO PUSH2 0x51C JUMPI PUSH2 0x51B PUSH2 0x33E JUMP JUMPDEST JUMPDEST PUSH2 0x528 DUP6 DUP3 DUP7 ADD PUSH2 0x4AB JUMP JUMPDEST SWAP2 POP POP SWAP3 POP SWAP3 SWAP1 POP JUMP JUMPDEST PUSH2 0x53B DUP2 PUSH2 0x361 JUMP JUMPDEST DUP3 MSTORE POP POP JUMP JUMPDEST PUSH0 PUSH1 0x20 DUP3 ADD SWAP1 POP PUSH2 0x554 PUSH0 DUP4 ADD DUP5 PUSH2 0x532 JUMP JUMPDEST SWAP3 SWAP2 POP POP JUMP JUMPDEST PUSH0 DUP2 MLOAD SWAP1 POP SWAP2 SWAP1 POP JUMP JUMPDEST PUSH0 DUP2 SWAP1 POP SWAP3 SWAP2 POP POP JUMP JUMPDEST PUSH0 PUSH2 0x578 DUP3 PUSH2 0x55A JUMP JUMPDEST PUSH2 0x582 DUP2 DUP6 PUSH2 0x564 JUMP JUMPDEST SWAP4 POP PUSH2 0x592 DUP2 DUP6 PUSH1 0x20 DUP7 ADD PUSH2 0x45C JUMP JUMPDEST DUP1 DUP5 ADD SWAP2 POP POP SWAP3 SWAP2 POP POP JUMP JUMPDEST PUSH0 PUSH2 0x5A9 DUP3 DUP5 PUSH2 0x56E JUMP JUMPDEST SWAP2 POP DUP2 SWAP1 POP SWAP3 SWAP2 POP POP JUMP JUMPDEST PUSH1 0xD4 DUP1 PUSH2 0x5C0 PUSH0 CODECOPY PUSH0 RETURN INVALID PUSH1 0x80 PUSH1 0x40 MSTORE PUSH1 0xA PUSH1 0xC JUMP JUMPDEST STOP JUMPDEST PUSH1 0x18 PUSH1 0x14 PUSH1 0x1A JUMP JUMPDEST PUSH1 0x26 JUMP JUMPDEST JUMP JUMPDEST PUSH0 PUSH1 0x21 PUSH1 0x44 JUMP JUMPDEST SWAP1 POP SWAP1 JUMP JUMPDEST CALLDATASIZE PUSH0 PUSH0 CALLDATACOPY PUSH0 PUSH0 CALLDATASIZE PUSH0 DUP5 GAS DELEGATECALL RETURNDATASIZE PUSH0 PUSH0 RETURNDATACOPY DUP1 PUSH0 DUP2 EQ PUSH1 0x40 JUMPI RETURNDATASIZE PUSH0 RETURN JUMPDEST RETURNDATASIZE PUSH0 REVERT JUMPDEST PUSH0 PUSH1 0x6E PUSH32 0x360894A13BA1A3210667C828492DB98DCA3E2076CC3735A920A3CA505D382BBC PUSH0 SHL PUSH1 0x95 JUMP JUMPDEST PUSH0 ADD PUSH0 SWAP1 SLOAD SWAP1 PUSH2 0x100 EXP SWAP1 DIV PUSH20 0xFFFFFFFFFFFFFFFFFFFFFFFFFFFFFFFFFFFFFFFF AND SWAP1 POP SWAP1 JUMP JUMPDEST PUSH0 DUP2 SWAP1 POP SWAP2 SWAP1 POP JUMP INVALID LOG2 PUSH5 0x6970667358 0x22 SLT KECCAK256 0xAD 0xD9 0xA5 PUSH2 0xD38 0xEB GASPRICE 0xC8 0x2B MSTORE8 PUSH8 0xB696E8AC3669B868 SELFBALANCE SWAP7 TLOAD GAS MSIZE 0xE 0xD2 RETURNDATACOPY DUP13 0xA6 DUP10 SSTORE PUSH5 0x736F6C6343 STOP ADDMOD SHR STOP CALLER LOG2 PUSH5 0x6970667358 0x22 SLT KECCAK256 0x1E 0xDA 0x4E 0xF9 0xE7 SWAP15 BLOBHASH 0xA8 0xBF 0xAC 0xE6 DUP10 JUMP 0x4B PUSH14 0x8746DED6A4AD2A34F1BAD2F05602 DUP13 0xA9 SWAP11 PUSH5 0x736F6C6343 STOP ADDMOD SHR STOP CALLER PUSH1 0xC0 PUSH1 0x40 MSTORE ADDRESS PUSH20 0xFFFFFFFFFFFFFFFFFFFFFFFFFFFFFFFFFFFFFFFF AND PUSH1 0x80 SWAP1 PUSH20 0xFFFFFFFFFFFFFFFFFFFFFFFFFFFFFFFFFFFFFFFF AND DUP2 MSTORE POP CALLVALUE DUP1 ISZERO PUSH2 0x42 JUMPI PUSH0 PUSH0 REVERT JUMPDEST POP PUSH1 0x40 MLOAD PUSH2 0x3594 CODESIZE SUB DUP1 PUSH2 0x3594 DUP4 CODECOPY DUP2 DUP2 ADD PUSH1 0x40 MSTORE DUP2 ADD SWAP1 PUSH2 0x64 SWAP2 SWAP1 PUSH2 0x1E1 JUMP JUMPDEST DUP2 DUP1 DUP2 PUSH2 0x76 DUP2 PUSH2 0xC3 PUSH1 0x20 SHL PUSH1 0x20 SHR JUMP JUMPDEST POP PUSH2 0x86 DUP2 PUSH2 0x105 PUSH1 0x20 SHL PUSH1 0x20 SHR JUMP JUMPDEST POP POP DUP1 PUSH20 0xFFFFFFFFFFFFFFFFFFFFFFFFFFFFFFFFFFFFFFFF AND PUSH1 0xA0 DUP2 PUSH20 0xFFFFFFFFFFFFFFFFFFFFFFFFFFFFFFFFFFFFFFFF AND DUP2 MSTORE POP POP POP POP PUSH2 0x21F JUMP JUMPDEST DUP1 PUSH0 PUSH0 PUSH2 0x100 EXP DUP2 SLOAD DUP2 PUSH20 0xFFFFFFFFFFFFFFFFFFFFFFFFFFFFFFFFFFFFFFFF MUL NOT AND SWAP1 DUP4 PUSH20 0xFFFFFFFFFFFFFFFFFFFFFFFFFFFFFFFFFFFFFFFF AND MUL OR SWAP1 SSTORE POP POP JUMP JUMPDEST DUP1 PUSH1 0x1 PUSH0 PUSH2 0x100 EXP DUP2 SLOAD DUP2 PUSH20 0xFFFFFFFFFFFFFFFFFFFFFFFFFFFFFFFFFFFFFFFF MUL NOT AND SWAP1 DUP4 PUSH20 0xFFFFFFFFFFFFFFFFFFFFFFFFFFFFFFFFFFFFFFFF AND MUL OR SWAP1 SSTORE POP POP JUMP JUMPDEST PUSH0 PUSH0 REVERT JUMPDEST PUSH0 PUSH20 0xFFFFFFFFFFFFFFFFFFFFFFFFFFFFFFFFFFFFFFFF DUP3 AND SWAP1 POP SWAP2 SWAP1 POP JUMP JUMPDEST PUSH0 PUSH2 0x175 DUP3 PUSH2 0x14C JUMP JUMPDEST SWAP1 POP SWAP2 SWAP1 POP JUMP JUMPDEST PUSH2 0x185 DUP2 PUSH2 0x16B JUMP JUMPDEST DUP2 EQ PUSH2 0x18F JUMPI PUSH0 PUSH0 REVERT JUMPDEST POP JUMP JUMPDEST PUSH0 DUP2 MLOAD SWAP1 POP PUSH2 0x1A0 DUP2 PUSH2 0x17C JUMP JUMPDEST SWAP3 SWAP2 POP POP JUMP JUMPDEST PUSH0 PUSH2 0x1B0 DUP3 PUSH2 0x16B JUMP JUMPDEST SWAP1 POP SWAP2 SWAP1 POP JUMP JUMPDEST PUSH2 0x1C0 DUP2 PUSH2 0x1A6 JUMP JUMPDEST DUP2 EQ PUSH2 0x1CA JUMPI PUSH0 PUSH0 REVERT JUMPDEST POP JUMP JUMPDEST PUSH0 DUP2 MLOAD SWAP1 POP PUSH2 0x1DB DUP2 PUSH2 0x1B7 JUMP JUMPDEST SWAP3 SWAP2 POP POP JUMP JUMPDEST PUSH0 PUSH0 PUSH1 0x40 DUP4 DUP6 SUB SLT ISZERO PUSH2 0x1F7 JUMPI PUSH2 0x1F6 PUSH2 0x148 JUMP JUMPDEST JUMPDEST PUSH0 PUSH2 0x204 DUP6 DUP3 DUP7 ADD PUSH2 0x192 JUMP JUMPDEST SWAP3 POP POP PUSH1 0x20 PUSH2 0x215 DUP6 DUP3 DUP7 ADD PUSH2 0x1CD JUMP JUMPDEST SWAP2 POP POP SWAP3 POP SWAP3 SWAP1 POP JUMP JUMPDEST PUSH1 0x80 MLOAD PUSH1 0xA0 MLOAD PUSH2 0x333F PUSH2 0x255 PUSH0 CODECOPY PUSH0 DUP2 DUP2 PUSH2 0xD9E ADD MSTORE PUSH2 0x19A2 ADD MSTORE PUSH0 DUP2 DUP2 PUSH2 0x13E2 ADD MSTORE DUP2 DUP2 PUSH2 0x1437 ADD MSTORE PUSH2 0x15F1 ADD MSTORE PUSH2 0x333F PUSH0 RETURN INVALID PUSH1 0x80 PUSH1 0x40 MSTORE PUSH1 0x4 CALLDATASIZE LT PUSH2 0x1C4 JUMPI PUSH0 CALLDATALOAD PUSH1 0xE0 SHR DUP1 PUSH4 0x76C81312 GT PUSH2 0xF6 JUMPI DUP1 PUSH4 0xBC197C81 GT PUSH2 0x94 JUMPI DUP1 PUSH4 0xDE8AEDA0 GT PUSH2 0x63 JUMPI DUP1 PUSH4 0xDE8AEDA0 EQ PUSH2 0x5FD JUMPI DUP1 PUSH4 0xE0B838E9 EQ PUSH2 0x627 JUMPI DUP1 PUSH4 0xF23A6E61 EQ PUSH2 0x651 JUMPI DUP1 PUSH4 0xF3148925 EQ PUSH2 0x68D JUMPI PUSH2 0x1CB JUMP JUMPDEST DUP1 PUSH4 0xBC197C81 EQ PUSH2 0x545 JUMPI DUP1 PUSH4 0xC399EC88 EQ PUSH2 0x581 JUMPI DUP1 PUSH4 0xC4D66DE8 EQ PUSH2 0x5AB JUMPI DUP1 PUSH4 0xD087D288 EQ PUSH2 0x5D3 JUMPI PUSH2 0x1CB JUMP JUMPDEST DUP1 PUSH4 0xAD3CB1CC GT PUSH2 0xD0 JUMPI DUP1 PUSH4 0xAD3CB1CC EQ PUSH2 0x49F JUMPI DUP1 PUSH4 0xB0CFD4D2 EQ PUSH2 0x4C9 JUMPI DUP1 PUSH4 0xB0D691FE EQ PUSH2 0x4F3 JUMPI DUP1 PUSH4 0xB61D27F6 EQ PUSH2 0x51D JUMPI PUSH2 0x1CB JUMP JUMPDEST DUP1 PUSH4 0x76C81312 EQ PUSH2 0x3FD JUMPI DUP1 PUSH4 0x8DA5CB5B EQ PUSH2 0x439 JUMPI DUP1 PUSH4 0xAB021F7C EQ PUSH2 0x463 JUMPI PUSH2 0x1CB JUMP JUMPDEST DUP1 PUSH4 0x4A58DB19 GT PUSH2 0x163 JUMPI DUP1 PUSH4 0x52D1902D GT PUSH2 0x13D JUMPI DUP1 PUSH4 0x52D1902D EQ PUSH2 0x355 JUMPI DUP1 PUSH4 0x5AD3AD06 EQ PUSH2 0x37F JUMPI DUP1 PUSH4 0x5AEB4D77 EQ PUSH2 0x3A9 JUMPI DUP1 PUSH4 0x5E45DA23 EQ PUSH2 0x3D3 JUMPI PUSH2 0x1CB JUMP JUMPDEST DUP1 PUSH4 0x4A58DB19 EQ PUSH2 0x307 JUMPI DUP1 PUSH4 0x4D44560D EQ PUSH2 0x311 JUMPI DUP1 PUSH4 0x4F1EF286 EQ PUSH2 0x339 JUMPI PUSH2 0x1CB JUMP JUMPDEST DUP1 PUSH4 0x150B7A02 GT PUSH2 0x19F JUMPI DUP1 PUSH4 0x150B7A02 EQ PUSH2 0x251 JUMPI DUP1 PUSH4 0x2E1A7D4D EQ PUSH2 0x28D JUMPI DUP1 PUSH4 0x45636279 EQ PUSH2 0x2B5 JUMPI DUP1 PUSH4 0x47E1DA2A EQ PUSH2 0x2DF JUMPI PUSH2 0x1CB JUMP JUMPDEST DUP1 PUSH3 0x73B555 EQ PUSH2 0x1CF JUMPI DUP1 PUSH4 0x1FFC9A7 EQ PUSH2 0x1EB JUMPI DUP1 PUSH4 0xE82845D EQ PUSH2 0x227 JUMPI PUSH2 0x1CB JUMP JUMPDEST CALLDATASIZE PUSH2 0x1CB JUMPI STOP JUMPDEST PUSH0 PUSH0 REVERT JUMPDEST PUSH2 0x1E9 PUSH1 0x4 DUP1 CALLDATASIZE SUB DUP2 ADD SWAP1 PUSH2 0x1E4 SWAP2 SWAP1 PUSH2 0x2139 JUMP JUMPDEST PUSH2 0x6A9 JUMP JUMPDEST STOP JUMPDEST CALLVALUE DUP1 ISZERO PUSH2 0x1F6 JUMPI PUSH0 PUSH0 REVERT JUMPDEST POP PUSH2 0x211 PUSH1 0x4 DUP1 CALLDATASIZE SUB DUP2 ADD SWAP1 PUSH2 0x20C SWAP2 SWAP1 PUSH2 0x21FF JUMP JUMPDEST PUSH2 0x741 JUMP JUMPDEST PUSH1 0x40 MLOAD PUSH2 0x21E SWAP2 SWAP1 PUSH2 0x2244 JUMP JUMPDEST PUSH1 0x40 MLOAD DUP1 SWAP2 SUB SWAP1 RETURN JUMPDEST CALLVALUE DUP1 ISZERO PUSH2 0x232 JUMPI PUSH0 PUSH0 REVERT JUMPDEST POP PUSH2 0x23B PUSH2 0x87A JUMP JUMPDEST PUSH1 0x40 MLOAD PUSH2 0x248 SWAP2 SWAP1 PUSH2 0x22D7 JUMP JUMPDEST PUSH1 0x40 MLOAD DUP1 SWAP2 SUB SWAP1 RETURN JUMPDEST CALLVALUE DUP1 ISZERO PUSH2 0x25C JUMPI PUSH0 PUSH0 REVERT JUMPDEST POP PUSH2 0x277 PUSH1 0x4 DUP1 CALLDATASIZE SUB DUP2 ADD SWAP1 PUSH2 0x272 SWAP2 SWAP1 PUSH2 0x232B JUMP JUMPDEST PUSH2 0x89F JUMP JUMPDEST PUSH1 0x40 MLOAD PUSH2 0x284 SWAP2 SWAP1 PUSH2 0x23BE JUMP JUMPDEST PUSH1 0x40 MLOAD DUP1 SWAP2 SUB SWAP1 RETURN JUMPDEST CALLVALUE DUP1 ISZERO PUSH2 0x298 JUMPI PUSH0 PUSH0 REVERT JUMPDEST POP PUSH2 0x2B3 PUSH1 0x4 DUP1 CALLDATASIZE SUB DUP2 ADD SWAP1 PUSH2 0x2AE SWAP2 SWAP1 PUSH2 0x23D7 JUMP JUMPDEST PUSH2 0x8B3 JUMP JUMPDEST STOP JUMPDEST CALLVALUE DUP1 ISZERO PUSH2 0x2C0 JUMPI PUSH0 PUSH0 REVERT JUMPDEST POP PUSH2 0x2C9 PUSH2 0x911 JUMP JUMPDEST PUSH1 0x40 MLOAD PUSH2 0x2D6 SWAP2 SWAP1 PUSH2 0x243C JUMP JUMPDEST PUSH1 0x40 MLOAD DUP1 SWAP2 SUB SWAP1 RETURN JUMPDEST CALLVALUE DUP1 ISZERO PUSH2 0x2EA JUMPI PUSH0 PUSH0 REVERT JUMPDEST POP PUSH2 0x305 PUSH1 0x4 DUP1 CALLDATASIZE SUB DUP2 ADD SWAP1 PUSH2 0x300 SWAP2 SWAP1 PUSH2 0x2554 JUMP JUMPDEST PUSH2 0x915 JUMP JUMPDEST STOP JUMPDEST PUSH2 0x30F PUSH2 0xB20 JUMP JUMPDEST STOP JUMPDEST CALLVALUE DUP1 ISZERO PUSH2 0x31C JUMPI PUSH0 PUSH0 REVERT JUMPDEST POP PUSH2 0x337 PUSH1 0x4 DUP1 CALLDATASIZE SUB DUP2 ADD SWAP1 PUSH2 0x332 SWAP2 SWAP1 PUSH2 0x263F JUMP JUMPDEST PUSH2 0xB91 JUMP JUMPDEST STOP JUMPDEST PUSH2 0x353 PUSH1 0x4 DUP1 CALLDATASIZE SUB DUP2 ADD SWAP1 PUSH2 0x34E SWAP2 SWAP1 PUSH2 0x27B5 JUMP JUMPDEST PUSH2 0xC0C JUMP JUMPDEST STOP JUMPDEST CALLVALUE DUP1 ISZERO PUSH2 0x360 JUMPI PUSH0 PUSH0 REVERT JUMPDEST POP PUSH2 0x369 PUSH2 0xC2B JUMP JUMPDEST PUSH1 0x40 MLOAD PUSH2 0x376 SWAP2 SWAP1 PUSH2 0x2827 JUMP JUMPDEST PUSH1 0x40 MLOAD DUP1 SWAP2 SUB SWAP1 RETURN JUMPDEST CALLVALUE DUP1 ISZERO PUSH2 0x38A JUMPI PUSH0 PUSH0 REVERT JUMPDEST POP PUSH2 0x393 PUSH2 0xC5C JUMP JUMPDEST PUSH1 0x40 MLOAD PUSH2 0x3A0 SWAP2 SWAP1 PUSH2 0x284F JUMP JUMPDEST PUSH1 0x40 MLOAD DUP1 SWAP2 SUB SWAP1 RETURN JUMPDEST CALLVALUE DUP1 ISZERO PUSH2 0x3B4 JUMPI PUSH0 PUSH0 REVERT JUMPDEST POP PUSH2 0x3BD PUSH2 0xC60 JUMP JUMPDEST PUSH1 0x40 MLOAD PUSH2 0x3CA SWAP2 SWAP1 PUSH2 0x2885 JUMP JUMPDEST PUSH1 0x40 MLOAD DUP1 SWAP2 SUB SWAP1 RETURN JUMPDEST CALLVALUE DUP1 ISZERO PUSH2 0x3DE JUMPI PUSH0 PUSH0 REVERT JUMPDEST POP PUSH2 0x3E7 PUSH2 0xC64 JUMP JUMPDEST PUSH1 0x40 MLOAD PUSH2 0x3F4 SWAP2 SWAP1 PUSH2 0x2885 JUMP JUMPDEST PUSH1 0x40 MLOAD DUP1 SWAP2 SUB SWAP1 RETURN JUMPDEST CALLVALUE DUP1 ISZERO PUSH2 0x408 JUMPI PUSH0 PUSH0 REVERT JUMPDEST POP PUSH2 0x423 PUSH1 0x4 DUP1 CALLDATASIZE SUB DUP2 ADD SWAP1 PUSH2 0x41E SWAP2 SWAP1 PUSH2 0x289E JUMP JUMPDEST PUSH2 0xC68 JUMP JUMPDEST PUSH1 0x40 MLOAD PUSH2 0x430 SWAP2 SWAP1 PUSH2 0x2950 JUMP JUMPDEST PUSH1 0x40 MLOAD DUP1 SWAP2 SUB SWAP1 RETURN JUMPDEST CALLVALUE DUP1 ISZERO PUSH2 0x444 JUMPI PUSH0 PUSH0 REVERT JUMPDEST POP PUSH2 0x44D PUSH2 0xD07 JUMP JUMPDEST PUSH1 0x40 MLOAD PUSH2 0x45A SWAP2 SWAP1 PUSH2 0x2978 JUMP JUMPDEST PUSH1 0x40 MLOAD DUP1 SWAP2 SUB SWAP1 RETURN JUMPDEST CALLVALUE DUP1 ISZERO PUSH2 0x46E JUMPI PUSH0 PUSH0 REVERT JUMPDEST POP PUSH2 0x489 PUSH1 0x4 DUP1 CALLDATASIZE SUB DUP2 ADD SWAP1 PUSH2 0x484 SWAP2 SWAP1 PUSH2 0x29DE JUMP JUMPDEST PUSH2 0xD2C JUMP JUMPDEST PUSH1 0x40 MLOAD PUSH2 0x496 SWAP2 SWAP1 PUSH2 0x2950 JUMP JUMPDEST PUSH1 0x40 MLOAD DUP1 SWAP2 SUB SWAP1 RETURN JUMPDEST CALLVALUE DUP1 ISZERO PUSH2 0x4AA JUMPI PUSH0 PUSH0 REVERT JUMPDEST POP PUSH2 0x4B3 PUSH2 0xD5E JUMP JUMPDEST PUSH1 0x40 MLOAD PUSH2 0x4C0 SWAP2 SWAP1 PUSH2 0x2AAA JUMP JUMPDEST PUSH1 0x40 MLOAD DUP1 SWAP2 SUB SWAP1 RETURN JUMPDEST CALLVALUE DUP1 ISZERO PUSH2 0x4D4 JUMPI PUSH0 PUSH0 REVERT JUMPDEST POP PUSH2 0x4DD PUSH2 0xD97 JUMP JUMPDEST PUSH1 0x40 MLOAD PUSH2 0x4EA SWAP2 SWAP1 PUSH2 0x2978 JUMP JUMPDEST PUSH1 0x40 MLOAD DUP1 SWAP2 SUB SWAP1 RETURN JUMPDEST CALLVALUE DUP1 ISZERO PUSH2 0x4FE JUMPI PUSH0 PUSH0 REVERT JUMPDEST POP PUSH2 0x507 PUSH2 0xD9B JUMP JUMPDEST PUSH1 0x40 MLOAD PUSH2 0x514 SWAP2 SWAP1 PUSH2 0x2AEA JUMP JUMPDEST PUSH1 0x40 MLOAD DUP1 SWAP2 SUB SWAP1 RETURN JUMPDEST CALLVALUE DUP1 ISZERO PUSH2 0x528 JUMPI PUSH0 PUSH0 REVERT JUMPDEST POP PUSH2 0x543 PUSH1 0x4 DUP1 CALLDATASIZE SUB DUP2 ADD SWAP1 PUSH2 0x53E SWAP2 SWAP1 PUSH2 0x2B03 JUMP JUMPDEST PUSH2 0xDC2 JUMP JUMPDEST STOP JUMPDEST CALLVALUE DUP1 ISZERO PUSH2 0x550 JUMPI PUSH0 PUSH0 REVERT JUMPDEST POP PUSH2 0x56B PUSH1 0x4 DUP1 CALLDATASIZE SUB DUP2 ADD SWAP1 PUSH2 0x566 SWAP2 SWAP1 PUSH2 0x2B74 JUMP JUMPDEST PUSH2 0xE1E JUMP JUMPDEST PUSH1 0x40 MLOAD PUSH2 0x578 SWAP2 SWAP1 PUSH2 0x23BE JUMP JUMPDEST PUSH1 0x40 MLOAD DUP1 SWAP2 SUB SWAP1 RETURN JUMPDEST CALLVALUE DUP1 ISZERO PUSH2 0x58C JUMPI PUSH0 PUSH0 REVERT JUMPDEST POP PUSH2 0x595 PUSH2 0xE35 JUMP JUMPDEST PUSH1 0x40 MLOAD PUSH2 0x5A2 SWAP2 SWAP1 PUSH2 0x2950 JUMP JUMPDEST PUSH1 0x40 MLOAD DUP1 SWAP2 SUB SWAP1 RETURN JUMPDEST CALLVALUE DUP1 ISZERO PUSH2 0x5B6 JUMPI PUSH0 PUSH0 REVERT JUMPDEST POP PUSH2 0x5D1 PUSH1 0x4 DUP1 CALLDATASIZE SUB DUP2 ADD SWAP1 PUSH2 0x5CC SWAP2 SWAP1 PUSH2 0x2C4B JUMP JUMPDEST PUSH2 0xEBA JUMP JUMPDEST STOP JUMPDEST CALLVALUE DUP1 ISZERO PUSH2 0x5DE JUMPI PUSH0 PUSH0 REVERT JUMPDEST POP PUSH2 0x5E7 PUSH2 0x103B JUMP JUMPDEST PUSH1 0x40 MLOAD PUSH2 0x5F4 SWAP2 SWAP1 PUSH2 0x2950 JUMP JUMPDEST PUSH1 0x40 MLOAD DUP1 SWAP2 SUB SWAP1 RETURN JUMPDEST CALLVALUE DUP1 ISZERO PUSH2 0x608 JUMPI PUSH0 PUSH0 REVERT JUMPDEST POP PUSH2 0x611 PUSH2 0x10C2 JUMP JUMPDEST PUSH1 0x40 MLOAD PUSH2 0x61E SWAP2 SWAP1 PUSH2 0x284F JUMP JUMPDEST PUSH1 0x40 MLOAD DUP1 SWAP2 SUB SWAP1 RETURN JUMPDEST CALLVALUE DUP1 ISZERO PUSH2 0x632 JUMPI PUSH0 PUSH0 REVERT JUMPDEST POP PUSH2 0x63B PUSH2 0x10C6 JUMP JUMPDEST PUSH1 0x40 MLOAD PUSH2 0x648 SWAP2 SWAP1 PUSH2 0x22D7 JUMP JUMPDEST PUSH1 0x40 MLOAD DUP1 SWAP2 SUB SWAP1 RETURN JUMPDEST CALLVALUE DUP1 ISZERO PUSH2 0x65C JUMPI PUSH0 PUSH0 REVERT JUMPDEST POP PUSH2 0x677 PUSH1 0x4 DUP1 CALLDATASIZE SUB DUP2 ADD SWAP1 PUSH2 0x672 SWAP2 SWAP1 PUSH2 0x2C76 JUMP JUMPDEST PUSH2 0x10EA JUMP JUMPDEST PUSH1 0x40 MLOAD PUSH2 0x684 SWAP2 SWAP1 PUSH2 0x23BE JUMP JUMPDEST PUSH1 0x40 MLOAD DUP1 SWAP2 SUB SWAP1 RETURN JUMPDEST PUSH2 0x6A7 PUSH1 0x4 DUP1 CALLDATASIZE SUB DUP2 ADD SWAP1 PUSH2 0x6A2 SWAP2 SWAP1 PUSH2 0x2D0C JUMP JUMPDEST PUSH2 0x10FF JUMP JUMPDEST STOP JUMPDEST PUSH1 0x1 PUSH0 SWAP1 SLOAD SWAP1 PUSH2 0x100 EXP SWAP1 DIV PUSH20 0xFFFFFFFFFFFFFFFFFFFFFFFFFFFFFFFFFFFFFFFF AND PUSH20 0xFFFFFFFFFFFFFFFFFFFFFFFFFFFFFFFFFFFFFFFF AND CALLER PUSH20 0xFFFFFFFFFFFFFFFFFFFFFFFFFFFFFFFFFFFFFFFF AND EQ PUSH2 0x72F JUMPI PUSH1 0x40 MLOAD PUSH32 0xFB2541EA00000000000000000000000000000000000000000000000000000000 DUP2 MSTORE PUSH1 0x4 ADD PUSH1 0x40 MLOAD DUP1 SWAP2 SUB SWAP1 REVERT JUMPDEST PUSH2 0x73B DUP5 DUP5 DUP5 DUP5 PUSH2 0x1199 JUMP JUMPDEST POP POP POP POP JUMP JUMPDEST PUSH0 PUSH32 0x150B7A0200000000000000000000000000000000000000000000000000000000 PUSH28 0xFFFFFFFFFFFFFFFFFFFFFFFFFFFFFFFFFFFFFFFFFFFFFFFFFFFFFFFF NOT AND DUP3 PUSH28 0xFFFFFFFFFFFFFFFFFFFFFFFFFFFFFFFFFFFFFFFFFFFFFFFFFFFFFFFF NOT AND EQ DUP1 PUSH2 0x80B JUMPI POP PUSH32 0x4E2312E000000000000000000000000000000000000000000000000000000000 PUSH28 0xFFFFFFFFFFFFFFFFFFFFFFFFFFFFFFFFFFFFFFFFFFFFFFFFFFFFFFFF NOT AND DUP3 PUSH28 0xFFFFFFFFFFFFFFFFFFFFFFFFFFFFFFFFFFFFFFFFFFFFFFFFFFFFFFFF NOT AND EQ JUMPDEST DUP1 PUSH2 0x873 JUMPI POP PUSH32 0x1FFC9A700000000000000000000000000000000000000000000000000000000 PUSH28 0xFFFFFFFFFFFFFFFFFFFFFFFFFFFFFFFFFFFFFFFFFFFFFFFFFFFFFFFF NOT AND DUP3 PUSH28 0xFFFFFFFFFFFFFFFFFFFFFFFFFFFFFFFFFFFFFFFFFFFFFFFFFFFFFFFF NOT AND EQ JUMPDEST SWAP1 POP SWAP2 SWAP1 POP JUMP JUMPDEST PUSH1 0x1 PUSH0 SWAP1 SLOAD SWAP1 PUSH2 0x100 EXP SWAP1 DIV PUSH20 0xFFFFFFFFFFFFFFFFFFFFFFFFFFFFFFFFFFFFFFFF AND DUP2 JUMP JUMPDEST PUSH0 PUSH4 0x150B7A02 PUSH1 0xE0 SHL SWAP1 POP SWAP6 SWAP5 POP POP POP POP POP JUMP JUMPDEST PUSH2 0x8BB PUSH2 0x11CB JUMP JUMPDEST SELFBALANCE DUP2 GT ISZERO PUSH2 0x8F5 JUMPI PUSH1 0x40 MLOAD PUSH32 0xF4D678B800000000000000000000000000000000000000000000000000000000 DUP2 MSTORE PUSH1 0x4 ADD PUSH1 0x40 MLOAD DUP1 SWAP2 SUB SWAP1 REVERT JUMPDEST PUSH2 0x90E CALLER DUP3 PUSH1 0x40 MLOAD DUP1 PUSH1 0x20 ADD PUSH1 0x40 MSTORE DUP1 PUSH0 DUP2 MSTORE POP PUSH2 0x1292 JUMP JUMPDEST POP JUMP JUMPDEST PUSH0 SWAP1 JUMP JUMPDEST PUSH2 0x91D PUSH2 0x1312 JUMP JUMPDEST DUP2 DUP2 SWAP1 POP DUP7 DUP7 SWAP1 POP EQ DUP1 ISZERO PUSH2 0x944 JUMPI POP PUSH0 DUP5 DUP5 SWAP1 POP EQ DUP1 PUSH2 0x943 JUMPI POP DUP2 DUP2 SWAP1 POP DUP5 DUP5 SWAP1 POP EQ JUMPDEST JUMPDEST PUSH2 0x983 JUMPI PUSH1 0x40 MLOAD PUSH32 0x8C379A000000000000000000000000000000000000000000000000000000000 DUP2 MSTORE PUSH1 0x4 ADD PUSH2 0x97A SWAP1 PUSH2 0x2DDA JUMP JUMPDEST PUSH1 0x40 MLOAD DUP1 SWAP2 SUB SWAP1 REVERT JUMPDEST PUSH0 DUP5 DUP5 SWAP1 POP SUB PUSH2 0xA48 JUMPI PUSH0 PUSH0 SWAP1 POP JUMPDEST DUP7 DUP7 SWAP1 POP DUP2 LT ISZERO PUSH2 0xA42 JUMPI PUSH2 0xA35 DUP8 DUP8 DUP4 DUP2 DUP2 LT PUSH2 0x9B3 JUMPI PUSH2 0x9B2 PUSH2 0x2DF8 JUMP JUMPDEST JUMPDEST SWAP1 POP PUSH1 0x20 MUL ADD PUSH1 0x20 DUP2 ADD SWAP1 PUSH2 0x9C8 SWAP2 SWAP1 PUSH2 0x2C4B JUMP JUMPDEST PUSH0 DUP6 DUP6 DUP6 DUP2 DUP2 LT PUSH2 0x9DC JUMPI PUSH2 0x9DB PUSH2 0x2DF8 JUMP JUMPDEST JUMPDEST SWAP1 POP PUSH1 0x20 MUL DUP2 ADD SWAP1 PUSH2 0x9EE SWAP2 SWAP1 PUSH2 0x2E31 JUMP JUMPDEST DUP1 DUP1 PUSH1 0x1F ADD PUSH1 0x20 DUP1 SWAP2 DIV MUL PUSH1 0x20 ADD PUSH1 0x40 MLOAD SWAP1 DUP2 ADD PUSH1 0x40 MSTORE DUP1 SWAP4 SWAP3 SWAP2 SWAP1 DUP2 DUP2 MSTORE PUSH1 0x20 ADD DUP4 DUP4 DUP1 DUP3 DUP5 CALLDATACOPY PUSH0 DUP2 DUP5 ADD MSTORE PUSH1 0x1F NOT PUSH1 0x1F DUP3 ADD AND SWAP1 POP DUP1 DUP4 ADD SWAP3 POP POP POP POP POP POP POP PUSH2 0x1292 JUMP JUMPDEST DUP1 DUP1 PUSH1 0x1 ADD SWAP2 POP POP PUSH2 0x992 JUMP JUMPDEST POP PUSH2 0xB18 JUMP JUMPDEST PUSH0 PUSH0 SWAP1 POP JUMPDEST DUP7 DUP7 SWAP1 POP DUP2 LT ISZERO PUSH2 0xB16 JUMPI PUSH2 0xB09 DUP8 DUP8 DUP4 DUP2 DUP2 LT PUSH2 0xA6E JUMPI PUSH2 0xA6D PUSH2 0x2DF8 JUMP JUMPDEST JUMPDEST SWAP1 POP PUSH1 0x20 MUL ADD PUSH1 0x20 DUP2 ADD SWAP1 PUSH2 0xA83 SWAP2 SWAP1 PUSH2 0x2C4B JUMP JUMPDEST DUP7 DUP7 DUP5 DUP2 DUP2 LT PUSH2 0xA96 JUMPI PUSH2 0xA95 PUSH2 0x2DF8 JUMP JUMPDEST JUMPDEST SWAP1 POP PUSH1 0x20 MUL ADD CALLDATALOAD DUP6 DUP6 DUP6 DUP2 DUP2 LT PUSH2 0xAB0 JUMPI PUSH2 0xAAF PUSH2 0x2DF8 JUMP JUMPDEST JUMPDEST SWAP1 POP PUSH1 0x20 MUL DUP2 ADD SWAP1 PUSH2 0xAC2 SWAP2 SWAP1 PUSH2 0x2E31 JUMP JUMPDEST DUP1 DUP1 PUSH1 0x1F ADD PUSH1 0x20 DUP1 SWAP2 DIV MUL PUSH1 0x20 ADD PUSH1 0x40 MLOAD SWAP1 DUP2 ADD PUSH1 0x40 MSTORE DUP1 SWAP4 SWAP3 SWAP2 SWAP1 DUP2 DUP2 MSTORE PUSH1 0x20 ADD DUP4 DUP4 DUP1 DUP3 DUP5 CALLDATACOPY PUSH0 DUP2 DUP5 ADD MSTORE PUSH1 0x1F NOT PUSH1 0x1F DUP3 ADD AND SWAP1 POP DUP1 DUP4 ADD SWAP3 POP POP POP POP POP POP POP PUSH2 0x1292 JUMP JUMPDEST DUP1 DUP1 PUSH1 0x1 ADD SWAP2 POP POP PUSH2 0xA4D JUMP JUMPDEST POP JUMPDEST POP POP POP POP POP POP JUMP JUMPDEST PUSH2 0xB28 PUSH2 0xD9B JUMP JUMPDEST PUSH20 0xFFFFFFFFFFFFFFFFFFFFFFFFFFFFFFFFFFFFFFFF AND PUSH4 0xB760FAF9 CALLVALUE ADDRESS PUSH1 0x40 MLOAD DUP4 PUSH4 0xFFFFFFFF AND PUSH1 0xE0 SHL DUP2 MSTORE PUSH1 0x4 ADD PUSH2 0xB61 SWAP2 SWAP1 PUSH2 0x2978 JUMP JUMPDEST PUSH0 PUSH1 0x40 MLOAD DUP1 DUP4 SUB DUP2 DUP6 DUP9 DUP1 EXTCODESIZE ISZERO DUP1 ISZERO PUSH2 0xB78 JUMPI PUSH0 PUSH0 REVERT JUMPDEST POP GAS CALL ISZERO DUP1 ISZERO PUSH2 0xB8A JUMPI RETURNDATASIZE PUSH0 PUSH0 RETURNDATACOPY RETURNDATASIZE PUSH0 REVERT JUMPDEST POP POP POP POP POP JUMP JUMPDEST PUSH2 0xB99 PUSH2 0x11CB JUMP JUMPDEST PUSH2 0xBA1 PUSH2 0xD9B JUMP JUMPDEST PUSH20 0xFFFFFFFFFFFFFFFFFFFFFFFFFFFFFFFFFFFFFFFF AND PUSH4 0x205C2878 DUP4 DUP4 PUSH1 0x40 MLOAD DUP4 PUSH4 0xFFFFFFFF AND PUSH1 0xE0 SHL DUP2 MSTORE PUSH1 0x4 ADD PUSH2 0xBDB SWAP3 SWAP2 SWAP1 PUSH2 0x2EA2 JUMP JUMPDEST PUSH0 PUSH1 0x40 MLOAD DUP1 DUP4 SUB DUP2 PUSH0 DUP8 DUP1 EXTCODESIZE ISZERO DUP1 ISZERO PUSH2 0xBF2 JUMPI PUSH0 PUSH0 REVERT JUMPDEST POP GAS CALL ISZERO DUP1 ISZERO PUSH2 0xC04 JUMPI RETURNDATASIZE PUSH0 PUSH0 RETURNDATACOPY RETURNDATASIZE PUSH0 REVERT JUMPDEST POP POP POP POP POP POP JUMP JUMPDEST PUSH2 0xC14 PUSH2 0x13E0 JUMP JUMPDEST PUSH2 0xC1D DUP3 PUSH2 0x14C6 JUMP JUMPDEST PUSH2 0xC27 DUP3 DUP3 PUSH2 0x14D1 JUMP JUMPDEST POP POP JUMP JUMPDEST PUSH0 PUSH2 0xC34 PUSH2 0x15EF JUMP JUMPDEST PUSH32 0x360894A13BA1A3210667C828492DB98DCA3E2076CC3735A920A3CA505D382BBC PUSH0 SHL SWAP1 POP SWAP1 JUMP JUMPDEST PUSH0 SWAP1 JUMP JUMPDEST PUSH0 SWAP1 JUMP JUMPDEST PUSH0 SWAP1 JUMP JUMPDEST PUSH0 PUSH2 0xCFB DUP8 DUP8 DUP8 DUP8 DUP1 DUP1 PUSH1 0x1F ADD PUSH1 0x20 DUP1 SWAP2 DIV MUL PUSH1 0x20 ADD PUSH1 0x40 MLOAD SWAP1 DUP2 ADD PUSH1 0x40 MSTORE DUP1 SWAP4 SWAP3 SWAP2 SWAP1 DUP2 DUP2 MSTORE PUSH1 0x20 ADD DUP4 DUP4 DUP1 DUP3 DUP5 CALLDATACOPY PUSH0 DUP2 DUP5 ADD MSTORE PUSH1 0x1F NOT PUSH1 0x1F DUP3 ADD AND SWAP1 POP DUP1 DUP4 ADD SWAP3 POP POP POP POP POP POP POP DUP7 DUP7 DUP1 DUP1 PUSH1 0x1F ADD PUSH1 0x20 DUP1 SWAP2 DIV MUL PUSH1 0x20 ADD PUSH1 0x40 MLOAD SWAP1 DUP2 ADD PUSH1 0x40 MSTORE DUP1 SWAP4 SWAP3 SWAP2 SWAP1 DUP2 DUP2 MSTORE PUSH1 0x20 ADD DUP4 DUP4 DUP1 DUP3 DUP5 CALLDATACOPY PUSH0 DUP2 DUP5 ADD MSTORE PUSH1 0x1F NOT PUSH1 0x1F DUP3 ADD AND SWAP1 POP DUP1 DUP4 ADD SWAP3 POP POP POP POP POP POP POP PUSH2 0x1676 JUMP JUMPDEST SWAP1 POP SWAP7 SWAP6 POP POP POP POP POP POP JUMP JUMPDEST PUSH1 0x2 PUSH0 SWAP1 SLOAD SWAP1 PUSH2 0x100 EXP SWAP1 DIV PUSH20 0xFFFFFFFFFFFFFFFFFFFFFFFFFFFFFFFFFFFFFFFF AND DUP2 JUMP JUMPDEST PUSH0 PUSH2 0xD35 PUSH2 0x171F JUMP JUMPDEST PUSH2 0xD3F DUP5 DUP5 PUSH2 0x1796 JUMP JUMPDEST SWAP1 POP PUSH2 0xD4E DUP5 PUSH1 0x20 ADD CALLDATALOAD PUSH2 0x1867 JUMP JUMPDEST PUSH2 0xD57 DUP3 PUSH2 0x186A JUMP JUMPDEST SWAP4 SWAP3 POP POP POP JUMP JUMPDEST PUSH1 0x40 MLOAD DUP1 PUSH1 0x40 ADD PUSH1 0x40 MSTORE DUP1 PUSH1 0x5 DUP2 MSTORE PUSH1 0x20 ADD PUSH32 0x352E302E30000000000000000000000000000000000000000000000000000000 DUP2 MSTORE POP DUP2 JUMP JUMPDEST PUSH0 SWAP1 JUMP JUMPDEST PUSH0 PUSH32 0x0 SWAP1 POP SWAP1 JUMP JUMPDEST PUSH2 0xDCA PUSH2 0x1312 JUMP JUMPDEST PUSH2 0xE18 DUP5 DUP5 DUP5 DUP5 DUP1 DUP1 PUSH1 0x1F ADD PUSH1 0x20 DUP1 SWAP2 DIV MUL PUSH1 0x20 ADD PUSH1 0x40 MLOAD SWAP1 DUP2 ADD PUSH1 0x40 MSTORE DUP1 SWAP4 SWAP3 SWAP2 SWAP1 DUP2 DUP2 MSTORE PUSH1 0x20 ADD DUP4 DUP4 DUP1 DUP3 DUP5 CALLDATACOPY PUSH0 DUP2 DUP5 ADD MSTORE PUSH1 0x1F NOT PUSH1 0x1F DUP3 ADD AND SWAP1 POP DUP1 DUP4 ADD SWAP3 POP POP POP POP POP POP POP PUSH2 0x1292 JUMP JUMPDEST POP POP POP POP JUMP JUMPDEST PUSH0 PUSH4 0xBC197C81 PUSH1 0xE0 SHL SWAP1 POP SWAP9 SWAP8 POP POP POP POP POP POP POP POP JUMP JUMPDEST PUSH0 PUSH2 0xE3E PUSH2 0xD9B JUMP JUMPDEST PUSH20 0xFFFFFFFFFFFFFFFFFFFFFFFFFFFFFFFFFFFFFFFF AND PUSH4 0x70A08231 ADDRESS PUSH1 0x40 MLOAD DUP3 PUSH4 0xFFFFFFFF AND PUSH1 0xE0 SHL DUP2 MSTORE PUSH1 0x4 ADD PUSH2 0xE76 SWAP2 SWAP1 PUSH2 0x2978 JUMP JUMPDEST PUSH1 0x20 PUSH1 0x40 MLOAD DUP1 DUP4 SUB DUP2 DUP7 GAS STATICCALL ISZERO DUP1 ISZERO PUSH2 0xE91 JUMPI RETURNDATASIZE PUSH0 PUSH0 RETURNDATACOPY RETURNDATASIZE PUSH0 REVERT JUMPDEST POP POP POP POP PUSH1 0x40 MLOAD RETURNDATASIZE PUSH1 0x1F NOT PUSH1 0x1F DUP3 ADD AND DUP3 ADD DUP1 PUSH1 0x40 MSTORE POP DUP2 ADD SWAP1 PUSH2 0xEB5 SWAP2 SWAP1 PUSH2 0x2EDD JUMP JUMPDEST SWAP1 POP SWAP1 JUMP JUMPDEST PUSH0 PUSH2 0xEC3 PUSH2 0x1901 JUMP JUMPDEST SWAP1 POP PUSH0 DUP2 PUSH0 ADD PUSH1 0x8 SWAP1 SLOAD SWAP1 PUSH2 0x100 EXP SWAP1 DIV PUSH1 0xFF AND ISZERO SWAP1 POP PUSH0 DUP3 PUSH0 ADD PUSH0 SWAP1 SLOAD SWAP1 PUSH2 0x100 EXP SWAP1 DIV PUSH8 0xFFFFFFFFFFFFFFFF AND SWAP1 POP PUSH0 PUSH0 DUP3 PUSH8 0xFFFFFFFFFFFFFFFF AND EQ DUP1 ISZERO PUSH2 0xF0B JUMPI POP DUP3 JUMPDEST SWAP1 POP PUSH0 PUSH1 0x1 DUP4 PUSH8 0xFFFFFFFFFFFFFFFF AND EQ DUP1 ISZERO PUSH2 0xF3E JUMPI POP PUSH0 ADDRESS PUSH20 0xFFFFFFFFFFFFFFFFFFFFFFFFFFFFFFFFFFFFFFFF AND EXTCODESIZE EQ JUMPDEST SWAP1 POP DUP2 ISZERO DUP1 ISZERO PUSH2 0xF4C JUMPI POP DUP1 ISZERO JUMPDEST ISZERO PUSH2 0xF83 JUMPI PUSH1 0x40 MLOAD PUSH32 0xF92EE8A900000000000000000000000000000000000000000000000000000000 DUP2 MSTORE PUSH1 0x4 ADD PUSH1 0x40 MLOAD DUP1 SWAP2 SUB SWAP1 REVERT JUMPDEST PUSH1 0x1 DUP6 PUSH0 ADD PUSH0 PUSH2 0x100 EXP DUP2 SLOAD DUP2 PUSH8 0xFFFFFFFFFFFFFFFF MUL NOT AND SWAP1 DUP4 PUSH8 0xFFFFFFFFFFFFFFFF AND MUL OR SWAP1 SSTORE POP DUP4 ISZERO PUSH2 0xFD0 JUMPI PUSH1 0x1 DUP6 PUSH0 ADD PUSH1 0x8 PUSH2 0x100 EXP DUP2 SLOAD DUP2 PUSH1 0xFF MUL NOT AND SWAP1 DUP4 ISZERO ISZERO MUL OR SWAP1 SSTORE POP JUMPDEST PUSH2 0xFD9 DUP7 PUSH2 0x1928 JUMP JUMPDEST DUP4 ISZERO PUSH2 0x1033 JUMPI PUSH0 DUP6 PUSH0 ADD PUSH1 0x8 PUSH2 0x100 EXP DUP2 SLOAD DUP2 PUSH1 0xFF MUL NOT AND SWAP1 DUP4 ISZERO ISZERO MUL OR SWAP1 SSTORE POP PUSH32 0xC7F505B2F371AE2175EE4913F4499E1F2633A7B5936321EED1CDAEB6115181D2 PUSH1 0x1 PUSH1 0x40 MLOAD PUSH2 0x102A SWAP2 SWAP1 PUSH2 0x2F41 JUMP JUMPDEST PUSH1 0x40 MLOAD DUP1 SWAP2 SUB SWAP1 LOG1 JUMPDEST POP POP POP POP POP POP JUMP JUMPDEST PUSH0 PUSH2 0x1044 PUSH2 0xD9B JUMP JUMPDEST PUSH20 0xFFFFFFFFFFFFFFFFFFFFFFFFFFFFFFFFFFFFFFFF AND PUSH4 0x35567E1A ADDRESS PUSH0 PUSH1 0x40 MLOAD DUP4 PUSH4 0xFFFFFFFF AND PUSH1 0xE0 SHL DUP2 MSTORE PUSH1 0x4 ADD PUSH2 0x107E SWAP3 SWAP2 SWAP1 PUSH2 0x2FB6 JUMP JUMPDEST PUSH1 0x20 PUSH1 0x40 MLOAD DUP1 DUP4 SUB DUP2 DUP7 GAS STATICCALL ISZERO DUP1 ISZERO PUSH2 0x1099 JUMPI RETURNDATASIZE PUSH0 PUSH0 RETURNDATACOPY RETURNDATASIZE PUSH0 REVERT JUMPDEST POP POP POP POP PUSH1 0x40 MLOAD RETURNDATASIZE PUSH1 0x1F NOT PUSH1 0x1F DUP3 ADD AND DUP3 ADD DUP1 PUSH1 0x40 MSTORE POP DUP2 ADD SWAP1 PUSH2 0x10BD SWAP2 SWAP1 PUSH2 0x2EDD JUMP JUMPDEST SWAP1 POP SWAP1 JUMP JUMPDEST PUSH0 SWAP1 JUMP JUMPDEST PUSH0 PUSH0 SWAP1 SLOAD SWAP1 PUSH2 0x100 EXP SWAP1 DIV PUSH20 0xFFFFFFFFFFFFFFFFFFFFFFFFFFFFFFFFFFFFFFFF AND DUP2 JUMP JUMPDEST PUSH0 PUSH4 0xF23A6E61 PUSH1 0xE0 SHL SWAP1 POP SWAP7 SWAP6 POP POP POP POP POP POP JUMP JUMPDEST PUSH1 0x1 PUSH0 SWAP1 SLOAD SWAP1 PUSH2 0x100 EXP SWAP1 DIV PUSH20 0xFFFFFFFFFFFFFFFFFFFFFFFFFFFFFFFFFFFFFFFF AND PUSH20 0xFFFFFFFFFFFFFFFFFFFFFFFFFFFFFFFFFFFFFFFF AND CALLER PUSH20 0xFFFFFFFFFFFFFFFFFFFFFFFFFFFFFFFFFFFFFFFF AND EQ PUSH2 0x1185 JUMPI PUSH1 0x40 MLOAD PUSH32 0xFB2541EA00000000000000000000000000000000000000000000000000000000 DUP2 MSTORE PUSH1 0x4 ADD PUSH1 0x40 MLOAD DUP1 SWAP2 SUB SWAP1 REVERT JUMPDEST PUSH2 0x1192 DUP6 DUP6 DUP6 DUP6 DUP6 PUSH2 0x1A06 JUMP JUMPDEST POP POP POP POP POP JUMP JUMPDEST PUSH1 0x40 MLOAD PUSH32 0xFF94113200000000000000000000000000000000000000000000000000000000 DUP2 MSTORE PUSH1 0x4 ADD PUSH1 0x40 MLOAD DUP1 SWAP2 SUB SWAP1 REVERT JUMPDEST PUSH1 0x2 PUSH0 SWAP1 SLOAD SWAP1 PUSH2 0x100 EXP SWAP1 DIV PUSH20 0xFFFFFFFFFFFFFFFFFFFFFFFFFFFFFFFFFFFFFFFF AND PUSH20 0xFFFFFFFFFFFFFFFFFFFFFFFFFFFFFFFFFFFFFFFF AND CALLER PUSH20 0xFFFFFFFFFFFFFFFFFFFFFFFFFFFFFFFFFFFFFFFF AND EQ DUP1 PUSH2 0x1251 JUMPI POP ADDRESS PUSH20 0xFFFFFFFFFFFFFFFFFFFFFFFFFFFFFFFFFFFFFFFF AND CALLER PUSH20 0xFFFFFFFFFFFFFFFFFFFFFFFFFFFFFFFFFFFFFFFF AND EQ JUMPDEST PUSH2 0x1290 JUMPI PUSH1 0x40 MLOAD PUSH32 0x8C379A000000000000000000000000000000000000000000000000000000000 DUP2 MSTORE PUSH1 0x4 ADD PUSH2 0x1287 SWAP1 PUSH2 0x3027 JUMP JUMPDEST PUSH1 0x40 MLOAD DUP1 SWAP2 SUB SWAP1 REVERT JUMPDEST JUMP JUMPDEST PUSH0 PUSH0 DUP5 PUSH20 0xFFFFFFFFFFFFFFFFFFFFFFFFFFFFFFFFFFFFFFFF AND DUP5 DUP5 PUSH1 0x40 MLOAD PUSH2 0x12BA SWAP2 SWAP1 PUSH2 0x3089 JUMP JUMPDEST PUSH0 PUSH1 0x40 MLOAD DUP1 DUP4 SUB DUP2 DUP6 DUP8 GAS CALL SWAP3 POP POP POP RETURNDATASIZE DUP1 PUSH0 DUP2 EQ PUSH2 0x12F4 JUMPI PUSH1 0x40 MLOAD SWAP2 POP PUSH1 0x1F NOT PUSH1 0x3F RETURNDATASIZE ADD AND DUP3 ADD PUSH1 0x40 MSTORE RETURNDATASIZE DUP3 MSTORE RETURNDATASIZE PUSH0 PUSH1 0x20 DUP5 ADD RETURNDATACOPY PUSH2 0x12F9 JUMP JUMPDEST PUSH1 0x60 SWAP2 POP JUMPDEST POP SWAP2 POP SWAP2 POP DUP2 PUSH2 0x130B JUMPI DUP1 MLOAD PUSH1 0x20 DUP3 ADD REVERT JUMPDEST POP POP POP POP POP JUMP JUMPDEST PUSH2 0x131A PUSH2 0xD9B JUMP JUMPDEST PUSH20 0xFFFFFFFFFFFFFFFFFFFFFFFFFFFFFFFFFFFFFFFF AND CALLER PUSH20 0xFFFFFFFFFFFFFFFFFFFFFFFFFFFFFFFFFFFFFFFF AND EQ DUP1 PUSH2 0x139F JUMPI POP PUSH1 0x2 PUSH0 SWAP1 SLOAD SWAP1 PUSH2 0x100 EXP SWAP1 DIV PUSH20 0xFFFFFFFFFFFFFFFFFFFFFFFFFFFFFFFFFFFFFFFF AND PUSH20 0xFFFFFFFFFFFFFFFFFFFFFFFFFFFFFFFFFFFFFFFF AND CALLER PUSH20 0xFFFFFFFFFFFFFFFFFFFFFFFFFFFFFFFFFFFFFFFF AND EQ JUMPDEST PUSH2 0x13DE JUMPI PUSH1 0x40 MLOAD PUSH32 0x8C379A000000000000000000000000000000000000000000000000000000000 DUP2 MSTORE PUSH1 0x4 ADD PUSH2 0x13D5 SWAP1 PUSH2 0x30E9 JUMP JUMPDEST PUSH1 0x40 MLOAD DUP1 SWAP2 SUB SWAP1 REVERT JUMPDEST JUMP JUMPDEST PUSH32 0x0 PUSH20 0xFFFFFFFFFFFFFFFFFFFFFFFFFFFFFFFFFFFFFFFF AND ADDRESS PUSH20 0xFFFFFFFFFFFFFFFFFFFFFFFFFFFFFFFFFFFFFFFF AND EQ DUP1 PUSH2 0x148D JUMPI POP PUSH32 0x0 PUSH20 0xFFFFFFFFFFFFFFFFFFFFFFFFFFFFFFFFFFFFFFFF AND PUSH2 0x1474 PUSH2 0x1A38 JUMP JUMPDEST PUSH20 0xFFFFFFFFFFFFFFFFFFFFFFFFFFFFFFFFFFFFFFFF AND EQ ISZERO JUMPDEST ISZERO PUSH2 0x14C4 JUMPI PUSH1 0x40 MLOAD PUSH32 0xE07C8DBA00000000000000000000000000000000000000000000000000000000 DUP2 MSTORE PUSH1 0x4 ADD PUSH1 0x40 MLOAD DUP1 SWAP2 SUB SWAP1 REVERT JUMPDEST JUMP JUMPDEST PUSH2 0x14CE PUSH2 0x11CB JUMP JUMPDEST POP JUMP JUMPDEST DUP2 PUSH20 0xFFFFFFFFFFFFFFFFFFFFFFFFFFFFFFFFFFFFFFFF AND PUSH4 0x52D1902D PUSH1 0x40 MLOAD DUP2 PUSH4 0xFFFFFFFF AND PUSH1 0xE0 SHL DUP2 MSTORE PUSH1 0x4 ADD PUSH1 0x20 PUSH1 0x40 MLOAD DUP1 DUP4 SUB DUP2 DUP7 GAS STATICCALL SWAP3 POP POP POP DUP1 ISZERO PUSH2 0x1539 JUMPI POP PUSH1 0x40 MLOAD RETURNDATASIZE PUSH1 0x1F NOT PUSH1 0x1F DUP3 ADD AND DUP3 ADD DUP1 PUSH1 0x40 MSTORE POP DUP2 ADD SWAP1 PUSH2 0x1536 SWAP2 SWAP1 PUSH2 0x311B JUMP JUMPDEST PUSH1 0x1 JUMPDEST PUSH2 0x157A JUMPI DUP2 PUSH1 0x40 MLOAD PUSH32 0x4C9C8CE300000000000000000000000000000000000000000000000000000000 DUP2 MSTORE PUSH1 0x4 ADD PUSH2 0x1571 SWAP2 SWAP1 PUSH2 0x2978 JUMP JUMPDEST PUSH1 0x40 MLOAD DUP1 SWAP2 SUB SWAP1 REVERT JUMPDEST PUSH32 0x360894A13BA1A3210667C828492DB98DCA3E2076CC3735A920A3CA505D382BBC PUSH0 SHL DUP2 EQ PUSH2 0x15E0 JUMPI DUP1 PUSH1 0x40 MLOAD PUSH32 0xAA1D49A400000000000000000000000000000000000000000000000000000000 DUP2 MSTORE PUSH1 0x4 ADD PUSH2 0x15D7 SWAP2 SWAP1 PUSH2 0x2827 JUMP JUMPDEST PUSH1 0x40 MLOAD DUP1 SWAP2 SUB SWAP1 REVERT JUMPDEST PUSH2 0x15EA DUP4 DUP4 PUSH2 0x1A8B JUMP JUMPDEST POP POP POP JUMP JUMPDEST PUSH32 0x0 PUSH20 0xFFFFFFFFFFFFFFFFFFFFFFFFFFFFFFFFFFFFFFFF AND ADDRESS PUSH20 0xFFFFFFFFFFFFFFFFFFFFFFFFFFFFFFFFFFFFFFFF AND EQ PUSH2 0x1674 JUMPI PUSH1 0x40 MLOAD PUSH32 0xE07C8DBA00000000000000000000000000000000000000000000000000000000 DUP2 MSTORE PUSH1 0x4 ADD PUSH1 0x40 MLOAD DUP1 SWAP2 SUB SWAP1 REVERT JUMPDEST JUMP JUMPDEST PUSH0 PUSH0 PUSH0 SWAP1 SLOAD SWAP1 PUSH2 0x100 EXP SWAP1 DIV PUSH20 0xFFFFFFFFFFFFFFFFFFFFFFFFFFFFFFFFFFFFFFFF AND PUSH20 0xFFFFFFFFFFFFFFFFFFFFFFFFFFFFFFFFFFFFFFFF AND PUSH4 0x85FDD542 DUP7 DUP7 DUP7 DUP7 PUSH1 0x40 MLOAD DUP6 PUSH4 0xFFFFFFFF AND PUSH1 0xE0 SHL DUP2 MSTORE PUSH1 0x4 ADD PUSH2 0x16D6 SWAP5 SWAP4 SWAP3 SWAP2 SWAP1 PUSH2 0x318E JUMP JUMPDEST PUSH1 0x20 PUSH1 0x40 MLOAD DUP1 DUP4 SUB DUP2 DUP7 GAS STATICCALL ISZERO DUP1 ISZERO PUSH2 0x16F1 JUMPI RETURNDATASIZE PUSH0 PUSH0 RETURNDATACOPY RETURNDATASIZE PUSH0 REVERT JUMPDEST POP POP POP POP PUSH1 0x40 MLOAD RETURNDATASIZE PUSH1 0x1F NOT PUSH1 0x1F DUP3 ADD AND DUP3 ADD DUP1 PUSH1 0x40 MSTORE POP DUP2 ADD SWAP1 PUSH2 0x1715 SWAP2 SWAP1 PUSH2 0x2EDD JUMP JUMPDEST SWAP1 POP SWAP5 SWAP4 POP POP POP POP JUMP JUMPDEST PUSH2 0x1727 PUSH2 0xD9B JUMP JUMPDEST PUSH20 0xFFFFFFFFFFFFFFFFFFFFFFFFFFFFFFFFFFFFFFFF AND CALLER PUSH20 0xFFFFFFFFFFFFFFFFFFFFFFFFFFFFFFFFFFFFFFFF AND EQ PUSH2 0x1794 JUMPI PUSH1 0x40 MLOAD PUSH32 0x8C379A000000000000000000000000000000000000000000000000000000000 DUP2 MSTORE PUSH1 0x4 ADD PUSH2 0x178B SWAP1 PUSH2 0x3229 JUMP JUMPDEST PUSH1 0x40 MLOAD DUP1 SWAP2 SUB SWAP1 REVERT JUMPDEST JUMP JUMPDEST PUSH0 PUSH0 PUSH2 0x17A1 DUP4 PUSH2 0x1AFD JUMP JUMPDEST SWAP1 POP PUSH2 0x17FF DUP2 DUP6 DUP1 PUSH2 0x120 ADD SWAP1 PUSH2 0x17B8 SWAP2 SWAP1 PUSH2 0x2E31 JUMP JUMPDEST DUP1 DUP1 PUSH1 0x1F ADD PUSH1 0x20 DUP1 SWAP2 DIV MUL PUSH1 0x20 ADD PUSH1 0x40 MLOAD SWAP1 DUP2 ADD PUSH1 0x40 MSTORE DUP1 SWAP4 SWAP3 SWAP2 SWAP1 DUP2 DUP2 MSTORE PUSH1 0x20 ADD DUP4 DUP4 DUP1 DUP3 DUP5 CALLDATACOPY PUSH0 DUP2 DUP5 ADD MSTORE PUSH1 0x1F NOT PUSH1 0x1F DUP3 ADD AND SWAP1 POP DUP1 DUP4 ADD SWAP3 POP POP POP POP POP POP POP PUSH2 0x1B30 JUMP JUMPDEST PUSH20 0xFFFFFFFFFFFFFFFFFFFFFFFFFFFFFFFFFFFFFFFF AND PUSH1 0x2 PUSH0 SWAP1 SLOAD SWAP1 PUSH2 0x100 EXP SWAP1 DIV PUSH20 0xFFFFFFFFFFFFFFFFFFFFFFFFFFFFFFFFFFFFFFFF AND PUSH20 0xFFFFFFFFFFFFFFFFFFFFFFFFFFFFFFFFFFFFFFFF AND EQ PUSH2 0x185C JUMPI PUSH1 0x1 SWAP2 POP POP PUSH2 0x1861 JUMP JUMPDEST PUSH0 SWAP2 POP POP JUMPDEST SWAP3 SWAP2 POP POP JUMP JUMPDEST POP JUMP JUMPDEST PUSH0 DUP2 EQ PUSH2 0x18FE JUMPI PUSH0 CALLER PUSH20 0xFFFFFFFFFFFFFFFFFFFFFFFFFFFFFFFFFFFFFFFF AND DUP3 PUSH32 0xFFFFFFFFFFFFFFFFFFFFFFFFFFFFFFFFFFFFFFFFFFFFFFFFFFFFFFFFFFFFFFFF SWAP1 PUSH1 0x40 MLOAD PUSH2 0x18B8 SWAP1 PUSH2 0x326A JUMP JUMPDEST PUSH0 PUSH1 0x40 MLOAD DUP1 DUP4 SUB DUP2 DUP6 DUP9 DUP9 CALL SWAP4 POP POP POP POP RETURNDATASIZE DUP1 PUSH0 DUP2 EQ PUSH2 0x18F3 JUMPI PUSH1 0x40 MLOAD SWAP2 POP PUSH1 0x1F NOT PUSH1 0x3F RETURNDATASIZE ADD AND DUP3 ADD PUSH1 0x40 MSTORE RETURNDATASIZE DUP3 MSTORE RETURNDATASIZE PUSH0 PUSH1 0x20 DUP5 ADD RETURNDATACOPY PUSH2 0x18F8 JUMP JUMPDEST PUSH1 0x60 SWAP2 POP JUMPDEST POP POP SWAP1 POP POP JUMPDEST POP JUMP JUMPDEST PUSH0 PUSH32 0xF0C57E16840DF040F15088DC2F81FE391C3923BEC73E23A9662EFC9C229C6A00 SWAP1 POP SWAP1 JUMP JUMPDEST DUP1 PUSH1 0x2 PUSH0 PUSH2 0x100 EXP DUP2 SLOAD DUP2 PUSH20 0xFFFFFFFFFFFFFFFFFFFFFFFFFFFFFFFFFFFFFFFF MUL NOT AND SWAP1 DUP4 PUSH20 0xFFFFFFFFFFFFFFFFFFFFFFFFFFFFFFFFFFFFFFFF AND MUL OR SWAP1 SSTORE POP PUSH1 0x2 PUSH0 SWAP1 SLOAD SWAP1 PUSH2 0x100 EXP SWAP1 DIV PUSH20 0xFFFFFFFFFFFFFFFFFFFFFFFFFFFFFFFFFFFFFFFF AND PUSH20 0xFFFFFFFFFFFFFFFFFFFFFFFFFFFFFFFFFFFFFFFF AND PUSH32 0x0 PUSH20 0xFFFFFFFFFFFFFFFFFFFFFFFFFFFFFFFFFFFFFFFF AND PUSH32 0xF75CE79A4ABCC8ED48F3B3544CD773DD667599027B50A42FF4BBF68F1A65E7B0 PUSH1 0x40 MLOAD PUSH1 0x40 MLOAD DUP1 SWAP2 SUB SWAP1 LOG3 POP JUMP JUMPDEST PUSH1 0x40 MLOAD PUSH32 0xFF94113200000000000000000000000000000000000000000000000000000000 DUP2 MSTORE PUSH1 0x4 ADD PUSH1 0x40 MLOAD DUP1 SWAP2 SUB SWAP1 REVERT JUMPDEST PUSH0 PUSH2 0x1A64 PUSH32 0x360894A13BA1A3210667C828492DB98DCA3E2076CC3735A920A3CA505D382BBC PUSH0 SHL PUSH2 0x1B5A JUMP JUMPDEST PUSH0 ADD PUSH0 SWAP1 SLOAD SWAP1 PUSH2 0x100 EXP SWAP1 DIV PUSH20 0xFFFFFFFFFFFFFFFFFFFFFFFFFFFFFFFFFFFFFFFF AND SWAP1 POP SWAP1 JUMP JUMPDEST PUSH2 0x1A94 DUP3 PUSH2 0x1B63 JUMP JUMPDEST DUP2 PUSH20 0xFFFFFFFFFFFFFFFFFFFFFFFFFFFFFFFFFFFFFFFF AND PUSH32 0xBC7CD75A20EE27FD9ADEBAB32041F755214DBC6BFFA90CC0225B39DA2E5C2D3B PUSH1 0x40 MLOAD PUSH1 0x40 MLOAD DUP1 SWAP2 SUB SWAP1 LOG2 PUSH0 DUP2 MLOAD GT ISZERO PUSH2 0x1AF0 JUMPI PUSH2 0x1AEA DUP3 DUP3 PUSH2 0x1C2C JUMP JUMPDEST POP PUSH2 0x1AF9 JUMP JUMPDEST PUSH2 0x1AF8 PUSH2 0x1CAC JUMP JUMPDEST JUMPDEST POP POP JUMP JUMPDEST PUSH0 PUSH32 0x19457468657265756D205369676E6564204D6573736167653A0A333200000000 PUSH0 MSTORE DUP2 PUSH1 0x1C MSTORE PUSH1 0x3C PUSH0 KECCAK256 SWAP1 POP SWAP2 SWAP1 POP JUMP JUMPDEST PUSH0 PUSH0 PUSH0 PUSH0 PUSH2 0x1B3E DUP7 DUP7 PUSH2 0x1CE8 JUMP JUMPDEST SWAP3 POP SWAP3 POP SWAP3 POP PUSH2 0x1B4E DUP3 DUP3 PUSH2 0x1D3D JUMP JUMPDEST DUP3 SWAP4 POP POP POP POP SWAP3 SWAP2 POP POP JUMP JUMPDEST PUSH0 DUP2 SWAP1 POP SWAP2 SWAP1 POP JUMP JUMPDEST PUSH0 DUP2 PUSH20 0xFFFFFFFFFFFFFFFFFFFFFFFFFFFFFFFFFFFFFFFF AND EXTCODESIZE SUB PUSH2 0x1BBE JUMPI DUP1 PUSH1 0x40 MLOAD PUSH32 0x4C9C8CE300000000000000000000000000000000000000000000000000000000 DUP2 MSTORE PUSH1 0x4 ADD PUSH2 0x1BB5 SWAP2 SWAP1 PUSH2 0x2978 JUMP JUMPDEST PUSH1 0x40 MLOAD DUP1 SWAP2 SUB SWAP1 REVERT JUMPDEST DUP1 PUSH2 0x1BEA PUSH32 0x360894A13BA1A3210667C828492DB98DCA3E2076CC3735A920A3CA505D382BBC PUSH0 SHL PUSH2 0x1B5A JUMP JUMPDEST PUSH0 ADD PUSH0 PUSH2 0x100 EXP DUP2 SLOAD DUP2 PUSH20 0xFFFFFFFFFFFFFFFFFFFFFFFFFFFFFFFFFFFFFFFF MUL NOT AND SWAP1 DUP4 PUSH20 0xFFFFFFFFFFFFFFFFFFFFFFFFFFFFFFFFFFFFFFFF AND MUL OR SWAP1 SSTORE POP POP JUMP JUMPDEST PUSH1 0x60 PUSH0 PUSH0 DUP5 PUSH20 0xFFFFFFFFFFFFFFFFFFFFFFFFFFFFFFFFFFFFFFFF AND DUP5 PUSH1 0x40 MLOAD PUSH2 0x1C55 SWAP2 SWAP1 PUSH2 0x3089 JUMP JUMPDEST PUSH0 PUSH1 0x40 MLOAD DUP1 DUP4 SUB DUP2 DUP6 GAS DELEGATECALL SWAP2 POP POP RETURNDATASIZE DUP1 PUSH0 DUP2 EQ PUSH2 0x1C8D JUMPI PUSH1 0x40 MLOAD SWAP2 POP PUSH1 0x1F NOT PUSH1 0x3F RETURNDATASIZE ADD AND DUP3 ADD PUSH1 0x40 MSTORE RETURNDATASIZE DUP3 MSTORE RETURNDATASIZE PUSH0 PUSH1 0x20 DUP5 ADD RETURNDATACOPY PUSH2 0x1C92 JUMP JUMPDEST PUSH1 0x60 SWAP2 POP JUMPDEST POP SWAP2 POP SWAP2 POP PUSH2 0x1CA2 DUP6 DUP4 DUP4 PUSH2 0x1E9F JUMP JUMPDEST SWAP3 POP POP POP SWAP3 SWAP2 POP POP JUMP JUMPDEST PUSH0 CALLVALUE GT ISZERO PUSH2 0x1CE6 JUMPI PUSH1 0x40 MLOAD PUSH32 0xB398979F00000000000000000000000000000000000000000000000000000000 DUP2 MSTORE PUSH1 0x4 ADD PUSH1 0x40 MLOAD DUP1 SWAP2 SUB SWAP1 REVERT JUMPDEST JUMP JUMPDEST PUSH0 PUSH0 PUSH0 PUSH1 0x41 DUP5 MLOAD SUB PUSH2 0x1D28 JUMPI PUSH0 PUSH0 PUSH0 PUSH1 0x20 DUP8 ADD MLOAD SWAP3 POP PUSH1 0x40 DUP8 ADD MLOAD SWAP2 POP PUSH1 0x60 DUP8 ADD MLOAD PUSH0 BYTE SWAP1 POP PUSH2 0x1D1A DUP9 DUP3 DUP6 DUP6 PUSH2 0x1F2C JUMP JUMPDEST SWAP6 POP SWAP6 POP SWAP6 POP POP POP POP PUSH2 0x1D36 JUMP JUMPDEST PUSH0 PUSH1 0x2 DUP6 MLOAD PUSH0 SHL SWAP3 POP SWAP3 POP SWAP3 POP JUMPDEST SWAP3 POP SWAP3 POP SWAP3 JUMP JUMPDEST PUSH0 PUSH1 0x3 DUP2 GT ISZERO PUSH2 0x1D50 JUMPI PUSH2 0x1D4F PUSH2 0x327E JUMP JUMPDEST JUMPDEST DUP3 PUSH1 0x3 DUP2 GT ISZERO PUSH2 0x1D63 JUMPI PUSH2 0x1D62 PUSH2 0x327E JUMP JUMPDEST JUMPDEST SUB ISZERO PUSH2 0x1E9B JUMPI PUSH1 0x1 PUSH1 0x3 DUP2 GT ISZERO PUSH2 0x1D7D JUMPI PUSH2 0x1D7C PUSH2 0x327E JUMP JUMPDEST JUMPDEST DUP3 PUSH1 0x3 DUP2 GT ISZERO PUSH2 0x1D90 JUMPI PUSH2 0x1D8F PUSH2 0x327E JUMP JUMPDEST JUMPDEST SUB PUSH2 0x1DC7 JUMPI PUSH1 0x40 MLOAD PUSH32 0xF645EEDF00000000000000000000000000000000000000000000000000000000 DUP2 MSTORE PUSH1 0x4 ADD PUSH1 0x40 MLOAD DUP1 SWAP2 SUB SWAP1 REVERT JUMPDEST PUSH1 0x2 PUSH1 0x3 DUP2 GT ISZERO PUSH2 0x1DDB JUMPI PUSH2 0x1DDA PUSH2 0x327E JUMP JUMPDEST JUMPDEST DUP3 PUSH1 0x3 DUP2 GT ISZERO PUSH2 0x1DEE JUMPI PUSH2 0x1DED PUSH2 0x327E JUMP JUMPDEST JUMPDEST SUB PUSH2 0x1E32 JUMPI DUP1 PUSH0 SHR PUSH1 0x40 MLOAD PUSH32 0xFCE698F700000000000000000000000000000000000000000000000000000000 DUP2 MSTORE PUSH1 0x4 ADD PUSH2 0x1E29 SWAP2 SWAP1 PUSH2 0x2950 JUMP JUMPDEST PUSH1 0x40 MLOAD DUP1 SWAP2 SUB SWAP1 REVERT JUMPDEST PUSH1 0x3 DUP1 DUP2 GT ISZERO PUSH2 0x1E45 JUMPI PUSH2 0x1E44 PUSH2 0x327E JUMP JUMPDEST JUMPDEST DUP3 PUSH1 0x3 DUP2 GT ISZERO PUSH2 0x1E58 JUMPI PUSH2 0x1E57 PUSH2 0x327E JUMP JUMPDEST JUMPDEST SUB PUSH2 0x1E9A JUMPI DUP1 PUSH1 0x40 MLOAD PUSH32 0xD78BCE0C00000000000000000000000000000000000000000000000000000000 DUP2 MSTORE PUSH1 0x4 ADD PUSH2 0x1E91 SWAP2 SWAP1 PUSH2 0x2827 JUMP JUMPDEST PUSH1 0x40 MLOAD DUP1 SWAP2 SUB SWAP1 REVERT JUMPDEST JUMPDEST POP POP JUMP JUMPDEST PUSH1 0x60 DUP3 PUSH2 0x1EB4 JUMPI PUSH2 0x1EAF DUP3 PUSH2 0x2013 JUMP JUMPDEST PUSH2 0x1F24 JUMP JUMPDEST PUSH0 DUP3 MLOAD EQ DUP1 ISZERO PUSH2 0x1EDA JUMPI POP PUSH0 DUP5 PUSH20 0xFFFFFFFFFFFFFFFFFFFFFFFFFFFFFFFFFFFFFFFF AND EXTCODESIZE EQ JUMPDEST ISZERO PUSH2 0x1F1C JUMPI DUP4 PUSH1 0x40 MLOAD PUSH32 0x9996B31500000000000000000000000000000000000000000000000000000000 DUP2 MSTORE PUSH1 0x4 ADD PUSH2 0x1F13 SWAP2 SWAP1 PUSH2 0x2978 JUMP JUMPDEST PUSH1 0x40 MLOAD DUP1 SWAP2 SUB SWAP1 REVERT JUMPDEST DUP2 SWAP1 POP PUSH2 0x1F25 JUMP JUMPDEST JUMPDEST SWAP4 SWAP3 POP POP POP JUMP JUMPDEST PUSH0 PUSH0 PUSH0 PUSH32 0x7FFFFFFFFFFFFFFFFFFFFFFFFFFFFFFF5D576E7357A4501DDFE92F46681B20A0 DUP5 PUSH0 SHR GT ISZERO PUSH2 0x1F68 JUMPI PUSH0 PUSH1 0x3 DUP6 SWAP3 POP SWAP3 POP SWAP3 POP PUSH2 0x2009 JUMP JUMPDEST PUSH0 PUSH1 0x1 DUP9 DUP9 DUP9 DUP9 PUSH1 0x40 MLOAD PUSH0 DUP2 MSTORE PUSH1 0x20 ADD PUSH1 0x40 MSTORE PUSH1 0x40 MLOAD PUSH2 0x1F8B SWAP5 SWAP4 SWAP3 SWAP2 SWAP1 PUSH2 0x32C6 JUMP JUMPDEST PUSH1 0x20 PUSH1 0x40 MLOAD PUSH1 0x20 DUP2 SUB SWAP1 DUP1 DUP5 SUB SWAP1 DUP6 GAS STATICCALL ISZERO DUP1 ISZERO PUSH2 0x1FAB JUMPI RETURNDATASIZE PUSH0 PUSH0 RETURNDATACOPY RETURNDATASIZE PUSH0 REVERT JUMPDEST POP POP POP PUSH1 0x20 PUSH1 0x40 MLOAD SUB MLOAD SWAP1 POP PUSH0 PUSH20 0xFFFFFFFFFFFFFFFFFFFFFFFFFFFFFFFFFFFFFFFF AND DUP2 PUSH20 0xFFFFFFFFFFFFFFFFFFFFFFFFFFFFFFFFFFFFFFFF AND SUB PUSH2 0x1FFC JUMPI PUSH0 PUSH1 0x1 PUSH0 PUSH0 SHL SWAP4 POP SWAP4 POP SWAP4 POP POP PUSH2 0x2009 JUMP JUMPDEST DUP1 PUSH0 PUSH0 PUSH0 SHL SWAP4 POP SWAP4 POP SWAP4 POP POP JUMPDEST SWAP5 POP SWAP5 POP SWAP5 SWAP2 POP POP JUMP JUMPDEST PUSH0 DUP2 MLOAD GT ISZERO PUSH2 0x2025 JUMPI DUP1 MLOAD DUP1 DUP3 PUSH1 0x20 ADD REVERT JUMPDEST PUSH1 0x40 MLOAD PUSH32 0xD6BDA27500000000000000000000000000000000000000000000000000000000 DUP2 MSTORE PUSH1 0x4 ADD PUSH1 0x40 MLOAD DUP1 SWAP2 SUB SWAP1 REVERT JUMPDEST PUSH0 PUSH1 0x40 MLOAD SWAP1 POP SWAP1 JUMP JUMPDEST PUSH0 PUSH0 REVERT JUMPDEST PUSH0 PUSH0 REVERT JUMPDEST PUSH0 PUSH8 0xFFFFFFFFFFFFFFFF DUP3 AND SWAP1 POP SWAP2 SWAP1 POP JUMP JUMPDEST PUSH2 0x2084 DUP2 PUSH2 0x2068 JUMP JUMPDEST DUP2 EQ PUSH2 0x208E JUMPI PUSH0 PUSH0 REVERT JUMPDEST POP JUMP JUMPDEST PUSH0 DUP2 CALLDATALOAD SWAP1 POP PUSH2 0x209F DUP2 PUSH2 0x207B JUMP JUMPDEST SWAP3 SWAP2 POP POP JUMP JUMPDEST PUSH0 DUP2 SWAP1 POP SWAP2 SWAP1 POP JUMP JUMPDEST PUSH2 0x20B7 DUP2 PUSH2 0x20A5 JUMP JUMPDEST DUP2 EQ PUSH2 0x20C1 JUMPI PUSH0 PUSH0 REVERT JUMPDEST POP JUMP JUMPDEST PUSH0 DUP2 CALLDATALOAD SWAP1 POP PUSH2 0x20D2 DUP2 PUSH2 0x20AE JUMP JUMPDEST SWAP3 SWAP2 POP POP JUMP JUMPDEST PUSH0 PUSH0 REVERT JUMPDEST PUSH0 PUSH0 REVERT JUMPDEST PUSH0 PUSH0 REVERT JUMPDEST PUSH0 PUSH0 DUP4 PUSH1 0x1F DUP5 ADD SLT PUSH2 0x20F9 JUMPI PUSH2 0x20F8 PUSH2 0x20D8 JUMP JUMPDEST JUMPDEST DUP3 CALLDATALOAD SWAP1 POP PUSH8 0xFFFFFFFFFFFFFFFF DUP2 GT ISZERO PUSH2 0x2116 JUMPI PUSH2 0x2115 PUSH2 0x20DC JUMP JUMPDEST JUMPDEST PUSH1 0x20 DUP4 ADD SWAP2 POP DUP4 PUSH1 0x1 DUP3 MUL DUP4 ADD GT ISZERO PUSH2 0x2132 JUMPI PUSH2 0x2131 PUSH2 0x20E0 JUMP JUMPDEST JUMPDEST SWAP3 POP SWAP3 SWAP1 POP JUMP JUMPDEST PUSH0 PUSH0 PUSH0 PUSH0 PUSH1 0x60 DUP6 DUP8 SUB SLT ISZERO PUSH2 0x2151 JUMPI PUSH2 0x2150 PUSH2 0x2060 JUMP JUMPDEST JUMPDEST PUSH0 PUSH2 0x215E DUP8 DUP3 DUP9 ADD PUSH2 0x2091 JUMP JUMPDEST SWAP5 POP POP PUSH1 0x20 PUSH2 0x216F DUP8 DUP3 DUP9 ADD PUSH2 0x20C4 JUMP JUMPDEST SWAP4 POP POP PUSH1 0x40 DUP6 ADD CALLDATALOAD PUSH8 0xFFFFFFFFFFFFFFFF DUP2 GT ISZERO PUSH2 0x2190 JUMPI PUSH2 0x218F PUSH2 0x2064 JUMP JUMPDEST JUMPDEST PUSH2 0x219C DUP8 DUP3 DUP9 ADD PUSH2 0x20E4 JUMP JUMPDEST SWAP3 POP SWAP3 POP POP SWAP3 SWAP6 SWAP2 SWAP5 POP SWAP3 POP JUMP JUMPDEST PUSH0 PUSH32 0xFFFFFFFF00000000000000000000000000000000000000000000000000000000 DUP3 AND SWAP1 POP SWAP2 SWAP1 POP JUMP JUMPDEST PUSH2 0x21DE DUP2 PUSH2 0x21AA JUMP JUMPDEST DUP2 EQ PUSH2 0x21E8 JUMPI PUSH0 PUSH0 REVERT JUMPDEST POP JUMP JUMPDEST PUSH0 DUP2 CALLDATALOAD SWAP1 POP PUSH2 0x21F9 DUP2 PUSH2 0x21D5 JUMP JUMPDEST SWAP3 SWAP2 POP POP JUMP JUMPDEST PUSH0 PUSH1 0x20 DUP3 DUP5 SUB SLT ISZERO PUSH2 0x2214 JUMPI PUSH2 0x2213 PUSH2 0x2060 JUMP JUMPDEST JUMPDEST PUSH0 PUSH2 0x2221 DUP5 DUP3 DUP6 ADD PUSH2 0x21EB JUMP JUMPDEST SWAP2 POP POP SWAP3 SWAP2 POP POP JUMP JUMPDEST PUSH0 DUP2 ISZERO ISZERO SWAP1 POP SWAP2 SWAP1 POP JUMP JUMPDEST PUSH2 0x223E DUP2 PUSH2 0x222A JUMP JUMPDEST DUP3 MSTORE POP POP JUMP JUMPDEST PUSH0 PUSH1 0x20 DUP3 ADD SWAP1 POP PUSH2 0x2257 PUSH0 DUP4 ADD DUP5 PUSH2 0x2235 JUMP JUMPDEST SWAP3 SWAP2 POP POP JUMP JUMPDEST PUSH0 PUSH20 0xFFFFFFFFFFFFFFFFFFFFFFFFFFFFFFFFFFFFFFFF DUP3 AND SWAP1 POP SWAP2 SWAP1 POP JUMP JUMPDEST PUSH0 DUP2 SWAP1 POP SWAP2 SWAP1 POP JUMP JUMPDEST PUSH0 PUSH2 0x229F PUSH2 0x229A PUSH2 0x2295 DUP5 PUSH2 0x225D JUMP JUMPDEST PUSH2 0x227C JUMP JUMPDEST PUSH2 0x225D JUMP JUMPDEST SWAP1 POP SWAP2 SWAP1 POP JUMP JUMPDEST PUSH0 PUSH2 0x22B0 DUP3 PUSH2 0x2285 JUMP JUMPDEST SWAP1 POP SWAP2 SWAP1 POP JUMP JUMPDEST PUSH0 PUSH2 0x22C1 DUP3 PUSH2 0x22A6 JUMP JUMPDEST SWAP1 POP SWAP2 SWAP1 POP JUMP JUMPDEST PUSH2 0x22D1 DUP2 PUSH2 0x22B7 JUMP JUMPDEST DUP3 MSTORE POP POP JUMP JUMPDEST PUSH0 PUSH1 0x20 DUP3 ADD SWAP1 POP PUSH2 0x22EA PUSH0 DUP4 ADD DUP5 PUSH2 0x22C8 JUMP JUMPDEST SWAP3 SWAP2 POP POP JUMP JUMPDEST PUSH0 PUSH2 0x22FA DUP3 PUSH2 0x225D JUMP JUMPDEST SWAP1 POP SWAP2 SWAP1 POP JUMP JUMPDEST PUSH2 0x230A DUP2 PUSH2 0x22F0 JUMP JUMPDEST DUP2 EQ PUSH2 0x2314 JUMPI PUSH0 PUSH0 REVERT JUMPDEST POP JUMP JUMPDEST PUSH0 DUP2 CALLDATALOAD SWAP1 POP PUSH2 0x2325 DUP2 PUSH2 0x2301 JUMP JUMPDEST SWAP3 SWAP2 POP POP JUMP JUMPDEST PUSH0 PUSH0 PUSH0 PUSH0 PUSH0 PUSH1 0x80 DUP7 DUP9 SUB SLT ISZERO PUSH2 0x2344 JUMPI PUSH2 0x2343 PUSH2 0x2060 JUMP JUMPDEST JUMPDEST PUSH0 PUSH2 0x2351 DUP9 DUP3 DUP10 ADD PUSH2 0x2317 JUMP JUMPDEST SWAP6 POP POP PUSH1 0x20 PUSH2 0x2362 DUP9 DUP3 DUP10 ADD PUSH2 0x2317 JUMP JUMPDEST SWAP5 POP POP PUSH1 0x40 PUSH2 0x2373 DUP9 DUP3 DUP10 ADD PUSH2 0x20C4 JUMP JUMPDEST SWAP4 POP POP PUSH1 0x60 DUP7 ADD CALLDATALOAD PUSH8 0xFFFFFFFFFFFFFFFF DUP2 GT ISZERO PUSH2 0x2394 JUMPI PUSH2 0x2393 PUSH2 0x2064 JUMP JUMPDEST JUMPDEST PUSH2 0x23A0 DUP9 DUP3 DUP10 ADD PUSH2 0x20E4 JUMP JUMPDEST SWAP3 POP SWAP3 POP POP SWAP3 SWAP6 POP SWAP3 SWAP6 SWAP1 SWAP4 POP JUMP JUMPDEST PUSH2 0x23B8 DUP2 PUSH2 0x21AA JUMP JUMPDEST DUP3 MSTORE POP POP JUMP JUMPDEST PUSH0 PUSH1 0x20 DUP3 ADD SWAP1 POP PUSH2 0x23D1 PUSH0 DUP4 ADD DUP5 PUSH2 0x23AF JUMP JUMPDEST SWAP3 SWAP2 POP POP JUMP JUMPDEST PUSH0 PUSH1 0x20 DUP3 DUP5 SUB SLT ISZERO PUSH2 0x23EC JUMPI PUSH2 0x23EB PUSH2 0x2060 JUMP JUMPDEST JUMPDEST PUSH0 PUSH2 0x23F9 DUP5 DUP3 DUP6 ADD PUSH2 0x20C4 JUMP JUMPDEST SWAP2 POP POP SWAP3 SWAP2 POP POP JUMP JUMPDEST PUSH0 PUSH32 0xFF00000000000000000000000000000000000000000000000000000000000000 DUP3 AND SWAP1 POP SWAP2 SWAP1 POP JUMP JUMPDEST PUSH2 0x2436 DUP2 PUSH2 0x2402 JUMP JUMPDEST DUP3 MSTORE POP POP JUMP JUMPDEST PUSH0 PUSH1 0x20 DUP3 ADD SWAP1 POP PUSH2 0x244F PUSH0 DUP4 ADD DUP5 PUSH2 0x242D JUMP JUMPDEST SWAP3 SWAP2 POP POP JUMP JUMPDEST PUSH0 PUSH0 DUP4 PUSH1 0x1F DUP5 ADD SLT PUSH2 0x246A JUMPI PUSH2 0x2469 PUSH2 0x20D8 JUMP JUMPDEST JUMPDEST DUP3 CALLDATALOAD SWAP1 POP PUSH8 0xFFFFFFFFFFFFFFFF DUP2 GT ISZERO PUSH2 0x2487 JUMPI PUSH2 0x2486 PUSH2 0x20DC JUMP JUMPDEST JUMPDEST PUSH1 0x20 DUP4 ADD SWAP2 POP DUP4 PUSH1 0x20 DUP3 MUL DUP4 ADD GT ISZERO PUSH2 0x24A3 JUMPI PUSH2 0x24A2 PUSH2 0x20E0 JUMP JUMPDEST JUMPDEST SWAP3 POP SWAP3 SWAP1 POP JUMP JUMPDEST PUSH0 PUSH0 DUP4 PUSH1 0x1F DUP5 ADD SLT PUSH2 0x24BF JUMPI PUSH2 0x24BE PUSH2 0x20D8 JUMP JUMPDEST JUMPDEST DUP3 CALLDATALOAD SWAP1 POP PUSH8 0xFFFFFFFFFFFFFFFF DUP2 GT ISZERO PUSH2 0x24DC JUMPI PUSH2 0x24DB PUSH2 0x20DC JUMP JUMPDEST JUMPDEST PUSH1 0x20 DUP4 ADD SWAP2 POP DUP4 PUSH1 0x20 DUP3 MUL DUP4 ADD GT ISZERO PUSH2 0x24F8 JUMPI PUSH2 0x24F7 PUSH2 0x20E0 JUMP JUMPDEST JUMPDEST SWAP3 POP SWAP3 SWAP1 POP JUMP JUMPDEST PUSH0 PUSH0 DUP4 PUSH1 0x1F DUP5 ADD SLT PUSH2 0x2514 JUMPI PUSH2 0x2513 PUSH2 0x20D8 JUMP JUMPDEST JUMPDEST DUP3 CALLDATALOAD SWAP1 POP PUSH8 0xFFFFFFFFFFFFFFFF DUP2 GT ISZERO PUSH2 0x2531 JUMPI PUSH2 0x2530 PUSH2 0x20DC JUMP JUMPDEST JUMPDEST PUSH1 0x20 DUP4 ADD SWAP2 POP DUP4 PUSH1 0x20 DUP3 MUL DUP4 ADD GT ISZERO PUSH2 0x254D JUMPI PUSH2 0x254C PUSH2 0x20E0 JUMP JUMPDEST JUMPDEST SWAP3 POP SWAP3 SWAP1 POP JUMP JUMPDEST PUSH0 PUSH0 PUSH0 PUSH0 PUSH0 PUSH0 PUSH1 0x60 DUP8 DUP10 SUB SLT ISZERO PUSH2 0x256E JUMPI PUSH2 0x256D PUSH2 0x2060 JUMP JUMPDEST JUMPDEST PUSH0 DUP8 ADD CALLDATALOAD PUSH8 0xFFFFFFFFFFFFFFFF DUP2 GT ISZERO PUSH2 0x258B JUMPI PUSH2 0x258A PUSH2 0x2064 JUMP JUMPDEST JUMPDEST PUSH2 0x2597 DUP10 DUP3 DUP11 ADD PUSH2 0x2455 JUMP JUMPDEST SWAP7 POP SWAP7 POP POP PUSH1 0x20 DUP8 ADD CALLDATALOAD PUSH8 0xFFFFFFFFFFFFFFFF DUP2 GT ISZERO PUSH2 0x25BA JUMPI PUSH2 0x25B9 PUSH2 0x2064 JUMP JUMPDEST JUMPDEST PUSH2 0x25C6 DUP10 DUP3 DUP11 ADD PUSH2 0x24AA JUMP JUMPDEST SWAP5 POP SWAP5 POP POP PUSH1 0x40 DUP8 ADD CALLDATALOAD PUSH8 0xFFFFFFFFFFFFFFFF DUP2 GT ISZERO PUSH2 0x25E9 JUMPI PUSH2 0x25E8 PUSH2 0x2064 JUMP JUMPDEST JUMPDEST PUSH2 0x25F5 DUP10 DUP3 DUP11 ADD PUSH2 0x24FF JUMP JUMPDEST SWAP3 POP SWAP3 POP POP SWAP3 SWAP6 POP SWAP3 SWAP6 POP SWAP3 SWAP6 JUMP JUMPDEST PUSH0 PUSH2 0x260E DUP3 PUSH2 0x225D JUMP JUMPDEST SWAP1 POP SWAP2 SWAP1 POP JUMP JUMPDEST PUSH2 0x261E DUP2 PUSH2 0x2604 JUMP JUMPDEST DUP2 EQ PUSH2 0x2628 JUMPI PUSH0 PUSH0 REVERT JUMPDEST POP JUMP JUMPDEST PUSH0 DUP2 CALLDATALOAD SWAP1 POP PUSH2 0x2639 DUP2 PUSH2 0x2615 JUMP JUMPDEST SWAP3 SWAP2 POP POP JUMP JUMPDEST PUSH0 PUSH0 PUSH1 0x40 DUP4 DUP6 SUB SLT ISZERO PUSH2 0x2655 JUMPI PUSH2 0x2654 PUSH2 0x2060 JUMP JUMPDEST JUMPDEST PUSH0 PUSH2 0x2662 DUP6 DUP3 DUP7 ADD PUSH2 0x262B JUMP JUMPDEST SWAP3 POP POP PUSH1 0x20 PUSH2 0x2673 DUP6 DUP3 DUP7 ADD PUSH2 0x20C4 JUMP JUMPDEST SWAP2 POP POP SWAP3 POP SWAP3 SWAP1 POP JUMP JUMPDEST PUSH0 PUSH0 REVERT JUMPDEST PUSH0 PUSH1 0x1F NOT PUSH1 0x1F DUP4 ADD AND SWAP1 POP SWAP2 SWAP1 POP JUMP JUMPDEST PUSH32 0x4E487B7100000000000000000000000000000000000000000000000000000000 PUSH0 MSTORE PUSH1 0x41 PUSH1 0x4 MSTORE PUSH1 0x24 PUSH0 REVERT JUMPDEST PUSH2 0x26C7 DUP3 PUSH2 0x2681 JUMP JUMPDEST DUP2 ADD DUP2 DUP2 LT PUSH8 0xFFFFFFFFFFFFFFFF DUP3 GT OR ISZERO PUSH2 0x26E6 JUMPI PUSH2 0x26E5 PUSH2 0x2691 JUMP JUMPDEST JUMPDEST DUP1 PUSH1 0x40 MSTORE POP POP POP JUMP JUMPDEST PUSH0 PUSH2 0x26F8 PUSH2 0x2057 JUMP JUMPDEST SWAP1 POP PUSH2 0x2704 DUP3 DUP3 PUSH2 0x26BE JUMP JUMPDEST SWAP2 SWAP1 POP JUMP JUMPDEST PUSH0 PUSH8 0xFFFFFFFFFFFFFFFF DUP3 GT ISZERO PUSH2 0x2723 JUMPI PUSH2 0x2722 PUSH2 0x2691 JUMP JUMPDEST JUMPDEST PUSH2 0x272C DUP3 PUSH2 0x2681 JUMP JUMPDEST SWAP1 POP PUSH1 0x20 DUP2 ADD SWAP1 POP SWAP2 SWAP1 POP JUMP JUMPDEST DUP3 DUP2 DUP4 CALLDATACOPY PUSH0 DUP4 DUP4 ADD MSTORE POP POP POP JUMP JUMPDEST PUSH0 PUSH2 0x2759 PUSH2 0x2754 DUP5 PUSH2 0x2709 JUMP JUMPDEST PUSH2 0x26EF JUMP JUMPDEST SWAP1 POP DUP3 DUP2 MSTORE PUSH1 0x20 DUP2 ADD DUP5 DUP5 DUP5 ADD GT ISZERO PUSH2 0x2775 JUMPI PUSH2 0x2774 PUSH2 0x267D JUMP JUMPDEST JUMPDEST PUSH2 0x2780 DUP5 DUP3 DUP6 PUSH2 0x2739 JUMP JUMPDEST POP SWAP4 SWAP3 POP POP POP JUMP JUMPDEST PUSH0 DUP3 PUSH1 0x1F DUP4 ADD SLT PUSH2 0x279C JUMPI PUSH2 0x279B PUSH2 0x20D8 JUMP JUMPDEST JUMPDEST DUP2 CALLDATALOAD PUSH2 0x27AC DUP5 DUP3 PUSH1 0x20 DUP7 ADD PUSH2 0x2747 JUMP JUMPDEST SWAP2 POP POP SWAP3 SWAP2 POP POP JUMP JUMPDEST PUSH0 PUSH0 PUSH1 0x40 DUP4 DUP6 SUB SLT ISZERO PUSH2 0x27CB JUMPI PUSH2 0x27CA PUSH2 0x2060 JUMP JUMPDEST JUMPDEST PUSH0 PUSH2 0x27D8 DUP6 DUP3 DUP7 ADD PUSH2 0x2317 JUMP JUMPDEST SWAP3 POP POP PUSH1 0x20 DUP4 ADD CALLDATALOAD PUSH8 0xFFFFFFFFFFFFFFFF DUP2 GT ISZERO PUSH2 0x27F9 JUMPI PUSH2 0x27F8 PUSH2 0x2064 JUMP JUMPDEST JUMPDEST PUSH2 0x2805 DUP6 DUP3 DUP7 ADD PUSH2 0x2788 JUMP JUMPDEST SWAP2 POP POP SWAP3 POP SWAP3 SWAP1 POP JUMP JUMPDEST PUSH0 DUP2 SWAP1 POP SWAP2 SWAP1 POP JUMP JUMPDEST PUSH2 0x2821 DUP2 PUSH2 0x280F JUMP JUMPDEST DUP3 MSTORE POP POP JUMP JUMPDEST PUSH0 PUSH1 0x20 DUP3 ADD SWAP1 POP PUSH2 0x283A PUSH0 DUP4 ADD DUP5 PUSH2 0x2818 JUMP JUMPDEST SWAP3 SWAP2 POP POP JUMP JUMPDEST PUSH2 0x2849 DUP2 PUSH2 0x2068 JUMP JUMPDEST DUP3 MSTORE POP POP JUMP JUMPDEST PUSH0 PUSH1 0x20 DUP3 ADD SWAP1 POP PUSH2 0x2862 PUSH0 DUP4 ADD DUP5 PUSH2 0x2840 JUMP JUMPDEST SWAP3 SWAP2 POP POP JUMP JUMPDEST PUSH0 PUSH3 0xFFFFFF DUP3 AND SWAP1 POP SWAP2 SWAP1 POP JUMP JUMPDEST PUSH2 0x287F DUP2 PUSH2 0x2868 JUMP JUMPDEST DUP3 MSTORE POP POP JUMP JUMPDEST PUSH0 PUSH1 0x20 DUP3 ADD SWAP1 POP PUSH2 0x2898 PUSH0 DUP4 ADD DUP5 PUSH2 0x2876 JUMP JUMPDEST SWAP3 SWAP2 POP POP JUMP JUMPDEST PUSH0 PUSH0 PUSH0 PUSH0 PUSH0 PUSH0 PUSH1 0x80 DUP8 DUP10 SUB SLT ISZERO PUSH2 0x28B8 JUMPI PUSH2 0x28B7 PUSH2 0x2060 JUMP JUMPDEST JUMPDEST PUSH0 PUSH2 0x28C5 DUP10 DUP3 DUP11 ADD PUSH2 0x20C4 JUMP JUMPDEST SWAP7 POP POP PUSH1 0x20 PUSH2 0x28D6 DUP10 DUP3 DUP11 ADD PUSH2 0x2091 JUMP JUMPDEST SWAP6 POP POP PUSH1 0x40 DUP8 ADD CALLDATALOAD PUSH8 0xFFFFFFFFFFFFFFFF DUP2 GT ISZERO PUSH2 0x28F7 JUMPI PUSH2 0x28F6 PUSH2 0x2064 JUMP JUMPDEST JUMPDEST PUSH2 0x2903 DUP10 DUP3 DUP11 ADD PUSH2 0x20E4 JUMP JUMPDEST SWAP5 POP SWAP5 POP POP PUSH1 0x60 DUP8 ADD CALLDATALOAD PUSH8 0xFFFFFFFFFFFFFFFF DUP2 GT ISZERO PUSH2 0x2926 JUMPI PUSH2 0x2925 PUSH2 0x2064 JUMP JUMPDEST JUMPDEST PUSH2 0x2932 DUP10 DUP3 DUP11 ADD PUSH2 0x20E4 JUMP JUMPDEST SWAP3 POP SWAP3 POP POP SWAP3 SWAP6 POP SWAP3 SWAP6 POP SWAP3 SWAP6 JUMP JUMPDEST PUSH2 0x294A DUP2 PUSH2 0x20A5 JUMP JUMPDEST DUP3 MSTORE POP POP JUMP JUMPDEST PUSH0 PUSH1 0x20 DUP3 ADD SWAP1 POP PUSH2 0x2963 PUSH0 DUP4 ADD DUP5 PUSH2 0x2941 JUMP JUMPDEST SWAP3 SWAP2 POP POP JUMP JUMPDEST PUSH2 0x2972 DUP2 PUSH2 0x22F0 JUMP JUMPDEST DUP3 MSTORE POP POP JUMP JUMPDEST PUSH0 PUSH1 0x20 DUP3 ADD SWAP1 POP PUSH2 0x298B PUSH0 DUP4 ADD DUP5 PUSH2 0x2969 JUMP JUMPDEST SWAP3 SWAP2 POP POP JUMP JUMPDEST PUSH0 PUSH0 REVERT JUMPDEST PUSH0 PUSH2 0x140 DUP3 DUP5 SUB SLT ISZERO PUSH2 0x29AB JUMPI PUSH2 0x29AA PUSH2 0x2991 JUMP JUMPDEST JUMPDEST DUP2 SWAP1 POP SWAP3 SWAP2 POP POP JUMP JUMPDEST PUSH2 0x29BD DUP2 PUSH2 0x280F JUMP JUMPDEST DUP2 EQ PUSH2 0x29C7 JUMPI PUSH0 PUSH0 REVERT JUMPDEST POP JUMP JUMPDEST PUSH0 DUP2 CALLDATALOAD SWAP1 POP PUSH2 0x29D8 DUP2 PUSH2 0x29B4 JUMP JUMPDEST SWAP3 SWAP2 POP POP JUMP JUMPDEST PUSH0 PUSH0 PUSH0 PUSH1 0x60 DUP5 DUP7 SUB SLT ISZERO PUSH2 0x29F5 JUMPI PUSH2 0x29F4 PUSH2 0x2060 JUMP JUMPDEST JUMPDEST PUSH0 DUP5 ADD CALLDATALOAD PUSH8 0xFFFFFFFFFFFFFFFF DUP2 GT ISZERO PUSH2 0x2A12 JUMPI PUSH2 0x2A11 PUSH2 0x2064 JUMP JUMPDEST JUMPDEST PUSH2 0x2A1E DUP7 DUP3 DUP8 ADD PUSH2 0x2995 JUMP JUMPDEST SWAP4 POP POP PUSH1 0x20 PUSH2 0x2A2F DUP7 DUP3 DUP8 ADD PUSH2 0x29CA JUMP JUMPDEST SWAP3 POP POP PUSH1 0x40 PUSH2 0x2A40 DUP7 DUP3 DUP8 ADD PUSH2 0x20C4 JUMP JUMPDEST SWAP2 POP POP SWAP3 POP SWAP3 POP SWAP3 JUMP JUMPDEST PUSH0 DUP2 MLOAD SWAP1 POP SWAP2 SWAP1 POP JUMP JUMPDEST PUSH0 DUP3 DUP3 MSTORE PUSH1 0x20 DUP3 ADD SWAP1 POP SWAP3 SWAP2 POP POP JUMP JUMPDEST DUP3 DUP2 DUP4 MCOPY PUSH0 DUP4 DUP4 ADD MSTORE POP POP POP JUMP JUMPDEST PUSH0 PUSH2 0x2A7C DUP3 PUSH2 0x2A4A JUMP JUMPDEST PUSH2 0x2A86 DUP2 DUP6 PUSH2 0x2A54 JUMP JUMPDEST SWAP4 POP PUSH2 0x2A96 DUP2 DUP6 PUSH1 0x20 DUP7 ADD PUSH2 0x2A64 JUMP JUMPDEST PUSH2 0x2A9F DUP2 PUSH2 0x2681 JUMP JUMPDEST DUP5 ADD SWAP2 POP POP SWAP3 SWAP2 POP POP JUMP JUMPDEST PUSH0 PUSH1 0x20 DUP3 ADD SWAP1 POP DUP2 DUP2 SUB PUSH0 DUP4 ADD MSTORE PUSH2 0x2AC2 DUP2 DUP5 PUSH2 0x2A72 JUMP JUMPDEST SWAP1 POP SWAP3 SWAP2 POP POP JUMP JUMPDEST PUSH0 PUSH2 0x2AD4 DUP3 PUSH2 0x22A6 JUMP JUMPDEST SWAP1 POP SWAP2 SWAP1 POP JUMP JUMPDEST PUSH2 0x2AE4 DUP2 PUSH2 0x2ACA JUMP JUMPDEST DUP3 MSTORE POP POP JUMP JUMPDEST PUSH0 PUSH1 0x20 DUP3 ADD SWAP1 POP PUSH2 0x2AFD PUSH0 DUP4 ADD DUP5 PUSH2 0x2ADB JUMP JUMPDEST SWAP3 SWAP2 POP POP JUMP JUMPDEST PUSH0 PUSH0 PUSH0 PUSH0 PUSH1 0x60 DUP6 DUP8 SUB SLT ISZERO PUSH2 0x2B1B JUMPI PUSH2 0x2B1A PUSH2 0x2060 JUMP JUMPDEST JUMPDEST PUSH0 PUSH2 0x2B28 DUP8 DUP3 DUP9 ADD PUSH2 0x2317 JUMP JUMPDEST SWAP5 POP POP PUSH1 0x20 PUSH2 0x2B39 DUP8 DUP3 DUP9 ADD PUSH2 0x20C4 JUMP JUMPDEST SWAP4 POP POP PUSH1 0x40 DUP6 ADD CALLDATALOAD PUSH8 0xFFFFFFFFFFFFFFFF DUP2 GT ISZERO PUSH2 0x2B5A JUMPI PUSH2 0x2B59 PUSH2 0x2064 JUMP JUMPDEST JUMPDEST PUSH2 0x2B66 DUP8 DUP3 DUP9 ADD PUSH2 0x20E4 JUMP JUMPDEST SWAP3 POP SWAP3 POP POP SWAP3 SWAP6 SWAP2 SWAP5 POP SWAP3 POP JUMP JUMPDEST PUSH0 PUSH0 PUSH0 PUSH0 PUSH0 PUSH0 PUSH0 PUSH0 PUSH1 0xA0 DUP10 DUP12 SUB SLT ISZERO PUSH2 0x2B90 JUMPI PUSH2 0x2B8F PUSH2 0x2060 JUMP JUMPDEST JUMPDEST PUSH0 PUSH2 0x2B9D DUP12 DUP3 DUP13 ADD PUSH2 0x2317 JUMP JUMPDEST SWAP9 POP POP PUSH1 0x20 PUSH2 0x2BAE DUP12 DUP3 DUP13 ADD PUSH2 0x2317 JUMP JUMPDEST SWAP8 POP POP PUSH1 0x40 DUP10 ADD CALLDATALOAD PUSH8 0xFFFFFFFFFFFFFFFF DUP2 GT ISZERO PUSH2 0x2BCF JUMPI PUSH2 0x2BCE PUSH2 0x2064 JUMP JUMPDEST JUMPDEST PUSH2 0x2BDB DUP12 DUP3 DUP13 ADD PUSH2 0x24AA JUMP JUMPDEST SWAP7 POP SWAP7 POP POP PUSH1 0x60 DUP10 ADD CALLDATALOAD PUSH8 0xFFFFFFFFFFFFFFFF DUP2 GT ISZERO PUSH2 0x2BFE JUMPI PUSH2 0x2BFD PUSH2 0x2064 JUMP JUMPDEST JUMPDEST PUSH2 0x2C0A DUP12 DUP3 DUP13 ADD PUSH2 0x24AA JUMP JUMPDEST SWAP5 POP SWAP5 POP POP PUSH1 0x80 DUP10 ADD CALLDATALOAD PUSH8 0xFFFFFFFFFFFFFFFF DUP2 GT ISZERO PUSH2 0x2C2D JUMPI PUSH2 0x2C2C PUSH2 0x2064 JUMP JUMPDEST JUMPDEST PUSH2 0x2C39 DUP12 DUP3 DUP13 ADD PUSH2 0x20E4 JUMP JUMPDEST SWAP3 POP SWAP3 POP POP SWAP3 SWAP6 SWAP9 POP SWAP3 SWAP6 SWAP9 SWAP1 SWAP4 SWAP7 POP JUMP JUMPDEST PUSH0 PUSH1 0x20 DUP3 DUP5 SUB SLT ISZERO PUSH2 0x2C60 JUMPI PUSH2 0x2C5F PUSH2 0x2060 JUMP JUMPDEST JUMPDEST PUSH0 PUSH2 0x2C6D DUP5 DUP3 DUP6 ADD PUSH2 0x2317 JUMP JUMPDEST SWAP2 POP POP SWAP3 SWAP2 POP POP JUMP JUMPDEST PUSH0 PUSH0 PUSH0 PUSH0 PUSH0 PUSH0 PUSH1 0xA0 DUP8 DUP10 SUB SLT ISZERO PUSH2 0x2C90 JUMPI PUSH2 0x2C8F PUSH2 0x2060 JUMP JUMPDEST JUMPDEST PUSH0 PUSH2 0x2C9D DUP10 DUP3 DUP11 ADD PUSH2 0x2317 JUMP JUMPDEST SWAP7 POP POP PUSH1 0x20 PUSH2 0x2CAE DUP10 DUP3 DUP11 ADD PUSH2 0x2317 JUMP JUMPDEST SWAP6 POP POP PUSH1 0x40 PUSH2 0x2CBF DUP10 DUP3 DUP11 ADD PUSH2 0x20C4 JUMP JUMPDEST SWAP5 POP POP PUSH1 0x60 PUSH2 0x2CD0 DUP10 DUP3 DUP11 ADD PUSH2 0x20C4 JUMP JUMPDEST SWAP4 POP POP PUSH1 0x80 DUP8 ADD CALLDATALOAD PUSH8 0xFFFFFFFFFFFFFFFF DUP2 GT ISZERO PUSH2 0x2CF1 JUMPI PUSH2 0x2CF0 PUSH2 0x2064 JUMP JUMPDEST JUMPDEST PUSH2 0x2CFD DUP10 DUP3 DUP11 ADD PUSH2 0x20E4 JUMP JUMPDEST SWAP3 POP SWAP3 POP POP SWAP3 SWAP6 POP SWAP3 SWAP6 POP SWAP3 SWAP6 JUMP JUMPDEST PUSH0 PUSH0 PUSH0 PUSH0 PUSH0 PUSH1 0x80 DUP7 DUP9 SUB SLT ISZERO PUSH2 0x2D25 JUMPI PUSH2 0x2D24 PUSH2 0x2060 JUMP JUMPDEST JUMPDEST PUSH0 PUSH2 0x2D32 DUP9 DUP3 DUP10 ADD PUSH2 0x29CA JUMP JUMPDEST SWAP6 POP POP PUSH1 0x20 PUSH2 0x2D43 DUP9 DUP3 DUP10 ADD PUSH2 0x2091 JUMP JUMPDEST SWAP5 POP POP PUSH1 0x40 PUSH2 0x2D54 DUP9 DUP3 DUP10 ADD PUSH2 0x20C4 JUMP JUMPDEST SWAP4 POP POP PUSH1 0x60 DUP7 ADD CALLDATALOAD PUSH8 0xFFFFFFFFFFFFFFFF DUP2 GT ISZERO PUSH2 0x2D75 JUMPI PUSH2 0x2D74 PUSH2 0x2064 JUMP JUMPDEST JUMPDEST PUSH2 0x2D81 DUP9 DUP3 DUP10 ADD PUSH2 0x20E4 JUMP JUMPDEST SWAP3 POP SWAP3 POP POP SWAP3 SWAP6 POP SWAP3 SWAP6 SWAP1 SWAP4 POP JUMP JUMPDEST PUSH32 0x77726F6E67206172726179206C656E6774687300000000000000000000000000 PUSH0 DUP3 ADD MSTORE POP JUMP JUMPDEST PUSH0 PUSH2 0x2DC4 PUSH1 0x13 DUP4 PUSH2 0x2A54 JUMP JUMPDEST SWAP2 POP PUSH2 0x2DCF DUP3 PUSH2 0x2D90 JUMP JUMPDEST PUSH1 0x20 DUP3 ADD SWAP1 POP SWAP2 SWAP1 POP JUMP JUMPDEST PUSH0 PUSH1 0x20 DUP3 ADD SWAP1 POP DUP2 DUP2 SUB PUSH0 DUP4 ADD MSTORE PUSH2 0x2DF1 DUP2 PUSH2 0x2DB8 JUMP JUMPDEST SWAP1 POP SWAP2 SWAP1 POP JUMP JUMPDEST PUSH32 0x4E487B7100000000000000000000000000000000000000000000000000000000 PUSH0 MSTORE PUSH1 0x32 PUSH1 0x4 MSTORE PUSH1 0x24 PUSH0 REVERT JUMPDEST PUSH0 PUSH0 REVERT JUMPDEST PUSH0 PUSH0 REVERT JUMPDEST PUSH0 PUSH0 REVERT JUMPDEST PUSH0 PUSH0 DUP4 CALLDATALOAD PUSH1 0x1 PUSH1 0x20 SUB DUP5 CALLDATASIZE SUB SUB DUP2 SLT PUSH2 0x2E4D JUMPI PUSH2 0x2E4C PUSH2 0x2E25 JUMP JUMPDEST JUMPDEST DUP1 DUP5 ADD SWAP3 POP DUP3 CALLDATALOAD SWAP2 POP PUSH8 0xFFFFFFFFFFFFFFFF DUP3 GT ISZERO PUSH2 0x2E6F JUMPI PUSH2 0x2E6E PUSH2 0x2E29 JUMP JUMPDEST JUMPDEST PUSH1 0x20 DUP4 ADD SWAP3 POP PUSH1 0x1 DUP3 MUL CALLDATASIZE SUB DUP4 SGT ISZERO PUSH2 0x2E8B JUMPI PUSH2 0x2E8A PUSH2 0x2E2D JUMP JUMPDEST JUMPDEST POP SWAP3 POP SWAP3 SWAP1 POP JUMP JUMPDEST PUSH2 0x2E9C DUP2 PUSH2 0x2604 JUMP JUMPDEST DUP3 MSTORE POP POP JUMP JUMPDEST PUSH0 PUSH1 0x40 DUP3 ADD SWAP1 POP PUSH2 0x2EB5 PUSH0 DUP4 ADD DUP6 PUSH2 0x2E93 JUMP JUMPDEST PUSH2 0x2EC2 PUSH1 0x20 DUP4 ADD DUP5 PUSH2 0x2941 JUMP JUMPDEST SWAP4 SWAP3 POP POP POP JUMP JUMPDEST PUSH0 DUP2 MLOAD SWAP1 POP PUSH2 0x2ED7 DUP2 PUSH2 0x20AE JUMP JUMPDEST SWAP3 SWAP2 POP POP JUMP JUMPDEST PUSH0 PUSH1 0x20 DUP3 DUP5 SUB SLT ISZERO PUSH2 0x2EF2 JUMPI PUSH2 0x2EF1 PUSH2 0x2060 JUMP JUMPDEST JUMPDEST PUSH0 PUSH2 0x2EFF DUP5 DUP3 DUP6 ADD PUSH2 0x2EC9 JUMP JUMPDEST SWAP2 POP POP SWAP3 SWAP2 POP POP JUMP JUMPDEST PUSH0 DUP2 SWAP1 POP SWAP2 SWAP1 POP JUMP JUMPDEST PUSH0 PUSH2 0x2F2B PUSH2 0x2F26 PUSH2 0x2F21 DUP5 PUSH2 0x2F08 JUMP JUMPDEST PUSH2 0x227C JUMP JUMPDEST PUSH2 0x2068 JUMP JUMPDEST SWAP1 POP SWAP2 SWAP1 POP JUMP JUMPDEST PUSH2 0x2F3B DUP2 PUSH2 0x2F11 JUMP JUMPDEST DUP3 MSTORE POP POP JUMP JUMPDEST PUSH0 PUSH1 0x20 DUP3 ADD SWAP1 POP PUSH2 0x2F54 PUSH0 DUP4 ADD DUP5 PUSH2 0x2F32 JUMP JUMPDEST SWAP3 SWAP2 POP POP JUMP JUMPDEST PUSH0 DUP2 SWAP1 POP SWAP2 SWAP1 POP JUMP JUMPDEST PUSH0 PUSH24 0xFFFFFFFFFFFFFFFFFFFFFFFFFFFFFFFFFFFFFFFFFFFFFFFF DUP3 AND SWAP1 POP SWAP2 SWAP1 POP JUMP JUMPDEST PUSH0 PUSH2 0x2FA0 PUSH2 0x2F9B PUSH2 0x2F96 DUP5 PUSH2 0x2F5A JUMP JUMPDEST PUSH2 0x227C JUMP JUMPDEST PUSH2 0x2F63 JUMP JUMPDEST SWAP1 POP SWAP2 SWAP1 POP JUMP JUMPDEST PUSH2 0x2FB0 DUP2 PUSH2 0x2F86 JUMP JUMPDEST DUP3 MSTORE POP POP JUMP JUMPDEST PUSH0 PUSH1 0x40 DUP3 ADD SWAP1 POP PUSH2 0x2FC9 PUSH0 DUP4 ADD DUP6 PUSH2 0x2969 JUMP JUMPDEST PUSH2 0x2FD6 PUSH1 0x20 DUP4 ADD DUP5 PUSH2 0x2FA7 JUMP JUMPDEST SWAP4 SWAP3 POP POP POP JUMP JUMPDEST PUSH32 0x6F6E6C79206F776E657200000000000000000000000000000000000000000000 PUSH0 DUP3 ADD MSTORE POP JUMP JUMPDEST PUSH0 PUSH2 0x3011 PUSH1 0xA DUP4 PUSH2 0x2A54 JUMP JUMPDEST SWAP2 POP PUSH2 0x301C DUP3 PUSH2 0x2FDD JUMP JUMPDEST PUSH1 0x20 DUP3 ADD SWAP1 POP SWAP2 SWAP1 POP JUMP JUMPDEST PUSH0 PUSH1 0x20 DUP3 ADD SWAP1 POP DUP2 DUP2 SUB PUSH0 DUP4 ADD MSTORE PUSH2 0x303E DUP2 PUSH2 0x3005 JUMP JUMPDEST SWAP1 POP SWAP2 SWAP1 POP JUMP JUMPDEST PUSH0 DUP2 MLOAD SWAP1 POP SWAP2 SWAP1 POP JUMP JUMPDEST PUSH0 DUP2 SWAP1 POP SWAP3 SWAP2 POP POP JUMP JUMPDEST PUSH0 PUSH2 0x3063 DUP3 PUSH2 0x3045 JUMP JUMPDEST PUSH2 0x306D DUP2 DUP6 PUSH2 0x304F JUMP JUMPDEST SWAP4 POP PUSH2 0x307D DUP2 DUP6 PUSH1 0x20 DUP7 ADD PUSH2 0x2A64 JUMP JUMPDEST DUP1 DUP5 ADD SWAP2 POP POP SWAP3 SWAP2 POP POP JUMP JUMPDEST PUSH0 PUSH2 0x3094 DUP3 DUP5 PUSH2 0x3059 JUMP JUMPDEST SWAP2 POP DUP2 SWAP1 POP SWAP3 SWAP2 POP POP JUMP JUMPDEST PUSH32 0x6163636F756E743A206E6F74204F776E6572206F7220456E747279506F696E74 PUSH0 DUP3 ADD MSTORE POP JUMP JUMPDEST PUSH0 PUSH2 0x30D3 PUSH1 0x20 DUP4 PUSH2 0x2A54 JUMP JUMPDEST SWAP2 POP PUSH2 0x30DE DUP3 PUSH2 0x309F JUMP JUMPDEST PUSH1 0x20 DUP3 ADD SWAP1 POP SWAP2 SWAP1 POP JUMP JUMPDEST PUSH0 PUSH1 0x20 DUP3 ADD SWAP1 POP DUP2 DUP2 SUB PUSH0 DUP4 ADD MSTORE PUSH2 0x3100 DUP2 PUSH2 0x30C7 JUMP JUMPDEST SWAP1 POP SWAP2 SWAP1 POP JUMP JUMPDEST PUSH0 DUP2 MLOAD SWAP1 POP PUSH2 0x3115 DUP2 PUSH2 0x29B4 JUMP JUMPDEST SWAP3 SWAP2 POP POP JUMP JUMPDEST PUSH0 PUSH1 0x20 DUP3 DUP5 SUB SLT ISZERO PUSH2 0x3130 JUMPI PUSH2 0x312F PUSH2 0x2060 JUMP JUMPDEST JUMPDEST PUSH0 PUSH2 0x313D DUP5 DUP3 DUP6 ADD PUSH2 0x3107 JUMP JUMPDEST SWAP2 POP POP SWAP3 SWAP2 POP POP JUMP JUMPDEST PUSH0 DUP3 DUP3 MSTORE PUSH1 0x20 DUP3 ADD SWAP1 POP SWAP3 SWAP2 POP POP JUMP JUMPDEST PUSH0 PUSH2 0x3160 DUP3 PUSH2 0x3045 JUMP JUMPDEST PUSH2 0x316A DUP2 DUP6 PUSH2 0x3146 JUMP JUMPDEST SWAP4 POP PUSH2 0x317A DUP2 DUP6 PUSH1 0x20 DUP7 ADD PUSH2 0x2A64 JUMP JUMPDEST PUSH2 0x3183 DUP2 PUSH2 0x2681 JUMP JUMPDEST DUP5 ADD SWAP2 POP POP SWAP3 SWAP2 POP POP JUMP JUMPDEST PUSH0 PUSH1 0x80 DUP3 ADD SWAP1 POP PUSH2 0x31A1 PUSH0 DUP4 ADD DUP8 PUSH2 0x2941 JUMP JUMPDEST PUSH2 0x31AE PUSH1 0x20 DUP4 ADD DUP7 PUSH2 0x2840 JUMP JUMPDEST DUP2 DUP2 SUB PUSH1 0x40 DUP4 ADD MSTORE PUSH2 0x31C0 DUP2 DUP6 PUSH2 0x3156 JUMP JUMPDEST SWAP1 POP DUP2 DUP2 SUB PUSH1 0x60 DUP4 ADD MSTORE PUSH2 0x31D4 DUP2 DUP5 PUSH2 0x3156 JUMP JUMPDEST SWAP1 POP SWAP6 SWAP5 POP POP POP POP POP JUMP JUMPDEST PUSH32 0x6163636F756E743A206E6F742066726F6D20456E747279506F696E7400000000 PUSH0 DUP3 ADD MSTORE POP JUMP JUMPDEST PUSH0 PUSH2 0x3213 PUSH1 0x1C DUP4 PUSH2 0x2A54 JUMP JUMPDEST SWAP2 POP PUSH2 0x321E DUP3 PUSH2 0x31DF JUMP JUMPDEST PUSH1 0x20 DUP3 ADD SWAP1 POP SWAP2 SWAP1 POP JUMP JUMPDEST PUSH0 PUSH1 0x20 DUP3 ADD SWAP1 POP DUP2 DUP2 SUB PUSH0 DUP4 ADD MSTORE PUSH2 0x3240 DUP2 PUSH2 0x3207 JUMP JUMPDEST SWAP1 POP SWAP2 SWAP1 POP JUMP JUMPDEST POP JUMP JUMPDEST PUSH0 PUSH2 0x3255 PUSH0 DUP4 PUSH2 0x304F JUMP JUMPDEST SWAP2 POP PUSH2 0x3260 DUP3 PUSH2 0x3247 JUMP JUMPDEST PUSH0 DUP3 ADD SWAP1 POP SWAP2 SWAP1 POP JUMP JUMPDEST PUSH0 PUSH2 0x3274 DUP3 PUSH2 0x324A JUMP JUMPDEST SWAP2 POP DUP2 SWAP1 POP SWAP2 SWAP1 POP JUMP JUMPDEST PUSH32 0x4E487B7100000000000000000000000000000000000000000000000000000000 PUSH0 MSTORE PUSH1 0x21 PUSH1 0x4 MSTORE PUSH1 0x24 PUSH0 REVERT JUMPDEST PUSH0 PUSH1 0xFF DUP3 AND SWAP1 POP SWAP2 SWAP1 POP JUMP JUMPDEST PUSH2 0x32C0 DUP2 PUSH2 0x32AB JUMP JUMPDEST DUP3 MSTORE POP POP JUMP JUMPDEST PUSH0 PUSH1 0x80 DUP3 ADD SWAP1 POP PUSH2 0x32D9 PUSH0 DUP4 ADD DUP8 PUSH2 0x2818 JUMP JUMPDEST PUSH2 0x32E6 PUSH1 0x20 DUP4 ADD DUP7 PUSH2 0x32B7 JUMP JUMPDEST PUSH2 0x32F3 PUSH1 0x40 DUP4 ADD DUP6 PUSH2 0x2818 JUMP JUMPDEST PUSH2 0x3300 PUSH1 0x60 DUP4 ADD DUP5 PUSH2 0x2818 JUMP JUMPDEST SWAP6 SWAP5 POP POP POP POP POP JUMP INVALID LOG2 PUSH5 0x6970667358 0x22 SLT KECCAK256 SAR PUSH32 0xDDCC30A06D055290C9506B2504C506DB4D3F07D2AEE9C1E0145A23500B246473 PUSH16 0x6C634300081C00330000000000000000 "
		},
		"gasEstimates": {
			"creation": {
				"codeDepositCost": "633800",
				"executionCost": "infinite",
				"totalCost": "infinite"
			},
			"external": {
				"accountImplementation()": "infinite",
				"createAccount(address,uint256)": "infinite",
				"getAddress(address,uint256)": "infinite"
			}
		},
		"methodIdentifiers": {
			"accountImplementation()": "11464fbe",
			"createAccount(address,uint256)": "5fbfb9cf",
			"getAddress(address,uint256)": "8cb84e18"
		}
	},
	"abi": [
		{
			"inputs": [
				{
					"internalType": "contract IEntryPoint",
					"name": "_entryPoint",
					"type": "address"
				},
				{
					"internalType": "address",
					"name": "vizingPad",
					"type": "address"
				}
			],
			"stateMutability": "nonpayable",
			"type": "constructor"
		},
		{
			"inputs": [],
			"name": "accountImplementation",
			"outputs": [
				{
					"internalType": "contract VizingZKAAWallet",
					"name": "",
					"type": "address"
				}
			],
			"stateMutability": "view",
			"type": "function"
		},
		{
			"inputs": [
				{
					"internalType": "address",
					"name": "owner",
					"type": "address"
				},
				{
					"internalType": "uint256",
					"name": "salt",
					"type": "uint256"
				}
			],
			"name": "createAccount",
			"outputs": [
				{
					"internalType": "contract VizingZKAAWallet",
					"name": "ret",
					"type": "address"
				}
			],
			"stateMutability": "nonpayable",
			"type": "function"
		},
		{
			"inputs": [
				{
					"internalType": "address",
					"name": "owner",
					"type": "address"
				},
				{
					"internalType": "uint256",
					"name": "salt",
					"type": "uint256"
				}
			],
			"name": "getAddress",
			"outputs": [
				{
					"internalType": "address",
					"name": "",
					"type": "address"
				}
			],
			"stateMutability": "view",
			"type": "function"
		}
	]
}